Component: ARM Compiler 5.06 update 7 (build 960) Tool: armlink [4d3601]

==============================================================================

Section Cross References

    startup_stm32f401xc.o(RESET) refers to startup_stm32f401xc.o(STACK) for __initial_sp
    startup_stm32f401xc.o(RESET) refers to startup_stm32f401xc.o(.text) for Reset_Handler
    startup_stm32f401xc.o(RESET) refers to stm32f4xx_it.o(i.NMI_Handler) for NMI_Handler
    startup_stm32f401xc.o(RESET) refers to stm32f4xx_it.o(i.HardFault_Handler) for HardFault_Handler
    startup_stm32f401xc.o(RESET) refers to stm32f4xx_it.o(i.MemManage_Handler) for MemManage_Handler
    startup_stm32f401xc.o(RESET) refers to stm32f4xx_it.o(i.BusFault_Handler) for BusFault_Handler
    startup_stm32f401xc.o(RESET) refers to stm32f4xx_it.o(i.UsageFault_Handler) for UsageFault_Handler
    startup_stm32f401xc.o(RESET) refers to stm32f4xx_it.o(i.SVC_Handler) for SVC_Handler
    startup_stm32f401xc.o(RESET) refers to stm32f4xx_it.o(i.DebugMon_Handler) for DebugMon_Handler
    startup_stm32f401xc.o(RESET) refers to stm32f4xx_it.o(i.PendSV_Handler) for PendSV_Handler
    startup_stm32f401xc.o(RESET) refers to stm32f4xx_it.o(i.SysTick_Handler) for SysTick_Handler
    startup_stm32f401xc.o(RESET) refers to stm32f4xx_it.o(i.EXTI9_5_IRQHandler) for EXTI9_5_IRQHandler
    startup_stm32f401xc.o(RESET) refers to stm32f4xx_it.o(i.TIM2_IRQHandler) for TIM2_IRQHandler
    startup_stm32f401xc.o(RESET) refers to stm32f4xx_it.o(i.USART6_IRQHandler) for USART6_IRQHandler
    startup_stm32f401xc.o(.text) refers to system_stm32f4xx.o(i.SystemInit) for SystemInit
    startup_stm32f401xc.o(.text) refers to entry.o(.ARM.Collect$$$$00000000) for __main
    main.o(i.HAL_GPIO_EXTI_Callback) refers to nrf24l01.o(i.NRF24L01_RxPacket) for NRF24L01_RxPacket
    main.o(i.HAL_GPIO_EXTI_Callback) refers to uart.o(i.send_char_array) for send_char_array
==============================================================================

Removing Unused input sections from the image.

    Removing startup_stm32f401xc.o(HEAP), (512 bytes).
    Removing main.o(.rev16_text), (4 bytes).
    Removing main.o(.revsh_text), (4 bytes).
    Removing main.o(.rrx_text), (6 bytes).
    Removing main.o(i.Error_Handler), (4 bytes).
    Removing stm32f4xx_it.o(.rev16_text), (4 bytes).
    Removing stm32f4xx_it.o(.revsh_text), (4 bytes).
    Removing stm32f4xx_it.o(.rrx_text), (6 bytes).
    Removing stm32f4xx_it.o(.data), (1 bytes).
    Removing stm32f4xx_hal_msp.o(.rev16_text), (4 bytes).
    Removing stm32f4xx_hal_msp.o(.revsh_text), (4 bytes).
    Removing stm32f4xx_hal_msp.o(.rrx_text), (6 bytes).
    Removing stm32f4xx_hal_msp.o(i.HAL_I2C_MspDeInit), (56 bytes).
    Removing stm32f4xx_hal_msp.o(i.HAL_SPI_MspDeInit), (44 bytes).
    Removing stm32f4xx_hal_msp.o(i.HAL_TIM_Base_MspDeInit), (64 bytes).
    Removing stm32f4xx_hal_msp.o(i.HAL_UART_MspDeInit), (56 bytes).
    Removing stm32f4xx_hal_tim.o(.rev16_text), (4 bytes).
    Removing stm32f4xx_hal_tim.o(.revsh_text), (4 bytes).
==============================================================================

Image Symbol Table

    Local Symbols

    Symbol Name                              Value     Ov Type        Size  Object(Section)

    ../Core/Src/main.c                       0x00000000   Number         0  main.o ABSOLUTE
    ../Core/Src/stm32f4xx_hal_msp.c          0x00000000   Number         0  stm32f4xx_hal_msp.o ABSOLUTE
    ../Core/Src/stm32f4xx_it.c               0x00000000   Number         0  stm32f4xx_it.o ABSOLUTE
    ../Core/Src/system_stm32f4xx.c           0x00000000   Number         0  system_stm32f4xx.o ABSOLUTE
    ../Drivers/STM32F4xx_HAL_Driver/Src/stm32f4xx_hal.c 0x00000000   Number         0  stm32f4xx_hal.o ABSOLUTE
    ../Drivers/STM32F4xx_HAL_Driver/Src/stm32f4xx_hal_cortex.c 0x00000000   Number         0  stm32f4xx_hal_cortex.o ABSOLUTE
    ../Drivers/STM32F4xx_HAL_Driver/Src/stm32f4xx_hal_dma.c 0x00000000   Number         0  stm32f4xx_hal_dma.o ABSOLUTE
    ../Drivers/STM32F4xx_HAL_Driver/Src/stm32f4xx_hal_dma_ex.c 0x00000000   Number         0  stm32f4xx_hal_dma_ex.o ABSOLUTE
    ../Drivers/STM32F4xx_HAL_Driver/Src/stm32f4xx_hal_exti.c 0x00000000   Number         0  stm32f4xx_hal_exti.o ABSOLUTE
    ../Drivers/STM32F4xx_HAL_Driver/Src/stm32f4xx_hal_flash.c 0x00000000   Number         0  stm32f4xx_hal_flash.o ABSOLUTE
    ../Drivers/STM32F4xx_HAL_Driver/Src/stm32f4xx_hal_flash_ex.c 0x00000000   Number         0  stm32f4xx_hal_flash_ex.o ABSOLUTE
    ../Drivers/STM32F4xx_HAL_Driver/Src/stm32f4xx_hal_flash_ramfunc.c 0x00000000   Number         0  stm32f4xx_hal_flash_ramfunc.o ABSOLUTE
    ../Drivers/STM32F4xx_HAL_Driver/Src/stm32f4xx_hal_gpio.c 0x00000000   Number         0  stm32f4xx_hal_gpio.o ABSOLUTE
    ../Drivers/STM32F4xx_HAL_Driver/Src/stm32f4xx_hal_pwr.c 0x00000000   Number         0  stm32f4xx_hal_pwr.o ABSOLUTE
    ../Drivers/STM32F4xx_HAL_Driver/Src/stm32f4xx_hal_pwr_ex.c 0x00000000   Number         0  stm32f4xx_hal_pwr_ex.o ABSOLUTE
    ../Drivers/STM32F4xx_HAL_Driver/Src/stm32f4xx_hal_rcc.c 0x00000000   Number         0  stm32f4xx_hal_rcc.o ABSOLUTE
    ../Drivers/STM32F4xx_HAL_Driver/Src/stm32f4xx_hal_rcc_ex.c 0x00000000   Number         0  stm32f4xx_hal_rcc_ex.o ABSOLUTE
    ../Drivers/STM32F4xx_HAL_Driver/Src/stm32f4xx_hal_tim.c 0x00000000   Number         0  stm32f4xx_hal_tim.o ABSOLUTE
    ../Drivers/STM32F4xx_HAL_Driver/Src/stm32f4xx_hal_tim_ex.c 0x00000000   Number         0  stm32f4xx_hal_tim_ex.o ABSOLUTE
    ../Drivers/STM32F4xx_HAL_Driver/Src/stm32f4xx_hal_uart.c 0x00000000   Number         0  stm32f4xx_hal_uart.o ABSOLUTE
    ../clib/microlib/division.c              0x00000000   Number         0  uldiv.o ABSOLUTE
    ../clib/microlib/init/entry.s            0x00000000   Number         0  entry12a.o ABSOLUTE
    ../clib/microlib/init/entry.s            0x00000000   Number         0  entry7b.o ABSOLUTE
    ../clib/microlib/init/entry.s            0x00000000   Number         0  entry5.o ABSOLUTE
    ../clib/microlib/init/entry.s            0x00000000   Number         0  entry2.o ABSOLUTE
    ../clib/microlib/init/entry.s            0x00000000   Number         0  entry10b.o ABSOLUTE
    ../clib/microlib/init/entry.s            0x00000000   Number         0  entry10a.o ABSOLUTE
    ../clib/microlib/init/entry.s            0x00000000   Number         0  entry9b.o ABSOLUTE
    ../clib/microlib/init/entry.s            0x00000000   Number         0  entry11a.o ABSOLUTE
    ../clib/microlib/init/entry.s            0x00000000   Number         0  entry9a.o ABSOLUTE
    ../clib/microlib/init/entry.s            0x00000000   Number         0  entry12b.o ABSOLUTE
    ../clib/microlib/init/entry.s            0x00000000   Number         0  entry8b.o ABSOLUTE
    ../clib/microlib/init/entry.s            0x00000000   Number         0  entry7a.o ABSOLUTE
    ../clib/microlib/init/entry.s            0x00000000   Number         0  entry.o ABSOLUTE
    ../clib/microlib/init/entry.s            0x00000000   Number         0  entry8a.o ABSOLUTE
    ../clib/microlib/init/entry.s            0x00000000   Number         0  entry11b.o ABSOLUTE
    ../clib/microlib/longlong.c              0x00000000   Number         0  llsshr.o ABSOLUTE
    ../clib/microlib/longlong.c              0x00000000   Number         0  llshl.o ABSOLUTE
    ../clib/microlib/longlong.c              0x00000000   Number         0  llushr.o ABSOLUTE
    ../clib/microlib/string/memset.c         0x00000000   Number         0  memseta.o ABSOLUTE
    ../clib/microlib/stubs.s                 0x00000000   Number         0  iusefp.o ABSOLUTE
    ../fplib/microlib/d2f.c                  0x00000000   Number         0  d2f.o ABSOLUTE
    ../fplib/microlib/f2d.c                  0x00000000   Number         0  f2d.o ABSOLUTE
    ../fplib/microlib/fpadd.c                0x00000000   Number         0  dadd.o ABSOLUTE
    ../fplib/microlib/fpepilogue.c           0x00000000   Number         0  depilogue.o ABSOLUTE
    ../fplib/microlib/fpepilogue.c           0x00000000   Number         0  fepilogue.o ABSOLUTE
    ../fplib/microlib/fpflt.c                0x00000000   Number         0  dflti.o ABSOLUTE
    ../fplib/microlib/fpmul.c                0x00000000   Number         0  dmul.o ABSOLUTE
    ..\Core\Src\main.c                       0x00000000   Number         0  main.o ABSOLUTE
    ..\Core\Src\stm32f4xx_hal_msp.c          0x00000000   Number         0  stm32f4xx_hal_msp.o ABSOLUTE
    ..\Core\Src\stm32f4xx_it.c               0x00000000   Number         0  stm32f4xx_it.o ABSOLUTE
    ..\Core\Src\system_stm32f4xx.c           0x00000000   Number         0  system_stm32f4xx.o ABSOLUTE
    ..\Drivers\STM32F4xx_HAL_Driver\Src\stm32f4xx_hal.c 0x00000000   Number         0  stm32f4xx_hal.o ABSOLUTE
    ..\Drivers\STM32F4xx_HAL_Driver\Src\stm32f4xx_hal_cortex.c 0x00000000   Number         0  stm32f4xx_hal_cortex.o ABSOLUTE
    ..\Drivers\STM32F4xx_HAL_Driver\Src\stm32f4xx_hal_dma.c 0x00000000   Number         0  stm32f4xx_hal_dma.o ABSOLUTE
    ..\Drivers\STM32F4xx_HAL_Driver\Src\stm32f4xx_hal_dma_ex.c 0x00000000   Number         0  stm32f4xx_hal_dma_ex.o ABSOLUTE
    ..\Drivers\STM32F4xx_HAL_Driver\Src\stm32f4xx_hal_exti.c 0x00000000   Number         0  stm32f4xx_hal_exti.o ABSOLUTE
    ..\Drivers\STM32F4xx_HAL_Driver\Src\stm32f4xx_hal_flash.c 0x00000000   Number         0  stm32f4xx_hal_flash.o ABSOLUTE
    ..\Drivers\STM32F4xx_HAL_Driver\Src\stm32f4xx_hal_flash_ex.c 0x00000000   Number         0  stm32f4xx_hal_flash_ex.o ABSOLUTE
    ..\Drivers\STM32F4xx_HAL_Driver\Src\stm32f4xx_hal_flash_ramfunc.c 0x00000000   Number         0  stm32f4xx_hal_flash_ramfunc.o ABSOLUTE
    ..\Drivers\STM32F4xx_HAL_Driver\Src\stm32f4xx_hal_gpio.c 0x00000000   Number         0  stm32f4xx_hal_gpio.o ABSOLUTE
    ..\Drivers\STM32F4xx_HAL_Driver\Src\stm32f4xx_hal_i2c.c 0x00000000   Number         0  stm32f4xx_hal_i2c.o ABSOLUTE
    ..\Drivers\STM32F4xx_HAL_Driver\Src\stm32f4xx_hal_i2c_ex.c 0x00000000   Number         0  stm32f4xx_hal_i2c_ex.o ABSOLUTE
    ..\Drivers\STM32F4xx_HAL_Driver\Src\stm32f4xx_hal_pwr.c 0x00000000   Number         0  stm32f4xx_hal_pwr.o ABSOLUTE
    ..\Drivers\STM32F4xx_HAL_Driver\Src\stm32f4xx_hal_pwr_ex.c 0x00000000   Number         0  stm32f4xx_hal_pwr_ex.o ABSOLUTE
    ..\Drivers\STM32F4xx_HAL_Driver\Src\stm32f4xx_hal_rcc.c 0x00000000   Number         0  stm32f4xx_hal_rcc.o ABSOLUTE
    ..\Drivers\STM32F4xx_HAL_Driver\Src\stm32f4xx_hal_rcc_ex.c 0x00000000   Number         0  stm32f4xx_hal_rcc_ex.o ABSOLUTE
    ..\Drivers\STM32F4xx_HAL_Driver\Src\stm32f4xx_hal_spi.c 0x00000000   Number         0  stm32f4xx_hal_spi.o ABSOLUTE
    ..\Drivers\STM32F4xx_HAL_Driver\Src\stm32f4xx_hal_tim.c 0x00000000   Number         0  stm32f4xx_hal_tim.o ABSOLUTE
    ..\Drivers\STM32F4xx_HAL_Driver\Src\stm32f4xx_hal_tim_ex.c 0x00000000   Number         0  stm32f4xx_hal_tim_ex.o ABSOLUTE
    ..\Drivers\STM32F4xx_HAL_Driver\Src\stm32f4xx_hal_uart.c 0x00000000   Number         0  stm32f4xx_hal_uart.o ABSOLUTE
    ..\Sources\NRF24L01.c                    0x00000000   Number         0  nrf24l01.o ABSOLUTE
    ..\Sources\SPL06_001.c                   0x00000000   Number         0  spl06_001.o ABSOLUTE
    ..\Sources\uart.c                        0x00000000   Number         0  uart.o ABSOLUTE
    ..\\Drivers\\STM32F4xx_HAL_Driver\\Src\\stm32f4xx_hal_i2c.c 0x00000000   Number         0  stm32f4xx_hal_i2c.o ABSOLUTE
    ..\\Drivers\\STM32F4xx_HAL_Driver\\Src\\stm32f4xx_hal_i2c_ex.c 0x00000000   Number         0  stm32f4xx_hal_i2c_ex.o ABSOLUTE
    ..\\Drivers\\STM32F4xx_HAL_Driver\\Src\\stm32f4xx_hal_spi.c 0x00000000   Number         0  stm32f4xx_hal_spi.o ABSOLUTE
    ..\\Sources\\NRF24L01.c                  0x00000000   Number         0  nrf24l01.o ABSOLUTE
    ..\\Sources\\SPL06_001.c                 0x00000000   Number         0  spl06_001.o ABSOLUTE
    ..\\Sources\\uart.c                      0x00000000   Number         0  uart.o ABSOLUTE
    dc.s                                     0x00000000   Number         0  dc.o ABSOLUTE
    handlers.s                               0x00000000   Number         0  handlers.o ABSOLUTE
    init.s                                   0x00000000   Number         0  init.o ABSOLUTE
    startup_stm32f401xc.s                    0x00000000   Number         0  startup_stm32f401xc.o ABSOLUTE
    RESET                                    0x08000000   Section      404  startup_stm32f401xc.o(RESET)
    .ARM.Collect$$$$00000000                 0x08000194   Section        0  entry.o(.ARM.Collect$$$$00000000)
    .ARM.Collect$$$$00000001                 0x08000194   Section        4  entry2.o(.ARM.Collect$$$$00000001)
    .ARM.Collect$$$$00000004                 0x08000198   Section        4  entry5.o(.ARM.Collect$$$$00000004)
    .ARM.Collect$$$$00000008                 0x0800019c   Section        0  entry7b.o(.ARM.Collect$$$$00000008)
    .ARM.Collect$$$$0000000A                 0x0800019c   Section        0  entry8b.o(.ARM.Collect$$$$0000000A)
    .ARM.Collect$$$$0000000B                 0x0800019c   Section        8  entry9a.o(.ARM.Collect$$$$0000000B)
    .ARM.Collect$$$$0000000E                 0x080001a4   Section        4  entry12b.o(.ARM.Collect$$$$0000000E)
    .ARM.Collect$$$$0000000F                 0x080001a8   Section        0  entry10a.o(.ARM.Collect$$$$0000000F)
    .ARM.Collect$$$$00000011                 0x080001a8   Section        0  entry11a.o(.ARM.Collect$$$$00000011)
    .ARM.Collect$$$$00002712                 0x080001a8   Section        4  entry2.o(.ARM.Collect$$$$00002712)
    __lit__00000000                          0x080001a8   Data           4  entry2.o(.ARM.Collect$$$$00002712)
    .text                                    0x080001ac   Section       36  startup_stm32f401xc.o(.text)
    $v0                                      0x080001ac   Number         0  startup_stm32f401xc.o(.text)
    .text                                    0x080001d0   Section        0  uldiv.o(.text)
    .text                                    0x08000232   Section        0  memseta.o(.text)
    .text                                    0x08000256   Section        0  dadd.o(.text)
    .text                                    0x080003a4   Section        0  dmul.o(.text)
    .text                                    0x08000488   Section        0  dflti.o(.text)
    .text                                    0x080004aa   Section        0  f2d.o(.text)
    .text                                    0x080004d0   Section        0  d2f.o(.text)
    .text                                    0x08000508   Section        0  llshl.o(.text)
    .text                                    0x08000526   Section        0  llushr.o(.text)
    .text                                    0x08000546   Section        0  llsshr.o(.text)
    .text                                    0x0800056a   Section        0  iusefp.o(.text)
    .text                                    0x0800056a   Section        0  fepilogue.o(.text)
    .text                                    0x080005d8   Section        0  depilogue.o(.text)
    .text                                    0x08000694   Section       36  init.o(.text)
    i.BusFault_Handler                       0x080006b8   Section        0  stm32f4xx_it.o(i.BusFault_Handler)
    i.DebugMon_Handler                       0x080006ba   Section        0  stm32f4xx_it.o(i.DebugMon_Handler)
    i.EXTI9_5_IRQHandler                     0x080006bc   Section        0  stm32f4xx_it.o(i.EXTI9_5_IRQHandler)
    i.HAL_DMA_Abort                          0x080006c4   Section        0  stm32f4xx_hal_dma.o(i.HAL_DMA_Abort)
    i.HAL_DMA_Abort_IT                       0x08000752   Section        0  stm32f4xx_hal_dma.o(i.HAL_DMA_Abort_IT)
    i.HAL_Delay                              0x08000778   Section        0  stm32f4xx_hal.o(i.HAL_Delay)
    i.HAL_GPIO_EXTI_Callback                 0x0800079c   Section        0  main.o(i.HAL_GPIO_EXTI_Callback)
    i.HAL_GPIO_EXTI_IRQHandler               0x080007d8   Section        0  stm32f4xx_hal_gpio.o(i.HAL_GPIO_EXTI_IRQHandler)
    i.HAL_GPIO_Init                          0x080007f0   Section        0  stm32f4xx_hal_gpio.o(i.HAL_GPIO_Init)
    i.HAL_GPIO_TogglePin                     0x080009cc   Section        0  stm32f4xx_hal_gpio.o(i.HAL_GPIO_TogglePin)
    i.HAL_GPIO_WritePin                      0x080009dc   Section        0  stm32f4xx_hal_gpio.o(i.HAL_GPIO_WritePin)
    i.HAL_GetTick                            0x080009e8   Section        0  stm32f4xx_hal.o(i.HAL_GetTick)
    i.HAL_I2C_Init                           0x080009f4   Section        0  stm32f4xx_hal_i2c.o(i.HAL_I2C_Init)
    i.HAL_I2C_Mem_Read                       0x08000b7c   Section        0  stm32f4xx_hal_i2c.o(i.HAL_I2C_Mem_Read)
    i.HAL_I2C_Mem_Write                      0x08000d74   Section        0  stm32f4xx_hal_i2c.o(i.HAL_I2C_Mem_Write)
    i.HAL_I2C_MspInit                        0x08000ea4   Section        0  stm32f4xx_hal_msp.o(i.HAL_I2C_MspInit)
    i.HAL_IncTick                            0x08000f0c   Section        0  stm32f4xx_hal.o(i.HAL_IncTick)
    i.HAL_Init                               0x08000f1c   Section        0  stm32f4xx_hal.o(i.HAL_Init)
    i.HAL_InitTick                           0x08000f50   Section        0  stm32f4xx_hal.o(i.HAL_InitTick)
    i.HAL_MspInit                            0x08000f90   Section        0  stm32f4xx_hal_msp.o(i.HAL_MspInit)
    i.HAL_NVIC_DisableIRQ                    0x08000fc0   Section        0  stm32f4xx_hal_cortex.o(i.HAL_NVIC_DisableIRQ)
    i.HAL_NVIC_EnableIRQ                     0x08000fe2   Section        0  stm32f4xx_hal_cortex.o(i.HAL_NVIC_EnableIRQ)
    i.HAL_NVIC_SetPriority                   0x08000ffc   Section        0  stm32f4xx_hal_cortex.o(i.HAL_NVIC_SetPriority)
    i.HAL_NVIC_SetPriorityGrouping           0x0800103c   Section        0  stm32f4xx_hal_cortex.o(i.HAL_NVIC_SetPriorityGrouping)
    i.HAL_RCC_ClockConfig                    0x08001060   Section        0  stm32f4xx_hal_rcc.o(i.HAL_RCC_ClockConfig)
    i.HAL_RCC_GetPCLK1Freq                   0x08001194   Section        0  stm32f4xx_hal_rcc.o(i.HAL_RCC_GetPCLK1Freq)
    i.HAL_RCC_GetPCLK2Freq                   0x080011b4   Section        0  stm32f4xx_hal_rcc.o(i.HAL_RCC_GetPCLK2Freq)
    i.HAL_RCC_GetSysClockFreq                0x080011d4   Section        0  stm32f4xx_hal_rcc.o(i.HAL_RCC_GetSysClockFreq)
    i.HAL_RCC_OscConfig                      0x08001238   Section        0  stm32f4xx_hal_rcc.o(i.HAL_RCC_OscConfig)
    i.HAL_SPI_Init                           0x080015a4   Section        0  stm32f4xx_hal_spi.o(i.HAL_SPI_Init)
    i.HAL_SPI_MspInit                        0x08001660   Section        0  stm32f4xx_hal_msp.o(i.HAL_SPI_MspInit)
    i.HAL_SPI_TransmitReceive                0x080016cc   Section        0  stm32f4xx_hal_spi.o(i.HAL_SPI_TransmitReceive)
    i.HAL_SYSTICK_Config                     0x080018ae   Section        0  stm32f4xx_hal_cortex.o(i.HAL_SYSTICK_Config)
    i.HAL_TIMEx_BreakCallback                0x080018d6   Section        0  stm32f4xx_hal_tim_ex.o(i.HAL_TIMEx_BreakCallback)
    i.HAL_TIMEx_CommutCallback               0x080018d8   Section        0  stm32f4xx_hal_tim_ex.o(i.HAL_TIMEx_CommutCallback)
    i.HAL_TIMEx_MasterConfigSynchronization  0x080018dc   Section        0  stm32f4xx_hal_tim_ex.o(i.HAL_TIMEx_MasterConfigSynchronization)
    i.HAL_TIM_Base_Init                      0x08001958   Section        0  stm32f4xx_hal_tim.o(i.HAL_TIM_Base_Init)
    i.HAL_TIM_Base_MspInit                   0x080019b4   Section        0  stm32f4xx_hal_msp.o(i.HAL_TIM_Base_MspInit)
    i.HAL_TIM_ConfigClockSource              0x08001a28   Section        0  stm32f4xx_hal_tim.o(i.HAL_TIM_ConfigClockSource)
    i.HAL_TIM_IC_CaptureCallback             0x08001b00   Section        0  main.o(i.HAL_TIM_IC_CaptureCallback)
    i.HAL_TIM_IC_ConfigChannel               0x08001b94   Section        0  stm32f4xx_hal_tim.o(i.HAL_TIM_IC_ConfigChannel)
    i.HAL_TIM_IC_Init                        0x08001ca2   Section        0  stm32f4xx_hal_tim.o(i.HAL_TIM_IC_Init)
    i.HAL_TIM_IC_MspInit                     0x08001cfc   Section        0  stm32f4xx_hal_tim.o(i.HAL_TIM_IC_MspInit)
    i.HAL_TIM_IC_Start_IT                    0x08001d00   Section        0  stm32f4xx_hal_tim.o(i.HAL_TIM_IC_Start_IT)
    i.HAL_TIM_IRQHandler                     0x08001df4   Section        0  stm32f4xx_hal_tim.o(i.HAL_TIM_IRQHandler)
    i.HAL_TIM_MspPostInit                    0x08001f5c   Section        0  stm32f4xx_hal_msp.o(i.HAL_TIM_MspPostInit)
    i.HAL_TIM_OC_DelayElapsedCallback        0x08001fac   Section        0  stm32f4xx_hal_tim.o(i.HAL_TIM_OC_DelayElapsedCallback)
    i.HAL_TIM_PWM_ConfigChannel              0x08001fae   Section        0  stm32f4xx_hal_tim.o(i.HAL_TIM_PWM_ConfigChannel)
    i.HAL_TIM_PWM_Init                       0x08002074   Section        0  stm32f4xx_hal_tim.o(i.HAL_TIM_PWM_Init)
    i.HAL_TIM_PWM_MspInit                    0x080020ce   Section        0  stm32f4xx_hal_tim.o(i.HAL_TIM_PWM_MspInit)
    i.HAL_TIM_PWM_PulseFinishedCallback      0x080020d0   Section        0  stm32f4xx_hal_tim.o(i.HAL_TIM_PWM_PulseFinishedCallback)
    i.HAL_TIM_PWM_Start                      0x080020d4   Section        0  stm32f4xx_hal_tim.o(i.HAL_TIM_PWM_Start)
    i.HAL_TIM_PeriodElapsedCallback          0x08002184   Section        0  stm32f4xx_hal_tim.o(i.HAL_TIM_PeriodElapsedCallback)
    i.HAL_TIM_TriggerCallback                0x08002186   Section        0  stm32f4xx_hal_tim.o(i.HAL_TIM_TriggerCallback)
    i.HAL_UARTEx_RxEventCallback             0x08002188   Section        0  stm32f4xx_hal_uart.o(i.HAL_UARTEx_RxEventCallback)
    i.HAL_UART_ErrorCallback                 0x0800218a   Section        0  stm32f4xx_hal_uart.o(i.HAL_UART_ErrorCallback)
    i.HAL_UART_IRQHandler                    0x0800218c   Section        0  stm32f4xx_hal_uart.o(i.HAL_UART_IRQHandler)
    i.HAL_UART_Init                          0x0800239c   Section        0  stm32f4xx_hal_uart.o(i.HAL_UART_Init)
    i.HAL_UART_MspInit                       0x08002400   Section        0  stm32f4xx_hal_msp.o(i.HAL_UART_MspInit)
    i.HAL_UART_RxCpltCallback                0x0800247c   Section        0  stm32f4xx_hal_uart.o(i.HAL_UART_RxCpltCallback)
    i.HAL_UART_TxCpltCallback                0x0800247e   Section        0  stm32f4xx_hal_uart.o(i.HAL_UART_TxCpltCallback)
    i.HardFault_Handler                      0x08002480   Section        0  stm32f4xx_it.o(i.HardFault_Handler)
    i.I2C_IsAcknowledgeFailed                0x08002482   Section        0  stm32f4xx_hal_i2c.o(i.I2C_IsAcknowledgeFailed)
    I2C_IsAcknowledgeFailed                  0x08002483   Thumb Code    46  stm32f4xx_hal_i2c.o(i.I2C_IsAcknowledgeFailed)
    i.I2C_RequestMemoryRead                  0x080024b0   Section        0  stm32f4xx_hal_i2c.o(i.I2C_RequestMemoryRead)
    I2C_RequestMemoryRead                    0x080024b1   Thumb Code   246  stm32f4xx_hal_i2c.o(i.I2C_RequestMemoryRead)
    i.I2C_RequestMemoryWrite                 0x080025ac   Section        0  stm32f4xx_hal_i2c.o(i.I2C_RequestMemoryWrite)
    I2C_RequestMemoryWrite                   0x080025ad   Thumb Code   162  stm32f4xx_hal_i2c.o(i.I2C_RequestMemoryWrite)
    i.I2C_WaitOnBTFFlagUntilTimeout          0x08002654   Section        0  stm32f4xx_hal_i2c.o(i.I2C_WaitOnBTFFlagUntilTimeout)
    I2C_WaitOnBTFFlagUntilTimeout            0x08002655   Thumb Code    76  stm32f4xx_hal_i2c.o(i.I2C_WaitOnBTFFlagUntilTimeout)
    i.I2C_WaitOnFlagUntilTimeout             0x080026a0   Section        0  stm32f4xx_hal_i2c.o(i.I2C_WaitOnFlagUntilTimeout)
    I2C_WaitOnFlagUntilTimeout               0x080026a1   Thumb Code   104  stm32f4xx_hal_i2c.o(i.I2C_WaitOnFlagUntilTimeout)
    i.I2C_WaitOnMasterAddressFlagUntilTimeout 0x08002708   Section        0  stm32f4xx_hal_i2c.o(i.I2C_WaitOnMasterAddressFlagUntilTimeout)
    I2C_WaitOnMasterAddressFlagUntilTimeout  0x08002709   Thumb Code   150  stm32f4xx_hal_i2c.o(i.I2C_WaitOnMasterAddressFlagUntilTimeout)
    i.I2C_WaitOnRXNEFlagUntilTimeout         0x0800279e   Section        0  stm32f4xx_hal_i2c.o(i.I2C_WaitOnRXNEFlagUntilTimeout)
    I2C_WaitOnRXNEFlagUntilTimeout           0x0800279f   Thumb Code   102  stm32f4xx_hal_i2c.o(i.I2C_WaitOnRXNEFlagUntilTimeout)
    i.I2C_WaitOnTXEFlagUntilTimeout          0x08002804   Section        0  stm32f4xx_hal_i2c.o(i.I2C_WaitOnTXEFlagUntilTimeout)
    I2C_WaitOnTXEFlagUntilTimeout            0x08002805   Thumb Code    76  stm32f4xx_hal_i2c.o(i.I2C_WaitOnTXEFlagUntilTimeout)
    i.MX_GPIO_Init                           0x08002850   Section        0  main.o(i.MX_GPIO_Init)
    MX_GPIO_Init                             0x08002851   Thumb Code   226  main.o(i.MX_GPIO_Init)
    i.MX_SPI2_Init                           0x08002948   Section        0  main.o(i.MX_SPI2_Init)
    MX_SPI2_Init                             0x08002949   Thumb Code    58  main.o(i.MX_SPI2_Init)
    i.MX_TIM2_Init                           0x0800298c   Section        0  main.o(i.MX_TIM2_Init)
    MX_TIM2_Init                             0x0800298d   Thumb Code   198  main.o(i.MX_TIM2_Init)
    i.MemManage_Handler                      0x08002a58   Section        0  stm32f4xx_it.o(i.MemManage_Handler)
    i.NMI_Handler                            0x08002a5a   Section        0  stm32f4xx_it.o(i.NMI_Handler)
    i.NRF24L01_Check                         0x08002a5c   Section        0  nrf24l01.o(i.NRF24L01_Check)
    i.NRF24L01_Read_Buf                      0x08002aa4   Section        0  nrf24l01.o(i.NRF24L01_Read_Buf)
    i.NRF24L01_Read_Reg                      0x08002af0   Section        0  nrf24l01.o(i.NRF24L01_Read_Reg)
    i.NRF24L01_RxPacket                      0x08002b24   Section        0  nrf24l01.o(i.NRF24L01_RxPacket)
    i.NRF24L01_TxPacket                      0x08002b64   Section        0  nrf24l01.o(i.NRF24L01_TxPacket)
    i.NRF24L01_Write_Buf                     0x08002be0   Section        0  nrf24l01.o(i.NRF24L01_Write_Buf)
    i.NRF24L01_Write_Reg                     0x08002c2c   Section        0  nrf24l01.o(i.NRF24L01_Write_Reg)
    i.PendSV_Handler                         0x08002c68   Section        0  stm32f4xx_it.o(i.PendSV_Handler)
    i.RX_Mode                                0x08002c6c   Section        0  nrf24l01.o(i.RX_Mode)
    i.SPI_EndRxTxTransaction                 0x08002ce8   Section        0  stm32f4xx_hal_spi.o(i.SPI_EndRxTxTransaction)
    SPI_EndRxTxTransaction                   0x08002ce9   Thumb Code    80  stm32f4xx_hal_spi.o(i.SPI_EndRxTxTransaction)
    i.SPI_WaitFlagStateUntilTimeout          0x08002d40   Section        0  stm32f4xx_hal_spi.o(i.SPI_WaitFlagStateUntilTimeout)
    SPI_WaitFlagStateUntilTimeout            0x08002d41   Thumb Code   180  stm32f4xx_hal_spi.o(i.SPI_WaitFlagStateUntilTimeout)
    i.SPIx_ReadWriteByte                     0x08002df8   Section        0  nrf24l01.o(i.SPIx_ReadWriteByte)
    i.SVC_Handler                            0x08002e18   Section        0  stm32f4xx_it.o(i.SVC_Handler)
    i.SysTick_Handler                        0x08002e1c   Section        0  stm32f4xx_it.o(i.SysTick_Handler)
    i.SystemClock_Config                     0x08002e70   Section        0  main.o(i.SystemClock_Config)
    i.SystemInit                             0x08002f04   Section        0  system_stm32f4xx.o(i.SystemInit)
    i.TIM2_IRQHandler                        0x08002f14   Section        0  stm32f4xx_it.o(i.TIM2_IRQHandler)
    i.TIM_Base_SetConfig                     0x08002f20   Section        0  stm32f4xx_hal_tim.o(i.TIM_Base_SetConfig)
    i.TIM_CCxChannelCmd                      0x08002fb8   Section        0  stm32f4xx_hal_tim.o(i.TIM_CCxChannelCmd)
    i.TIM_ETR_SetConfig                      0x08002fd2   Section        0  stm32f4xx_hal_tim.o(i.TIM_ETR_SetConfig)
    i.TIM_ITRx_SetConfig                     0x08002fe6   Section        0  stm32f4xx_hal_tim.o(i.TIM_ITRx_SetConfig)
    TIM_ITRx_SetConfig                       0x08002fe7   Thumb Code    16  stm32f4xx_hal_tim.o(i.TIM_ITRx_SetConfig)
    i.TIM_OC1_SetConfig                      0x08002ff8   Section        0  stm32f4xx_hal_tim.o(i.TIM_OC1_SetConfig)
    TIM_OC1_SetConfig                        0x08002ff9   Thumb Code    74  stm32f4xx_hal_tim.o(i.TIM_OC1_SetConfig)
    i.TIM_OC2_SetConfig                      0x08003048   Section        0  stm32f4xx_hal_tim.o(i.TIM_OC2_SetConfig)
    i.TIM_OC3_SetConfig                      0x080030a0   Section        0  stm32f4xx_hal_tim.o(i.TIM_OC3_SetConfig)
    TIM_OC3_SetConfig                        0x080030a1   Thumb Code    82  stm32f4xx_hal_tim.o(i.TIM_OC3_SetConfig)
    i.TIM_OC4_SetConfig                      0x080030f8   Section        0  stm32f4xx_hal_tim.o(i.TIM_OC4_SetConfig)
    TIM_OC4_SetConfig                        0x080030f9   Thumb Code    64  stm32f4xx_hal_tim.o(i.TIM_OC4_SetConfig)
    i.TIM_TI1_ConfigInputStage               0x0800313c   Section        0  stm32f4xx_hal_tim.o(i.TIM_TI1_ConfigInputStage)
    TIM_TI1_ConfigInputStage                 0x0800313d   Thumb Code    34  stm32f4xx_hal_tim.o(i.TIM_TI1_ConfigInputStage)
    i.TIM_TI1_SetConfig                      0x08003160   Section        0  stm32f4xx_hal_tim.o(i.TIM_TI1_SetConfig)
    i.TIM_TI2_ConfigInputStage               0x080031cc   Section        0  stm32f4xx_hal_tim.o(i.TIM_TI2_ConfigInputStage)
    TIM_TI2_ConfigInputStage                 0x080031cd   Thumb Code    36  stm32f4xx_hal_tim.o(i.TIM_TI2_ConfigInputStage)
    i.TIM_TI2_SetConfig                      0x080031f0   Section        0  stm32f4xx_hal_tim.o(i.TIM_TI2_SetConfig)
    TIM_TI2_SetConfig                        0x080031f1   Thumb Code    54  stm32f4xx_hal_tim.o(i.TIM_TI2_SetConfig)
    i.TX_Mode                                0x08003228   Section        0  nrf24l01.o(i.TX_Mode)
    i.UART_DMAAbortOnError                   0x080032b0   Section        0  stm32f4xx_hal_uart.o(i.UART_DMAAbortOnError)
    UART_DMAAbortOnError                     0x080032b1   Thumb Code    16  stm32f4xx_hal_uart.o(i.UART_DMAAbortOnError)
    i.UART_EndRxTransfer                     0x080032c0   Section        0  stm32f4xx_hal_uart.o(i.UART_EndRxTransfer)
    UART_EndRxTransfer                       0x080032c1   Thumb Code    48  stm32f4xx_hal_uart.o(i.UART_EndRxTransfer)
    i.UART_Receive_IT                        0x080032f0   Section        0  stm32f4xx_hal_uart.o(i.UART_Receive_IT)
    UART_Receive_IT                          0x080032f1   Thumb Code   174  stm32f4xx_hal_uart.o(i.UART_Receive_IT)
    i.UART_SetConfig                         0x080033a0   Section        0  stm32f4xx_hal_uart.o(i.UART_SetConfig)
    UART_SetConfig                           0x080033a1   Thumb Code   258  stm32f4xx_hal_uart.o(i.UART_SetConfig)
    i.USART6_IRQHandler                      0x080034ac   Section        0  stm32f4xx_it.o(i.USART6_IRQHandler)
    i.UsageFault_Handler                     0x08003508   Section        0  stm32f4xx_it.o(i.UsageFault_Handler)
    i.__NVIC_SetPriority                     0x0800350a   Section        0  stm32f4xx_hal_cortex.o(i.__NVIC_SetPriority)
    __NVIC_SetPriority                       0x0800350b   Thumb Code    32  stm32f4xx_hal_cortex.o(i.__NVIC_SetPriority)
    i.__scatterload_copy                     0x0800352a   Section       14  handlers.o(i.__scatterload_copy)
    i.__scatterload_null                     0x08003538   Section        2  handlers.o(i.__scatterload_null)
    i.__scatterload_zeroinit                 0x0800353a   Section       14  handlers.o(i.__scatterload_zeroinit)
    i.main                                   0x08003548   Section        0  main.o(i.main)
    i.send_char                              0x08003720   Section        0  uart.o(i.send_char)
    i.send_char_array                        0x0800372c   Section        0  uart.o(i.send_char_array)
    i.send_float                             0x0800374c   Section        0  uart.o(i.send_float)
    i.send_int                               0x080037c2   Section        0  uart.o(i.send_int)
    i.send_str                               0x0800381a   Section        0  uart.o(i.send_str)
    i.spl0601_get_calib_param                0x08003834   Section        0  spl06_001.o(i.spl0601_get_calib_param)
    i.spl0601_get_pressure                   0x0800396c   Section        0  spl06_001.o(i.spl0601_get_pressure)
    i.spl0601_get_raw_pressure               0x08003a0c   Section        0  spl06_001.o(i.spl0601_get_raw_pressure)
    i.spl0601_get_raw_temp                   0x08003a48   Section        0  spl06_001.o(i.spl0601_get_raw_temp)
    i.spl0601_get_temperature                0x08003a84   Section        0  spl06_001.o(i.spl0601_get_temperature)
    i.spl0601_init                           0x08003af8   Section        0  spl06_001.o(i.spl0601_init)
    i.spl0601_read                           0x08003b68   Section        0  spl06_001.o(i.spl0601_read)
    i.spl0601_write                          0x08003b8c   Section        0  spl06_001.o(i.spl0601_write)
    i.spl06_get_chip_id                      0x08003bac   Section        0  spl06_001.o(i.spl06_get_chip_id)
    i.spl06_get_measure_status               0x08003bb4   Section        0  spl06_001.o(i.spl06_get_measure_status)
    i.spl06_pressure_rate_config             0x08003bbc   Section        0  spl06_001.o(i.spl06_pressure_rate_config)
    i.spl06_set_measure_mode                 0x08003c34   Section        0  spl06_001.o(i.spl06_set_measure_mode)
    i.spl06_temperature_rate_config          0x08003c40   Section        0  spl06_001.o(i.spl06_temperature_rate_config)
    i.user_spl0601_get_presure               0x08003cbc   Section        0  spl06_001.o(i.user_spl0601_get_presure)
    i.user_spl0601_get_temperature           0x08003cca   Section        0  spl06_001.o(i.user_spl0601_get_temperature)
    .constdata                               0x08003cd8   Section       16  system_stm32f4xx.o(.constdata)
    .constdata                               0x08003ce8   Section        8  system_stm32f4xx.o(.constdata)
    .constdata                               0x08003cf0   Section       10  nrf24l01.o(.constdata)
    .data                                    0x20000000   Section       16  main.o(.data)
    .data                                    0x20000010   Section        4  stm32f4xx_it.o(.data)
    .data                                    0x20000014   Section       12  stm32f4xx_hal.o(.data)
    .data                                    0x20000020   Section        4  system_stm32f4xx.o(.data)
    .bss                                     0x20000024   Section      345  main.o(.bss)
    .bss                                     0x20000180   Section       44  spl06_001.o(.bss)
    spl06_calib_param                        0x20000180   Data          24  spl06_001.o(.bss)
    STACK                                    0x200001b0   Section     1024  startup_stm32f401xc.o(STACK)

    Global Symbols

    Symbol Name                              Value     Ov Type        Size  Object(Section)

    BuildAttributes$$THM_ISAv4$E$P$D$K$B$S$7EM$VFPi3$EXTD16$VFPS$VFMA$PE$A:L22UL41UL21$X:L11$S22US41US21$IEEE1$IW$USESV6$~STKCKD$USESV7$~SHL$OTIME$ROPI$EBA8$MICROLIB$REQ8$PRES8$EABIv2 0x00000000   Number         0  anon$$obj.o ABSOLUTE
    __ARM_use_no_argv                        0x00000000   Number         0  main.o ABSOLUTE
    __arm_fini_                               - Undefined Weak Reference
    __cpp_initialize__aeabi_                  - Undefined Weak Reference
    __cxa_finalize                            - Undefined Weak Reference
    __decompress                              - Undefined Weak Reference
    _clock_init                               - Undefined Weak Reference
    _microlib_exit                            - Undefined Weak Reference
    __Vectors_Size                           0x00000194   Number         0  startup_stm32f401xc.o ABSOLUTE
    __Vectors                                0x08000000   Data           4  startup_stm32f401xc.o(RESET)
    __Vectors_End                            0x08000194   Data           0  startup_stm32f401xc.o(RESET)
    __main                                   0x08000195   Thumb Code     0  entry.o(.ARM.Collect$$$$00000000)
    _main_stk                                0x08000195   Thumb Code     0  entry2.o(.ARM.Collect$$$$00000001)
    _main_scatterload                        0x08000199   Thumb Code     0  entry5.o(.ARM.Collect$$$$00000004)
    __main_after_scatterload                 0x0800019d   Thumb Code     0  entry5.o(.ARM.Collect$$$$00000004)
    _main_clock                              0x0800019d   Thumb Code     0  entry7b.o(.ARM.Collect$$$$00000008)
    _main_cpp_init                           0x0800019d   Thumb Code     0  entry8b.o(.ARM.Collect$$$$0000000A)
    _main_init                               0x0800019d   Thumb Code     0  entry9a.o(.ARM.Collect$$$$0000000B)
    __rt_lib_shutdown_fini                   0x080001a5   Thumb Code     0  entry12b.o(.ARM.Collect$$$$0000000E)
    __rt_final_cpp                           0x080001a9   Thumb Code     0  entry10a.o(.ARM.Collect$$$$0000000F)
    __rt_final_exit                          0x080001a9   Thumb Code     0  entry11a.o(.ARM.Collect$$$$00000011)
    Reset_Handler                            0x080001ad   Thumb Code     8  startup_stm32f401xc.o(.text)
    ADC_IRQHandler                           0x080001c7   Thumb Code     0  startup_stm32f401xc.o(.text)
    DMA1_Stream0_IRQHandler                  0x080001c7   Thumb Code     0  startup_stm32f401xc.o(.text)
    DMA1_Stream1_IRQHandler                  0x080001c7   Thumb Code     0  startup_stm32f401xc.o(.text)
    DMA1_Stream2_IRQHandler                  0x080001c7   Thumb Code     0  startup_stm32f401xc.o(.text)
    DMA1_Stream3_IRQHandler                  0x080001c7   Thumb Code     0  startup_stm32f401xc.o(.text)
    DMA1_Stream4_IRQHandler                  0x080001c7   Thumb Code     0  startup_stm32f401xc.o(.text)
    DMA1_Stream5_IRQHandler                  0x080001c7   Thumb Code     0  startup_stm32f401xc.o(.text)
    DMA1_Stream6_IRQHandler                  0x080001c7   Thumb Code     0  startup_stm32f401xc.o(.text)
    DMA1_Stream7_IRQHandler                  0x080001c7   Thumb Code     0  startup_stm32f401xc.o(.text)
    DMA2_Stream0_IRQHandler                  0x080001c7   Thumb Code     0  startup_stm32f401xc.o(.text)
    DMA2_Stream1_IRQHandler                  0x080001c7   Thumb Code     0  startup_stm32f401xc.o(.text)
    DMA2_Stream2_IRQHandler                  0x080001c7   Thumb Code     0  startup_stm32f401xc.o(.text)
    DMA2_Stream3_IRQHandler                  0x080001c7   Thumb Code     0  startup_stm32f401xc.o(.text)
    DMA2_Stream4_IRQHandler                  0x080001c7   Thumb Code     0  startup_stm32f401xc.o(.text)
    DMA2_Stream5_IRQHandler                  0x080001c7   Thumb Code     0  startup_stm32f401xc.o(.text)
    DMA2_Stream6_IRQHandler                  0x080001c7   Thumb Code     0  startup_stm32f401xc.o(.text)
    DMA2_Stream7_IRQHandler                  0x080001c7   Thumb Code     0  startup_stm32f401xc.o(.text)
    EXTI0_IRQHandler                         0x080001c7   Thumb Code     0  startup_stm32f401xc.o(.text)
    EXTI15_10_IRQHandler                     0x080001c7   Thumb Code     0  startup_stm32f401xc.o(.text)
    EXTI1_IRQHandler                         0x080001c7   Thumb Code     0  startup_stm32f401xc.o(.text)
    EXTI2_IRQHandler                         0x080001c7   Thumb Code     0  startup_stm32f401xc.o(.text)
    EXTI3_IRQHandler                         0x080001c7   Thumb Code     0  startup_stm32f401xc.o(.text)
    EXTI4_IRQHandler                         0x080001c7   Thumb Code     0  startup_stm32f401xc.o(.text)
    FLASH_IRQHandler                         0x080001c7   Thumb Code     0  startup_stm32f401xc.o(.text)
    FPU_IRQHandler                           0x080001c7   Thumb Code     0  startup_stm32f401xc.o(.text)
    I2C1_ER_IRQHandler                       0x080001c7   Thumb Code     0  startup_stm32f401xc.o(.text)
    I2C1_EV_IRQHandler                       0x080001c7   Thumb Code     0  startup_stm32f401xc.o(.text)
    I2C2_ER_IRQHandler                       0x080001c7   Thumb Code     0  startup_stm32f401xc.o(.text)
    I2C2_EV_IRQHandler                       0x080001c7   Thumb Code     0  startup_stm32f401xc.o(.text)
    I2C3_ER_IRQHandler                       0x080001c7   Thumb Code     0  startup_stm32f401xc.o(.text)
    I2C3_EV_IRQHandler                       0x080001c7   Thumb Code     0  startup_stm32f401xc.o(.text)
    OTG_FS_IRQHandler                        0x080001c7   Thumb Code     0  startup_stm32f401xc.o(.text)
    OTG_FS_WKUP_IRQHandler                   0x080001c7   Thumb Code     0  startup_stm32f401xc.o(.text)
    PVD_IRQHandler                           0x080001c7   Thumb Code     0  startup_stm32f401xc.o(.text)
    RCC_IRQHandler                           0x080001c7   Thumb Code     0  startup_stm32f401xc.o(.text)
    RTC_Alarm_IRQHandler                     0x080001c7   Thumb Code     0  startup_stm32f401xc.o(.text)
    RTC_WKUP_IRQHandler                      0x080001c7   Thumb Code     0  startup_stm32f401xc.o(.text)
    SDIO_IRQHandler                          0x080001c7   Thumb Code     0  startup_stm32f401xc.o(.text)
    SPI1_IRQHandler                          0x080001c7   Thumb Code     0  startup_stm32f401xc.o(.text)
    SPI2_IRQHandler                          0x080001c7   Thumb Code     0  startup_stm32f401xc.o(.text)
    SPI3_IRQHandler                          0x080001c7   Thumb Code     0  startup_stm32f401xc.o(.text)
    SPI4_IRQHandler                          0x080001c7   Thumb Code     0  startup_stm32f401xc.o(.text)
    TAMP_STAMP_IRQHandler                    0x080001c7   Thumb Code     0  startup_stm32f401xc.o(.text)
    TIM1_BRK_TIM9_IRQHandler                 0x080001c7   Thumb Code     0  startup_stm32f401xc.o(.text)
    TIM1_CC_IRQHandler                       0x080001c7   Thumb Code     0  startup_stm32f401xc.o(.text)
    TIM1_TRG_COM_TIM11_IRQHandler            0x080001c7   Thumb Code     0  startup_stm32f401xc.o(.text)
    TIM1_UP_TIM10_IRQHandler                 0x080001c7   Thumb Code     0  startup_stm32f401xc.o(.text)
    TIM3_IRQHandler                          0x080001c7   Thumb Code     0  startup_stm32f401xc.o(.text)
    TIM4_IRQHandler                          0x080001c7   Thumb Code     0  startup_stm32f401xc.o(.text)
    TIM5_IRQHandler                          0x080001c7   Thumb Code     0  startup_stm32f401xc.o(.text)
    USART1_IRQHandler                        0x080001c7   Thumb Code     0  startup_stm32f401xc.o(.text)
    USART2_IRQHandler                        0x080001c7   Thumb Code     0  startup_stm32f401xc.o(.text)
    WWDG_IRQHandler                          0x080001c7   Thumb Code     0  startup_stm32f401xc.o(.text)
    __aeabi_uldivmod                         0x080001d1   Thumb Code    98  uldiv.o(.text)
    __aeabi_memset                           0x08000233   Thumb Code    14  memseta.o(.text)
    __aeabi_memset4                          0x08000233   Thumb Code     0  memseta.o(.text)
    __aeabi_memset8                          0x08000233   Thumb Code     0  memseta.o(.text)
    __aeabi_memclr                           0x08000241   Thumb Code     4  memseta.o(.text)
    __aeabi_memclr4                          0x08000241   Thumb Code     0  memseta.o(.text)
    __aeabi_memclr8                          0x08000241   Thumb Code     0  memseta.o(.text)
    _memset$wrapper                          0x08000245   Thumb Code    18  memseta.o(.text)
    __aeabi_dadd                             0x08000257   Thumb Code   322  dadd.o(.text)
    __aeabi_dsub                             0x08000399   Thumb Code     6  dadd.o(.text)
    __aeabi_drsub                            0x0800039f   Thumb Code     6  dadd.o(.text)
    __aeabi_dmul                             0x080003a5   Thumb Code   228  dmul.o(.text)
    __aeabi_i2d                              0x08000489   Thumb Code    34  dflti.o(.text)
    __aeabi_f2d                              0x080004ab   Thumb Code    38  f2d.o(.text)
    __aeabi_d2f                              0x080004d1   Thumb Code    56  d2f.o(.text)
    __aeabi_llsl                             0x08000509   Thumb Code    30  llshl.o(.text)
    _ll_shift_l                              0x08000509   Thumb Code     0  llshl.o(.text)
    __aeabi_llsr                             0x08000527   Thumb Code    32  llushr.o(.text)
    _ll_ushift_r                             0x08000527   Thumb Code     0  llushr.o(.text)
    __aeabi_lasr                             0x08000547   Thumb Code    36  llsshr.o(.text)
    _ll_sshift_r                             0x08000547   Thumb Code     0  llsshr.o(.text)
    __I$use$fp                               0x0800056b   Thumb Code     0  iusefp.o(.text)
    _float_round                             0x0800056b   Thumb Code    18  fepilogue.o(.text)
    _float_epilogue                          0x0800057d   Thumb Code    92  fepilogue.o(.text)
    _double_round                            0x080005d9   Thumb Code    30  depilogue.o(.text)
    _double_epilogue                         0x080005f7   Thumb Code   156  depilogue.o(.text)
    __scatterload                            0x08000695   Thumb Code    28  init.o(.text)
    __scatterload_rt2                        0x08000695   Thumb Code     0  init.o(.text)
    BusFault_Handler                         0x080006b9   Thumb Code     2  stm32f4xx_it.o(i.BusFault_Handler)
    DebugMon_Handler                         0x080006bb   Thumb Code     2  stm32f4xx_it.o(i.DebugMon_Handler)
    EXTI9_5_IRQHandler                       0x080006bd   Thumb Code     8  stm32f4xx_it.o(i.EXTI9_5_IRQHandler)
    HAL_DMA_Abort                            0x080006c5   Thumb Code   142  stm32f4xx_hal_dma.o(i.HAL_DMA_Abort)
    HAL_DMA_Abort_IT                         0x08000753   Thumb Code    36  stm32f4xx_hal_dma.o(i.HAL_DMA_Abort_IT)
    HAL_Delay                                0x08000779   Thumb Code    32  stm32f4xx_hal.o(i.HAL_Delay)
    HAL_GPIO_EXTI_Callback                   0x0800079d   Thumb Code    50  main.o(i.HAL_GPIO_EXTI_Callback)
    HAL_GPIO_EXTI_IRQHandler                 0x080007d9   Thumb Code    18  stm32f4xx_hal_gpio.o(i.HAL_GPIO_EXTI_IRQHandler)
    HAL_GPIO_Init                            0x080007f1   Thumb Code   444  stm32f4xx_hal_gpio.o(i.HAL_GPIO_Init)
    HAL_GPIO_TogglePin                       0x080009cd   Thumb Code    16  stm32f4xx_hal_gpio.o(i.HAL_GPIO_TogglePin)
    HAL_GPIO_WritePin                        0x080009dd   Thumb Code    10  stm32f4xx_hal_gpio.o(i.HAL_GPIO_WritePin)
    HAL_GetTick                              0x080009e9   Thumb Code     6  stm32f4xx_hal.o(i.HAL_GetTick)
    HAL_I2C_Init                             0x080009f5   Thumb Code   376  stm32f4xx_hal_i2c.o(i.HAL_I2C_Init)
    HAL_I2C_Mem_Read                         0x08000b7d   Thumb Code   490  stm32f4xx_hal_i2c.o(i.HAL_I2C_Mem_Read)
    HAL_I2C_Mem_Write                        0x08000d75   Thumb Code   294  stm32f4xx_hal_i2c.o(i.HAL_I2C_Mem_Write)
    HAL_I2C_MspInit                          0x08000ea5   Thumb Code    92  stm32f4xx_hal_msp.o(i.HAL_I2C_MspInit)
    HAL_IncTick                              0x08000f0d   Thumb Code    12  stm32f4xx_hal.o(i.HAL_IncTick)
    HAL_Init                                 0x08000f1d   Thumb Code    48  stm32f4xx_hal.o(i.HAL_Init)
    HAL_InitTick                             0x08000f51   Thumb Code    54  stm32f4xx_hal.o(i.HAL_InitTick)
    HAL_MspInit                              0x08000f91   Thumb Code    42  stm32f4xx_hal_msp.o(i.HAL_MspInit)
    HAL_NVIC_DisableIRQ                      0x08000fc1   Thumb Code    34  stm32f4xx_hal_cortex.o(i.HAL_NVIC_DisableIRQ)
    HAL_NVIC_EnableIRQ                       0x08000fe3   Thumb Code    26  stm32f4xx_hal_cortex.o(i.HAL_NVIC_EnableIRQ)
    HAL_NVIC_SetPriority                     0x08000ffd   Thumb Code    60  stm32f4xx_hal_cortex.o(i.HAL_NVIC_SetPriority)
    HAL_NVIC_SetPriorityGrouping             0x0800103d   Thumb Code    26  stm32f4xx_hal_cortex.o(i.HAL_NVIC_SetPriorityGrouping)
    HAL_RCC_ClockConfig                      0x08001061   Thumb Code   288  stm32f4xx_hal_rcc.o(i.HAL_RCC_ClockConfig)
    HAL_RCC_GetPCLK1Freq                     0x08001195   Thumb Code    20  stm32f4xx_hal_rcc.o(i.HAL_RCC_GetPCLK1Freq)
    HAL_RCC_GetPCLK2Freq                     0x080011b5   Thumb Code    20  stm32f4xx_hal_rcc.o(i.HAL_RCC_GetPCLK2Freq)
    HAL_RCC_GetSysClockFreq                  0x080011d5   Thumb Code    88  stm32f4xx_hal_rcc.o(i.HAL_RCC_GetSysClockFreq)
    HAL_RCC_OscConfig                        0x08001239   Thumb Code   856  stm32f4xx_hal_rcc.o(i.HAL_RCC_OscConfig)
    HAL_SPI_Init                             0x080015a5   Thumb Code   188  stm32f4xx_hal_spi.o(i.HAL_SPI_Init)
    HAL_SPI_MspInit                          0x08001661   Thumb Code    94  stm32f4xx_hal_msp.o(i.HAL_SPI_MspInit)
    HAL_SPI_TransmitReceive                  0x080016cd   Thumb Code   482  stm32f4xx_hal_spi.o(i.HAL_SPI_TransmitReceive)
    HAL_SYSTICK_Config                       0x080018af   Thumb Code    40  stm32f4xx_hal_cortex.o(i.HAL_SYSTICK_Config)
    HAL_TIMEx_BreakCallback                  0x080018d7   Thumb Code     2  stm32f4xx_hal_tim_ex.o(i.HAL_TIMEx_BreakCallback)
    HAL_TIMEx_CommutCallback                 0x080018d9   Thumb Code     2  stm32f4xx_hal_tim_ex.o(i.HAL_TIMEx_CommutCallback)
    HAL_TIMEx_MasterConfigSynchronization    0x080018dd   Thumb Code   104  stm32f4xx_hal_tim_ex.o(i.HAL_TIMEx_MasterConfigSynchronization)
    HAL_TIM_Base_Init                        0x08001959   Thumb Code    90  stm32f4xx_hal_tim.o(i.HAL_TIM_Base_Init)
    HAL_TIM_Base_MspInit                     0x080019b5   Thumb Code   106  stm32f4xx_hal_msp.o(i.HAL_TIM_Base_MspInit)
    HAL_TIM_ConfigClockSource                0x08001a29   Thumb Code   214  stm32f4xx_hal_tim.o(i.HAL_TIM_ConfigClockSource)
    HAL_TIM_IC_CaptureCallback               0x08001b01   Thumb Code   126  main.o(i.HAL_TIM_IC_CaptureCallback)
    HAL_TIM_IC_ConfigChannel                 0x08001b95   Thumb Code   270  stm32f4xx_hal_tim.o(i.HAL_TIM_IC_ConfigChannel)
    HAL_TIM_IC_Init                          0x08001ca3   Thumb Code    90  stm32f4xx_hal_tim.o(i.HAL_TIM_IC_Init)
    HAL_TIM_IC_MspInit                       0x08001cfd   Thumb Code     2  stm32f4xx_hal_tim.o(i.HAL_TIM_IC_MspInit)
    HAL_TIM_IC_Start_IT                      0x08001d01   Thumb Code   224  stm32f4xx_hal_tim.o(i.HAL_TIM_IC_Start_IT)
    HAL_TIM_IRQHandler                       0x08001df5   Thumb Code   358  stm32f4xx_hal_tim.o(i.HAL_TIM_IRQHandler)
    HAL_TIM_MspPostInit                      0x08001f5d   Thumb Code    72  stm32f4xx_hal_msp.o(i.HAL_TIM_MspPostInit)
    HAL_TIM_OC_DelayElapsedCallback          0x08001fad   Thumb Code     2  stm32f4xx_hal_tim.o(i.HAL_TIM_OC_DelayElapsedCallback)
    HAL_TIM_PWM_ConfigChannel                0x08001faf   Thumb Code   198  stm32f4xx_hal_tim.o(i.HAL_TIM_PWM_ConfigChannel)
    HAL_TIM_PWM_Init                         0x08002075   Thumb Code    90  stm32f4xx_hal_tim.o(i.HAL_TIM_PWM_Init)
    HAL_TIM_PWM_MspInit                      0x080020cf   Thumb Code     2  stm32f4xx_hal_tim.o(i.HAL_TIM_PWM_MspInit)
    HAL_TIM_PWM_PulseFinishedCallback        0x080020d1   Thumb Code     2  stm32f4xx_hal_tim.o(i.HAL_TIM_PWM_PulseFinishedCallback)
    HAL_TIM_PWM_Start                        0x080020d5   Thumb Code   156  stm32f4xx_hal_tim.o(i.HAL_TIM_PWM_Start)
    HAL_TIM_PeriodElapsedCallback            0x08002185   Thumb Code     2  stm32f4xx_hal_tim.o(i.HAL_TIM_PeriodElapsedCallback)
    HAL_TIM_TriggerCallback                  0x08002187   Thumb Code     2  stm32f4xx_hal_tim.o(i.HAL_TIM_TriggerCallback)
    HAL_UARTEx_RxEventCallback               0x08002189   Thumb Code     2  stm32f4xx_hal_uart.o(i.HAL_UARTEx_RxEventCallback)
    HAL_UART_ErrorCallback                   0x0800218b   Thumb Code     2  stm32f4xx_hal_uart.o(i.HAL_UART_ErrorCallback)
    HAL_UART_IRQHandler                      0x0800218d   Thumb Code   522  stm32f4xx_hal_uart.o(i.HAL_UART_IRQHandler)
    HAL_UART_Init                            0x0800239d   Thumb Code    98  stm32f4xx_hal_uart.o(i.HAL_UART_Init)
    HAL_UART_MspInit                         0x08002401   Thumb Code   110  stm32f4xx_hal_msp.o(i.HAL_UART_MspInit)
    HAL_UART_RxCpltCallback                  0x0800247d   Thumb Code     2  stm32f4xx_hal_uart.o(i.HAL_UART_RxCpltCallback)
    HAL_UART_TxCpltCallback                  0x0800247f   Thumb Code     2  stm32f4xx_hal_uart.o(i.HAL_UART_TxCpltCallback)
    HardFault_Handler                        0x08002481   Thumb Code     2  stm32f4xx_it.o(i.HardFault_Handler)
    MemManage_Handler                        0x08002a59   Thumb Code     2  stm32f4xx_it.o(i.MemManage_Handler)
    NMI_Handler                              0x08002a5b   Thumb Code     2  stm32f4xx_it.o(i.NMI_Handler)
    NRF24L01_Check                           0x08002a5d   Thumb Code    64  nrf24l01.o(i.NRF24L01_Check)
    NRF24L01_Read_Buf                        0x08002aa5   Thumb Code    72  nrf24l01.o(i.NRF24L01_Read_Buf)
    NRF24L01_Read_Reg                        0x08002af1   Thumb Code    48  nrf24l01.o(i.NRF24L01_Read_Reg)
    NRF24L01_RxPacket                        0x08002b25   Thumb Code    64  nrf24l01.o(i.NRF24L01_RxPacket)
    NRF24L01_TxPacket                        0x08002b65   Thumb Code   118  nrf24l01.o(i.NRF24L01_TxPacket)
    NRF24L01_Write_Buf                       0x08002be1   Thumb Code    72  nrf24l01.o(i.NRF24L01_Write_Buf)
    NRF24L01_Write_Reg                       0x08002c2d   Thumb Code    54  nrf24l01.o(i.NRF24L01_Write_Reg)
    PendSV_Handler                           0x08002c69   Thumb Code     2  stm32f4xx_it.o(i.PendSV_Handler)
    RX_Mode                                  0x08002c6d   Thumb Code   114  nrf24l01.o(i.RX_Mode)
    SPIx_ReadWriteByte                       0x08002df9   Thumb Code    26  nrf24l01.o(i.SPIx_ReadWriteByte)
    SVC_Handler                              0x08002e19   Thumb Code     2  stm32f4xx_it.o(i.SVC_Handler)
    SysTick_Handler                          0x08002e1d   Thumb Code    70  stm32f4xx_it.o(i.SysTick_Handler)
    SystemClock_Config                       0x08002e71   Thumb Code   140  main.o(i.SystemClock_Config)
    SystemInit                               0x08002f05   Thumb Code    12  system_stm32f4xx.o(i.SystemInit)
    TIM2_IRQHandler                          0x08002f15   Thumb Code     6  stm32f4xx_it.o(i.TIM2_IRQHandler)
    TIM_Base_SetConfig                       0x08002f21   Thumb Code   122  stm32f4xx_hal_tim.o(i.TIM_Base_SetConfig)
    TIM_CCxChannelCmd                        0x08002fb9   Thumb Code    26  stm32f4xx_hal_tim.o(i.TIM_CCxChannelCmd)
    TIM_ETR_SetConfig                        0x08002fd3   Thumb Code    20  stm32f4xx_hal_tim.o(i.TIM_ETR_SetConfig)
    TIM_OC2_SetConfig                        0x08003049   Thumb Code    84  stm32f4xx_hal_tim.o(i.TIM_OC2_SetConfig)
    TIM_TI1_SetConfig                        0x08003161   Thumb Code    88  stm32f4xx_hal_tim.o(i.TIM_TI1_SetConfig)
    TX_Mode                                  0x08003229   Thumb Code   126  nrf24l01.o(i.TX_Mode)
    USART6_IRQHandler                        0x080034ad   Thumb Code    68  stm32f4xx_it.o(i.USART6_IRQHandler)
    UsageFault_Handler                       0x08003509   Thumb Code     2  stm32f4xx_it.o(i.UsageFault_Handler)
    __scatterload_copy                       0x0800352b   Thumb Code    14  handlers.o(i.__scatterload_copy)
    __scatterload_null                       0x08003539   Thumb Code     2  handlers.o(i.__scatterload_null)
    __scatterload_zeroinit                   0x0800353b   Thumb Code    14  handlers.o(i.__scatterload_zeroinit)
    main                                     0x08003549   Thumb Code   400  main.o(i.main)
    send_char                                0x08003721   Thumb Code    12  uart.o(i.send_char)
    send_char_array                          0x0800372d   Thumb Code    30  uart.o(i.send_char_array)
    send_float                               0x0800374d   Thumb Code   118  uart.o(i.send_float)
    send_int                                 0x080037c3   Thumb Code    88  uart.o(i.send_int)
    send_str                                 0x0800381b   Thumb Code    24  uart.o(i.send_str)
    spl0601_get_calib_param                  0x08003835   Thumb Code   302  spl06_001.o(i.spl0601_get_calib_param)
    spl0601_get_pressure                     0x0800396d   Thumb Code   154  spl06_001.o(i.spl0601_get_pressure)
    spl0601_get_raw_pressure                 0x08003a0d   Thumb Code    56  spl06_001.o(i.spl0601_get_raw_pressure)
    spl0601_get_raw_temp                     0x08003a49   Thumb Code    56  spl06_001.o(i.spl0601_get_raw_temp)
    spl0601_get_temperature                  0x08003a85   Thumb Code   102  spl06_001.o(i.spl0601_get_temperature)
    spl0601_init                             0x08003af9   Thumb Code   108  spl06_001.o(i.spl0601_init)
    spl0601_read                             0x08003b69   Thumb Code    30  spl06_001.o(i.spl0601_read)
    spl0601_write                            0x08003b8d   Thumb Code    28  spl06_001.o(i.spl0601_write)
    spl06_get_chip_id                        0x08003bad   Thumb Code     8  spl06_001.o(i.spl06_get_chip_id)
    spl06_get_measure_status                 0x08003bb5   Thumb Code     8  spl06_001.o(i.spl06_get_measure_status)
    spl06_pressure_rate_config               0x08003bbd   Thumb Code   114  spl06_001.o(i.spl06_pressure_rate_config)
    spl06_set_measure_mode                   0x08003c35   Thumb Code    10  spl06_001.o(i.spl06_set_measure_mode)
    spl06_temperature_rate_config            0x08003c41   Thumb Code   118  spl06_001.o(i.spl06_temperature_rate_config)
    user_spl0601_get_presure                 0x08003cbd   Thumb Code    14  spl06_001.o(i.user_spl0601_get_presure)
    user_spl0601_get_temperature             0x08003ccb   Thumb Code    14  spl06_001.o(i.user_spl0601_get_temperature)
    AHBPrescTable                            0x08003cd8   Data          16  system_stm32f4xx.o(.constdata)
    APBPrescTable                            0x08003ce8   Data           8  system_stm32f4xx.o(.constdata)
    TX_ADDRESS                               0x08003cf0   Data           5  nrf24l01.o(.constdata)
    RX_ADDRESS                               0x08003cf5   Data           5  nrf24l01.o(.constdata)
    Region$$Table$$Base                      0x08003cfc   Number         0  anon$$obj.o(Region$$Table)
    Region$$Table$$Limit                     0x08003d1c   Number         0  anon$$obj.o(Region$$Table)
    nrf2401_tx_flag                          0x20000000   Data           1  main.o(.data)
    txbuf_pos                                0x20000001   Data           1  main.o(.data)
    distance                                 0x20000002   Data           2  main.o(.data)
    t2_cnt1                                  0x20000004   Data           4  main.o(.data)
    high_time                                0x20000008   Data           4  main.o(.data)
    t2_cnt2                                  0x2000000c   Data           4  main.o(.data)
    tick_start                               0x20000010   Data           4  stm32f4xx_it.o(.data)
    uwTickFreq                               0x20000014   Data           1  stm32f4xx_hal.o(.data)
    uwTickPrio                               0x20000018   Data           4  stm32f4xx_hal.o(.data)
    uwTick                                   0x2000001c   Data           4  stm32f4xx_hal.o(.data)
    SystemCoreClock                          0x20000020   Data           4  system_stm32f4xx.o(.data)
    htim2                                    0x20000024   Data          72  main.o(.bss)
    hi2c1                                    0x2000006c   Data          84  main.o(.bss)
    huart6                                   0x200000c0   Data          68  main.o(.bss)
    hspi2                                    0x20000104   Data          88  main.o(.bss)
    nrf2401_txbuf                            0x2000015c   Data          33  main.o(.bss)
    spl06                                    0x20000198   Data          20  spl06_001.o(.bss)
    __initial_sp                             0x200005b0   Data           0  startup_stm32f401xc.o(STACK)



==============================================================================

Memory Map of the image

  Image Entry point : 0x08000195

  Load Region LR_IROM1 (Base: 0x08000000, Size: 0x00003d40, Max: 0x00040000, ABSOLUTE)

    Execution Region ER_IROM1 (Exec base: 0x08000000, Load base: 0x08000000, Size: 0x00003d1c, Max: 0x00040000, ABSOLUTE)

    Exec Addr    Load Addr    Size         Type   Attr      Idx    E Section Name        Object

    0x08000000   0x08000000   0x00000194   Data   RO            3    RESET               startup_stm32f401xc.o
    0x08000194   0x08000194   0x00000000   Code   RO         4019  * .ARM.Collect$$$$00000000  mc_w.l(entry.o)
    0x08000194   0x08000194   0x00000004   Code   RO         4036    .ARM.Collect$$$$00000001  mc_w.l(entry2.o)
    0x08000198   0x08000198   0x00000004   Code   RO         4039    .ARM.Collect$$$$00000004  mc_w.l(entry5.o)
    0x0800019c   0x0800019c   0x00000000   Code   RO         4041    .ARM.Collect$$$$00000008  mc_w.l(entry7b.o)
    0x0800019c   0x0800019c   0x00000000   Code   RO         4043    .ARM.Collect$$$$0000000A  mc_w.l(entry8b.o)
    0x0800019c   0x0800019c   0x00000008   Code   RO         4044    .ARM.Collect$$$$0000000B  mc_w.l(entry9a.o)
    0x080001a4   0x080001a4   0x00000004   Code   RO         4051    .ARM.Collect$$$$0000000E  mc_w.l(entry12b.o)
    0x080001a8   0x080001a8   0x00000000   Code   RO         4046    .ARM.Collect$$$$0000000F  mc_w.l(entry10a.o)
    0x080001a8   0x080001a8   0x00000000   Code   RO         4048    .ARM.Collect$$$$00000011  mc_w.l(entry11a.o)
    0x080001a8   0x080001a8   0x00000004   Code   RO         4037    .ARM.Collect$$$$00002712  mc_w.l(entry2.o)
    0x080001ac   0x080001ac   0x00000024   Code   RO            4    .text               startup_stm32f401xc.o
    0x080001d0   0x080001d0   0x00000062   Code   RO         4022    .text               mc_w.l(uldiv.o)
    0x08000232   0x08000232   0x00000024   Code   RO         4024    .text               mc_w.l(memseta.o)
    0x08000256   0x08000256   0x0000014e   Code   RO         4026    .text               mf_w.l(dadd.o)
    0x080003a4   0x080003a4   0x000000e4   Code   RO         4028    .text               mf_w.l(dmul.o)
    0x08000488   0x08000488   0x00000022   Code   RO         4030    .text               mf_w.l(dflti.o)
    0x080004aa   0x080004aa   0x00000026   Code   RO         4032    .text               mf_w.l(f2d.o)
    0x080004d0   0x080004d0   0x00000038   Code   RO         4034    .text               mf_w.l(d2f.o)
    0x08000508   0x08000508   0x0000001e   Code   RO         4052    .text               mc_w.l(llshl.o)
    0x08000526   0x08000526   0x00000020   Code   RO         4054    .text               mc_w.l(llushr.o)
    0x08000546   0x08000546   0x00000024   Code   RO         4056    .text               mc_w.l(llsshr.o)
    0x0800056a   0x0800056a   0x00000000   Code   RO         4058    .text               mc_w.l(iusefp.o)
    0x0800056a   0x0800056a   0x0000006e   Code   RO         4059    .text               mf_w.l(fepilogue.o)
    0x080005d8   0x080005d8   0x000000ba   Code   RO         4061    .text               mf_w.l(depilogue.o)
    0x08000692   0x08000692   0x00000002   PAD
    0x08000694   0x08000694   0x00000024   Code   RO         4063    .text               mc_w.l(init.o)
    0x080006b8   0x080006b8   0x00000002   Code   RO          199    i.BusFault_Handler  stm32f4xx_it.o
    0x080006ba   0x080006ba   0x00000002   Code   RO          200    i.DebugMon_Handler  stm32f4xx_it.o
    0x080006bc   0x080006bc   0x00000008   Code   RO          201    i.EXTI9_5_IRQHandler  stm32f4xx_it.o
    0x080006c4   0x080006c4   0x0000008e   Code   RO         1834    i.HAL_DMA_Abort     stm32f4xx_hal_dma.o
    0x08000752   0x08000752   0x00000024   Code   RO         1835    i.HAL_DMA_Abort_IT  stm32f4xx_hal_dma.o
    0x08000776   0x08000776   0x00000002   PAD
    0x08000778   0x08000778   0x00000024   Code   RO         2277    i.HAL_Delay         stm32f4xx_hal.o
    0x0800079c   0x0800079c   0x0000003c   Code   RO           14    i.HAL_GPIO_EXTI_Callback  main.o
    0x080007d8   0x080007d8   0x00000018   Code   RO         1726    i.HAL_GPIO_EXTI_IRQHandler  stm32f4xx_hal_gpio.o
    0x080007f0   0x080007f0   0x000001dc   Code   RO         1727    i.HAL_GPIO_Init     stm32f4xx_hal_gpio.o
    0x080009cc   0x080009cc   0x00000010   Code   RO         1730    i.HAL_GPIO_TogglePin  stm32f4xx_hal_gpio.o
    0x080009dc   0x080009dc   0x0000000a   Code   RO         1731    i.HAL_GPIO_WritePin  stm32f4xx_hal_gpio.o
    0x080009e6   0x080009e6   0x00000002   PAD
    0x080009e8   0x080009e8   0x0000000c   Code   RO         2283    i.HAL_GetTick       stm32f4xx_hal.o
    0x080009f4   0x080009f4   0x00000188   Code   RO         2896    i.HAL_I2C_Init      stm32f4xx_hal_i2c.o
    0x08000b7c   0x08000b7c   0x000001f8   Code   RO         2914    i.HAL_I2C_Mem_Read  stm32f4xx_hal_i2c.o
    0x08000d74   0x08000d74   0x00000130   Code   RO         2917    i.HAL_I2C_Mem_Write  stm32f4xx_hal_i2c.o
    0x08000ea4   0x08000ea4   0x00000068   Code   RO          298    i.HAL_I2C_MspInit   stm32f4xx_hal_msp.o
    0x08000f0c   0x08000f0c   0x00000010   Code   RO         2289    i.HAL_IncTick       stm32f4xx_hal.o
    0x08000f1c   0x08000f1c   0x00000034   Code   RO         2290    i.HAL_Init          stm32f4xx_hal.o
    0x08000f50   0x08000f50   0x00000040   Code   RO         2291    i.HAL_InitTick      stm32f4xx_hal.o
    0x08000f90   0x08000f90   0x00000030   Code   RO          299    i.HAL_MspInit       stm32f4xx_hal_msp.o
    0x08000fc0   0x08000fc0   0x00000022   Code   RO         2139    i.HAL_NVIC_DisableIRQ  stm32f4xx_hal_cortex.o
    0x08000fe2   0x08000fe2   0x0000001a   Code   RO         2140    i.HAL_NVIC_EnableIRQ  stm32f4xx_hal_cortex.o
    0x08000ffc   0x08000ffc   0x00000040   Code   RO         2146    i.HAL_NVIC_SetPriority  stm32f4xx_hal_cortex.o
    0x0800103c   0x0800103c   0x00000024   Code   RO         2147    i.HAL_NVIC_SetPriorityGrouping  stm32f4xx_hal_cortex.o
    0x08001060   0x08001060   0x00000134   Code   RO         1349    i.HAL_RCC_ClockConfig  stm32f4xx_hal_rcc.o
    0x08001194   0x08001194   0x00000020   Code   RO         1356    i.HAL_RCC_GetPCLK1Freq  stm32f4xx_hal_rcc.o
    0x080011b4   0x080011b4   0x00000020   Code   RO         1357    i.HAL_RCC_GetPCLK2Freq  stm32f4xx_hal_rcc.o
    0x080011d4   0x080011d4   0x00000064   Code   RO         1358    i.HAL_RCC_GetSysClockFreq  stm32f4xx_hal_rcc.o
    0x08001238   0x08001238   0x0000036c   Code   RO         1361    i.HAL_RCC_OscConfig  stm32f4xx_hal_rcc.o
    0x080015a4   0x080015a4   0x000000bc   Code   RO         3353    i.HAL_SPI_Init      stm32f4xx_hal_spi.o
    0x08001660   0x08001660   0x0000006c   Code   RO          301    i.HAL_SPI_MspInit   stm32f4xx_hal_msp.o
    0x080016cc   0x080016cc   0x000001e2   Code   RO         3362    i.HAL_SPI_TransmitReceive  stm32f4xx_hal_spi.o
    0x080018ae   0x080018ae   0x00000028   Code   RO         2151    i.HAL_SYSTICK_Config  stm32f4xx_hal_cortex.o
    0x080018d6   0x080018d6   0x00000002   Code   RO         1081    i.HAL_TIMEx_BreakCallback  stm32f4xx_hal_tim_ex.o
    0x080018d8   0x080018d8   0x00000002   Code   RO         1082    i.HAL_TIMEx_CommutCallback  stm32f4xx_hal_tim_ex.o
    0x080018da   0x080018da   0x00000002   PAD
    0x080018dc   0x080018dc   0x0000007c   Code   RO         1100    i.HAL_TIMEx_MasterConfigSynchronization  stm32f4xx_hal_tim_ex.o
    0x08001958   0x08001958   0x0000005a   Code   RO          377    i.HAL_TIM_Base_Init  stm32f4xx_hal_tim.o
    0x080019b2   0x080019b2   0x00000002   PAD
    0x080019b4   0x080019b4   0x00000074   Code   RO          303    i.HAL_TIM_Base_MspInit  stm32f4xx_hal_msp.o
    0x08001a28   0x08001a28   0x000000d6   Code   RO          386    i.HAL_TIM_ConfigClockSource  stm32f4xx_hal_tim.o
    0x08001afe   0x08001afe   0x00000002   PAD
    0x08001b00   0x08001b00   0x00000094   Code   RO           15    i.HAL_TIM_IC_CaptureCallback  main.o
    0x08001b94   0x08001b94   0x0000010e   Code   RO          413    i.HAL_TIM_IC_ConfigChannel  stm32f4xx_hal_tim.o
    0x08001ca2   0x08001ca2   0x0000005a   Code   RO          416    i.HAL_TIM_IC_Init   stm32f4xx_hal_tim.o
    0x08001cfc   0x08001cfc   0x00000002   Code   RO          418    i.HAL_TIM_IC_MspInit  stm32f4xx_hal_tim.o
    0x08001cfe   0x08001cfe   0x00000002   PAD
    0x08001d00   0x08001d00   0x000000f4   Code   RO          421    i.HAL_TIM_IC_Start_IT  stm32f4xx_hal_tim.o
    0x08001df4   0x08001df4   0x00000166   Code   RO          425    i.HAL_TIM_IRQHandler  stm32f4xx_hal_tim.o
    0x08001f5a   0x08001f5a   0x00000002   PAD
    0x08001f5c   0x08001f5c   0x00000050   Code   RO          304    i.HAL_TIM_MspPostInit  stm32f4xx_hal_msp.o
    0x08001fac   0x08001fac   0x00000002   Code   RO          428    i.HAL_TIM_OC_DelayElapsedCallback  stm32f4xx_hal_tim.o
    0x08001fae   0x08001fae   0x000000c6   Code   RO          449    i.HAL_TIM_PWM_ConfigChannel  stm32f4xx_hal_tim.o
    0x08002074   0x08002074   0x0000005a   Code   RO          452    i.HAL_TIM_PWM_Init  stm32f4xx_hal_tim.o
    0x080020ce   0x080020ce   0x00000002   Code   RO          454    i.HAL_TIM_PWM_MspInit  stm32f4xx_hal_tim.o
    0x080020d0   0x080020d0   0x00000002   Code   RO          455    i.HAL_TIM_PWM_PulseFinishedCallback  stm32f4xx_hal_tim.o
    0x080020d2   0x080020d2   0x00000002   PAD
    0x080020d4   0x080020d4   0x000000b0   Code   RO          457    i.HAL_TIM_PWM_Start  stm32f4xx_hal_tim.o
    0x08002184   0x08002184   0x00000002   Code   RO          463    i.HAL_TIM_PeriodElapsedCallback  stm32f4xx_hal_tim.o
    0x08002186   0x08002186   0x00000002   Code   RO          468    i.HAL_TIM_TriggerCallback  stm32f4xx_hal_tim.o
    0x08002188   0x08002188   0x00000002   Code   RO         2539    i.HAL_UARTEx_RxEventCallback  stm32f4xx_hal_uart.o
    0x0800218a   0x0800218a   0x00000002   Code   RO         2553    i.HAL_UART_ErrorCallback  stm32f4xx_hal_uart.o
    0x0800218c   0x0800218c   0x00000210   Code   RO         2556    i.HAL_UART_IRQHandler  stm32f4xx_hal_uart.o
    0x0800239c   0x0800239c   0x00000062   Code   RO         2557    i.HAL_UART_Init     stm32f4xx_hal_uart.o
    0x080023fe   0x080023fe   0x00000002   PAD
    0x08002400   0x08002400   0x0000007c   Code   RO          306    i.HAL_UART_MspInit  stm32f4xx_hal_msp.o
    0x0800247c   0x0800247c   0x00000002   Code   RO         2563    i.HAL_UART_RxCpltCallback  stm32f4xx_hal_uart.o
    0x0800247e   0x0800247e   0x00000002   Code   RO         2568    i.HAL_UART_TxCpltCallback  stm32f4xx_hal_uart.o
    0x08002480   0x08002480   0x00000002   Code   RO          202    i.HardFault_Handler  stm32f4xx_it.o
    0x08002482   0x08002482   0x0000002e   Code   RO         2938    i.I2C_IsAcknowledgeFailed  stm32f4xx_hal_i2c.o
    0x080024b0   0x080024b0   0x000000fc   Code   RO         2948    i.I2C_RequestMemoryRead  stm32f4xx_hal_i2c.o
    0x080025ac   0x080025ac   0x000000a8   Code   RO         2949    i.I2C_RequestMemoryWrite  stm32f4xx_hal_i2c.o
    0x08002654   0x08002654   0x0000004c   Code   RO         2952    i.I2C_WaitOnBTFFlagUntilTimeout  stm32f4xx_hal_i2c.o
    0x080026a0   0x080026a0   0x00000068   Code   RO         2953    i.I2C_WaitOnFlagUntilTimeout  stm32f4xx_hal_i2c.o
    0x08002708   0x08002708   0x00000096   Code   RO         2954    i.I2C_WaitOnMasterAddressFlagUntilTimeout  stm32f4xx_hal_i2c.o
    0x0800279e   0x0800279e   0x00000066   Code   RO         2955    i.I2C_WaitOnRXNEFlagUntilTimeout  stm32f4xx_hal_i2c.o
    0x08002804   0x08002804   0x0000004c   Code   RO         2956    i.I2C_WaitOnTXEFlagUntilTimeout  stm32f4xx_hal_i2c.o
    0x08002850   0x08002850   0x000000f8   Code   RO           16    i.MX_GPIO_Init      main.o
    0x08002948   0x08002948   0x00000044   Code   RO           17    i.MX_SPI2_Init      main.o
    0x0800298c   0x0800298c   0x000000cc   Code   RO           18    i.MX_TIM2_Init      main.o
    0x08002a58   0x08002a58   0x00000002   Code   RO          203    i.MemManage_Handler  stm32f4xx_it.o
    0x08002a5a   0x08002a5a   0x00000002   Code   RO          204    i.NMI_Handler       stm32f4xx_it.o
    0x08002a5c   0x08002a5c   0x00000048   Code   RO         3928    i.NRF24L01_Check    nrf24l01.o
    0x08002aa4   0x08002aa4   0x0000004c   Code   RO         3929    i.NRF24L01_Read_Buf  nrf24l01.o
    0x08002af0   0x08002af0   0x00000034   Code   RO         3930    i.NRF24L01_Read_Reg  nrf24l01.o
    0x08002b24   0x08002b24   0x00000040   Code   RO         3931    i.NRF24L01_RxPacket  nrf24l01.o
    0x08002b64   0x08002b64   0x0000007c   Code   RO         3932    i.NRF24L01_TxPacket  nrf24l01.o
    0x08002be0   0x08002be0   0x0000004c   Code   RO         3933    i.NRF24L01_Write_Buf  nrf24l01.o
    0x08002c2c   0x08002c2c   0x0000003c   Code   RO         3934    i.NRF24L01_Write_Reg  nrf24l01.o
    0x08002c68   0x08002c68   0x00000002   Code   RO          205    i.PendSV_Handler    stm32f4xx_it.o
    0x08002c6a   0x08002c6a   0x00000002   PAD
    0x08002c6c   0x08002c6c   0x0000007c   Code   RO         3936    i.RX_Mode           nrf24l01.o
    0x08002ce8   0x08002ce8   0x00000058   Code   RO         3391    i.SPI_EndRxTxTransaction  stm32f4xx_hal_spi.o
    0x08002d40   0x08002d40   0x000000b8   Code   RO         3396    i.SPI_WaitFlagStateUntilTimeout  stm32f4xx_hal_spi.o
    0x08002df8   0x08002df8   0x00000020   Code   RO         3937    i.SPIx_ReadWriteByte  nrf24l01.o
    0x08002e18   0x08002e18   0x00000002   Code   RO          206    i.SVC_Handler       stm32f4xx_it.o
    0x08002e1a   0x08002e1a   0x00000002   PAD
    0x08002e1c   0x08002e1c   0x00000054   Code   RO          207    i.SysTick_Handler   stm32f4xx_it.o
    0x08002e70   0x08002e70   0x00000094   Code   RO           19    i.SystemClock_Config  main.o
    0x08002f04   0x08002f04   0x00000010   Code   RO         3665    i.SystemInit        system_stm32f4xx.o
    0x08002f14   0x08002f14   0x0000000c   Code   RO          208    i.TIM2_IRQHandler   stm32f4xx_it.o
    0x08002f20   0x08002f20   0x00000098   Code   RO          470    i.TIM_Base_SetConfig  stm32f4xx_hal_tim.o
    0x08002fb8   0x08002fb8   0x0000001a   Code   RO          471    i.TIM_CCxChannelCmd  stm32f4xx_hal_tim.o
    0x08002fd2   0x08002fd2   0x00000014   Code   RO          481    i.TIM_ETR_SetConfig  stm32f4xx_hal_tim.o
    0x08002fe6   0x08002fe6   0x00000010   Code   RO          482    i.TIM_ITRx_SetConfig  stm32f4xx_hal_tim.o
    0x08002ff6   0x08002ff6   0x00000002   PAD
    0x08002ff8   0x08002ff8   0x00000050   Code   RO          483    i.TIM_OC1_SetConfig  stm32f4xx_hal_tim.o
    0x08003048   0x08003048   0x00000058   Code   RO          484    i.TIM_OC2_SetConfig  stm32f4xx_hal_tim.o
    0x080030a0   0x080030a0   0x00000058   Code   RO          485    i.TIM_OC3_SetConfig  stm32f4xx_hal_tim.o
    0x080030f8   0x080030f8   0x00000044   Code   RO          486    i.TIM_OC4_SetConfig  stm32f4xx_hal_tim.o
    0x0800313c   0x0800313c   0x00000022   Code   RO          488    i.TIM_TI1_ConfigInputStage  stm32f4xx_hal_tim.o
    0x0800315e   0x0800315e   0x00000002   PAD
    0x08003160   0x08003160   0x0000006c   Code   RO          489    i.TIM_TI1_SetConfig  stm32f4xx_hal_tim.o
    0x080031cc   0x080031cc   0x00000024   Code   RO          490    i.TIM_TI2_ConfigInputStage  stm32f4xx_hal_tim.o
    0x080031f0   0x080031f0   0x00000036   Code   RO          491    i.TIM_TI2_SetConfig  stm32f4xx_hal_tim.o
    0x08003226   0x08003226   0x00000002   PAD
    0x08003228   0x08003228   0x00000088   Code   RO         3939    i.TX_Mode           nrf24l01.o
    0x080032b0   0x080032b0   0x00000010   Code   RO         2570    i.UART_DMAAbortOnError  stm32f4xx_hal_uart.o
    0x080032c0   0x080032c0   0x00000030   Code   RO         2580    i.UART_EndRxTransfer  stm32f4xx_hal_uart.o
    0x080032f0   0x080032f0   0x000000ae   Code   RO         2582    i.UART_Receive_IT   stm32f4xx_hal_uart.o
    0x0800339e   0x0800339e   0x00000002   PAD
    0x080033a0   0x080033a0   0x0000010c   Code   RO         2583    i.UART_SetConfig    stm32f4xx_hal_uart.o
    0x080034ac   0x080034ac   0x0000005c   Code   RO          209    i.USART6_IRQHandler  stm32f4xx_it.o
    0x08003508   0x08003508   0x00000002   Code   RO          210    i.UsageFault_Handler  stm32f4xx_it.o
    0x0800350a   0x0800350a   0x00000020   Code   RO         2153    i.__NVIC_SetPriority  stm32f4xx_hal_cortex.o
    0x0800352a   0x0800352a   0x0000000e   Code   RO         4067    i.__scatterload_copy  mc_w.l(handlers.o)
    0x08003538   0x08003538   0x00000002   Code   RO         4068    i.__scatterload_null  mc_w.l(handlers.o)
    0x0800353a   0x0800353a   0x0000000e   Code   RO         4069    i.__scatterload_zeroinit  mc_w.l(handlers.o)
    0x08003548   0x08003548   0x000001d8   Code   RO           20    i.main              main.o
    0x08003720   0x08003720   0x0000000c   Code   RO         3703    i.send_char         uart.o
    0x0800372c   0x0800372c   0x0000001e   Code   RO         3704    i.send_char_array   uart.o
    0x0800374a   0x0800374a   0x00000002   PAD
    0x0800374c   0x0800374c   0x00000076   Code   RO         3705    i.send_float        uart.o
    0x080037c2   0x080037c2   0x00000058   Code   RO         3706    i.send_int          uart.o
    0x0800381a   0x0800381a   0x00000018   Code   RO         3707    i.send_str          uart.o
    0x08003832   0x08003832   0x00000002   PAD
    0x08003834   0x08003834   0x00000138   Code   RO         3758    i.spl0601_get_calib_param  spl06_001.o
    0x0800396c   0x0800396c   0x000000a0   Code   RO         3759    i.spl0601_get_pressure  spl06_001.o
    0x08003a0c   0x08003a0c   0x0000003c   Code   RO         3760    i.spl0601_get_raw_pressure  spl06_001.o
    0x08003a48   0x08003a48   0x0000003c   Code   RO         3761    i.spl0601_get_raw_temp  spl06_001.o
    0x08003a84   0x08003a84   0x00000074   Code   RO         3762    i.spl0601_get_temperature  spl06_001.o
    0x08003af8   0x08003af8   0x00000070   Code   RO         3763    i.spl0601_init      spl06_001.o
    0x08003b68   0x08003b68   0x00000024   Code   RO         3764    i.spl0601_read      spl06_001.o
    0x08003b8c   0x08003b8c   0x00000020   Code   RO         3765    i.spl0601_write     spl06_001.o
    0x08003bac   0x08003bac   0x00000008   Code   RO         3767    i.spl06_get_chip_id  spl06_001.o
    0x08003bb4   0x08003bb4   0x00000008   Code   RO         3770    i.spl06_get_measure_status  spl06_001.o
    0x08003bbc   0x08003bbc   0x00000078   Code   RO         3771    i.spl06_pressure_rate_config  spl06_001.o
    0x08003c34   0x08003c34   0x0000000a   Code   RO         3775    i.spl06_set_measure_mode  spl06_001.o
    0x08003c3e   0x08003c3e   0x00000002   PAD
    0x08003c40   0x08003c40   0x0000007c   Code   RO         3780    i.spl06_temperature_rate_config  spl06_001.o
    0x08003cbc   0x08003cbc   0x0000000e   Code   RO         3781    i.user_spl0601_get_presure  spl06_001.o
    0x08003cca   0x08003cca   0x0000000e   Code   RO         3782    i.user_spl0601_get_temperature  spl06_001.o
    0x08003cd8   0x08003cd8   0x00000010   Data   RO         3666    .constdata          system_stm32f4xx.o
    0x08003ce8   0x08003ce8   0x00000008   Data   RO         3667    .constdata          system_stm32f4xx.o
    0x08003cf0   0x08003cf0   0x0000000a   Data   RO         3940    .constdata          nrf24l01.o
    0x08003cfa   0x08003cfa   0x00000002   PAD
    0x08003cfc   0x08003cfc   0x00000020   Data   RO         4065    Region$$Table       anon$$obj.o


    Execution Region RW_IRAM1 (Exec base: 0x20000000, Load base: 0x08003d1c, Size: 0x000005b0, Max: 0x00010000, ABSOLUTE)

    Exec Addr    Load Addr    Size         Type   Attr      Idx    E Section Name        Object

    0x20000000   0x08003d1c   0x00000010   Data   RW           22    .data               main.o
    0x20000010   0x08003d2c   0x00000004   Data   RW          212    .data               stm32f4xx_it.o
    0x20000014   0x08003d30   0x0000000c   Data   RW         2297    .data               stm32f4xx_hal.o
    0x20000020   0x08003d3c   0x00000004   Data   RW         3668    .data               system_stm32f4xx.o
    0x20000024        -       0x00000159   Zero   RW           21    .bss                main.o
    0x2000017d   0x08003d40   0x00000003   PAD
    0x20000180        -       0x0000002c   Zero   RW         3783    .bss                spl06_001.o
    0x200001ac   0x08003d40   0x00000004   PAD
    0x200001b0        -       0x00000400   Zero   RW            1    STACK               startup_stm32f401xc.o


==============================================================================

Image component sizes


      Code (inc. data)   RO Data    RW Data    ZI Data      Debug   Object Name

      1348        150          0         16        345     436396   main.o
       816         58         10          0          0       7562   nrf24l01.o
      1186         80          0          0         44      12028   spl06_001.o
        36          8        404          0       1024        864   startup_stm32f401xc.o
       180         28          0         12          0       9493   stm32f4xx_hal.o
       232         14          0          0          0      34841   stm32f4xx_hal_cortex.o
       178          0          0          0          0       2183   stm32f4xx_hal_dma.o
       526         38          0          0          0       3580   stm32f4xx_hal_gpio.o
      2174         52          0          0          0      13278   stm32f4xx_hal_i2c.o
       580         64          0          0          0       4670   stm32f4xx_hal_msp.o
      1348         76          0          0          0       5408   stm32f4xx_hal_rcc.o
       942         12          0          0          0       5053   stm32f4xx_hal_spi.o
      2512        110          0          0          0      21597   stm32f4xx_hal_tim.o
       128         20          0          0          0       2565   stm32f4xx_hal_tim_ex.o
      1140         16          0          0          0       8272   stm32f4xx_hal_uart.o
       212         44          0          4          0       6414   stm32f4xx_it.o
        16          4         24          4          0       1211   system_stm32f4xx.o
       272          0          0          0          0       3782   uart.o

    ----------------------------------------------------------------------
     13862        774        472         36       1420     579197   Object Totals
         0          0         32          0          0          0   (incl. Generated)
        36          0          2          0          7          0   (incl. Padding)

    ----------------------------------------------------------------------

      Code (inc. data)   RO Data    RW Data    ZI Data      Debug   Library Member Name

         0          0          0          0          0          0   entry.o
         0          0          0          0          0          0   entry10a.o
         0          0          0          0          0          0   entry11a.o
         4          0          0          0          0          0   entry12b.o
         8          4          0          0          0          0   entry2.o
         4          0          0          0          0          0   entry5.o
         0          0          0          0          0          0   entry7b.o
         0          0          0          0          0          0   entry8b.o
         8          4          0          0          0          0   entry9a.o
        30          0          0          0          0          0   handlers.o
        36          8          0          0          0         68   init.o
         0          0          0          0          0          0   iusefp.o
        30          0          0          0          0         68   llshl.o
        36          0          0          0          0         68   llsshr.o
        32          0          0          0          0         68   llushr.o
        36          0          0          0          0        108   memseta.o
        98          0          0          0          0         92   uldiv.o
        56          0          0          0          0         88   d2f.o
       334          0          0          0          0        148   dadd.o
       186          0          0          0          0        176   depilogue.o
        34          0          0          0          0         76   dflti.o
       228          0          0          0          0         96   dmul.o
        38          0          0          0          0         68   f2d.o
       110          0          0          0          0        168   fepilogue.o

    ----------------------------------------------------------------------
      1310         16          0          0          0       1292   Library Totals
         2          0          0          0          0          0   (incl. Padding)

    ----------------------------------------------------------------------

      Code (inc. data)   RO Data    RW Data    ZI Data      Debug   Library Name

       322         16          0          0          0        472   mc_w.l
       986          0          0          0          0        820   mf_w.l

    ----------------------------------------------------------------------
      1310         16          0          0          0       1292   Library Totals

    ----------------------------------------------------------------------

==============================================================================


      Code (inc. data)   RO Data    RW Data    ZI Data      Debug   

     15172        790        472         36       1420     567773   Grand Totals
     15172        790        472         36       1420     567773   ELF Image Totals
     15172        790        472         36          0          0   ROM Totals

==============================================================================

    Total RO  Size (Code + RO Data)                15644 (  15.28kB)
    Total RW  Size (RW Data + ZI Data)              1456 (   1.42kB)
    Total ROM Size (Code + RO Data + RW Data)      15680 (  15.31kB)

==============================================================================

