Component: ARM Compiler 5.06 update 7 (build 960) Tool: armlink [4d3601]

==============================================================================

Section Cross References

    startup_stm32f401xc.o(RESET) refers to startup_stm32f401xc.o(STACK) for __initial_sp
    startup_stm32f401xc.o(RESET) refers to startup_stm32f401xc.o(.text) for Reset_Handler
    startup_stm32f401xc.o(RESET) refers to stm32f4xx_it.o(i.NMI_Handler) for NMI_Handler
    startup_stm32f401xc.o(RESET) refers to stm32f4xx_it.o(i.HardFault_Handler) for HardFault_Handler
    startup_stm32f401xc.o(RESET) refers to stm32f4xx_it.o(i.MemManage_Handler) for MemManage_Handler
    startup_stm32f401xc.o(RESET) refers to stm32f4xx_it.o(i.BusFault_Handler) for BusFault_Handler
    startup_stm32f401xc.o(RESET) refers to stm32f4xx_it.o(i.UsageFault_Handler) for UsageFault_Handler
    startup_stm32f401xc.o(RESET) refers to stm32f4xx_it.o(i.SVC_Handler) for SVC_Handler
    startup_stm32f401xc.o(RESET) refers to stm32f4xx_it.o(i.DebugMon_Handler) for DebugMon_Handler
    startup_stm32f401xc.o(RESET) refers to stm32f4xx_it.o(i.PendSV_Handler) for PendSV_Handler
    startup_stm32f401xc.o(RESET) refers to stm32f4xx_it.o(i.SysTick_Handler) for SysTick_Handler
    startup_stm32f401xc.o(RESET) refers to stm32f4xx_it.o(i.EXTI9_5_IRQHandler) for EXTI9_5_IRQHandler
    startup_stm32f401xc.o(RESET) refers to stm32f4xx_it.o(i.TIM2_IRQHandler) for TIM2_IRQHandler
    startup_stm32f401xc.o(RESET) refers to stm32f4xx_it.o(i.USART6_IRQHandler) for USART6_IRQHandler
    startup_stm32f401xc.o(.text) refers to system_stm32f4xx.o(i.SystemInit) for SystemInit
    startup_stm32f401xc.o(.text) refers to entry.o(.ARM.Collect$$$$00000000) for __main
    main.o(i.HAL_GPIO_EXTI_Callback) refers to nrf24l01.o(i.NRF24L01_RxPacket) for NRF24L01_RxPacket
    main.o(i.HAL_GPIO_EXTI_Callback) refers to uart.o(i.send_char_array) for send_char_array
==============================================================================

Removing Unused input sections from the image.

    Removing startup_stm32f401xc.o(HEAP), (512 bytes).
    Removing main.o(.rev16_text), (4 bytes).
    Removing main.o(.revsh_text), (4 bytes).
    Removing main.o(.rrx_text), (6 bytes).
    Removing main.o(i.Error_Handler), (4 bytes).
    Removing stm32f4xx_it.o(.rev16_text), (4 bytes).
    Removing stm32f4xx_it.o(.revsh_text), (4 bytes).
    Removing stm32f4xx_it.o(.rrx_text), (6 bytes).
    Removing stm32f4xx_it.o(.data), (1 bytes).
    Removing stm32f4xx_hal_msp.o(.rev16_text), (4 bytes).
    Removing stm32f4xx_hal_msp.o(.revsh_text), (4 bytes).
    Removing stm32f4xx_hal_msp.o(.rrx_text), (6 bytes).
    Removing stm32f4xx_hal_msp.o(i.HAL_I2C_MspDeInit), (56 bytes).
    Removing stm32f4xx_hal_msp.o(i.HAL_SPI_MspDeInit), (44 bytes).
    Removing stm32f4xx_hal_msp.o(i.HAL_TIM_Base_MspDeInit), (64 bytes).
    Removing stm32f4xx_hal_msp.o(i.HAL_UART_MspDeInit), (56 bytes).
    Removing stm32f4xx_hal_i2c.o(.rev16_text), (4 bytes).
    Removing stm32f4xx_hal_i2c.o(.revsh_text), (4 bytes).
==============================================================================

Image Symbol Table

    Local Symbols

    Symbol Name                              Value     Ov Type        Size  Object(Section)

    ../Core/Src/main.c                       0x00000000   Number         0  main.o ABSOLUTE
    ../Core/Src/stm32f4xx_hal_msp.c          0x00000000   Number         0  stm32f4xx_hal_msp.o ABSOLUTE
    ../Core/Src/stm32f4xx_it.c               0x00000000   Number         0  stm32f4xx_it.o ABSOLUTE
    ../Core/Src/system_stm32f4xx.c           0x00000000   Number         0  system_stm32f4xx.o ABSOLUTE
    ../Drivers/STM32F4xx_HAL_Driver/Src/stm32f4xx_hal.c 0x00000000   Number         0  stm32f4xx_hal.o ABSOLUTE
    ../Drivers/STM32F4xx_HAL_Driver/Src/stm32f4xx_hal_cortex.c 0x00000000   Number         0  stm32f4xx_hal_cortex.o ABSOLUTE
    ../Drivers/STM32F4xx_HAL_Driver/Src/stm32f4xx_hal_dma.c 0x00000000   Number         0  stm32f4xx_hal_dma.o ABSOLUTE
    ../Drivers/STM32F4xx_HAL_Driver/Src/stm32f4xx_hal_dma_ex.c 0x00000000   Number         0  stm32f4xx_hal_dma_ex.o ABSOLUTE
    ../Drivers/STM32F4xx_HAL_Driver/Src/stm32f4xx_hal_exti.c 0x00000000   Number         0  stm32f4xx_hal_exti.o ABSOLUTE
    ../Drivers/STM32F4xx_HAL_Driver/Src/stm32f4xx_hal_flash.c 0x00000000   Number         0  stm32f4xx_hal_flash.o ABSOLUTE
    ../Drivers/STM32F4xx_HAL_Driver/Src/stm32f4xx_hal_flash_ex.c 0x00000000   Number         0  stm32f4xx_hal_flash_ex.o ABSOLUTE
    ../Drivers/STM32F4xx_HAL_Driver/Src/stm32f4xx_hal_flash_ramfunc.c 0x00000000   Number         0  stm32f4xx_hal_flash_ramfunc.o ABSOLUTE
    ../Drivers/STM32F4xx_HAL_Driver/Src/stm32f4xx_hal_gpio.c 0x00000000   Number         0  stm32f4xx_hal_gpio.o ABSOLUTE
    ../Drivers/STM32F4xx_HAL_Driver/Src/stm32f4xx_hal_i2c.c 0x00000000   Number         0  stm32f4xx_hal_i2c.o ABSOLUTE
    ../Drivers/STM32F4xx_HAL_Driver/Src/stm32f4xx_hal_i2c_ex.c 0x00000000   Number         0  stm32f4xx_hal_i2c_ex.o ABSOLUTE
    ../Drivers/STM32F4xx_HAL_Driver/Src/stm32f4xx_hal_pwr.c 0x00000000   Number         0  stm32f4xx_hal_pwr.o ABSOLUTE
    ../Drivers/STM32F4xx_HAL_Driver/Src/stm32f4xx_hal_pwr_ex.c 0x00000000   Number         0  stm32f4xx_hal_pwr_ex.o ABSOLUTE
    ../Drivers/STM32F4xx_HAL_Driver/Src/stm32f4xx_hal_rcc.c 0x00000000   Number         0  stm32f4xx_hal_rcc.o ABSOLUTE
    ../Drivers/STM32F4xx_HAL_Driver/Src/stm32f4xx_hal_rcc_ex.c 0x00000000   Number         0  stm32f4xx_hal_rcc_ex.o ABSOLUTE
    ../Drivers/STM32F4xx_HAL_Driver/Src/stm32f4xx_hal_spi.c 0x00000000   Number         0  stm32f4xx_hal_spi.o ABSOLUTE
    ../Drivers/STM32F4xx_HAL_Driver/Src/stm32f4xx_hal_tim.c 0x00000000   Number         0  stm32f4xx_hal_tim.o ABSOLUTE
    ../Drivers/STM32F4xx_HAL_Driver/Src/stm32f4xx_hal_tim_ex.c 0x00000000   Number         0  stm32f4xx_hal_tim_ex.o ABSOLUTE
    ../Drivers/STM32F4xx_HAL_Driver/Src/stm32f4xx_hal_uart.c 0x00000000   Number         0  stm32f4xx_hal_uart.o ABSOLUTE
    ../clib/microlib/division.c              0x00000000   Number         0  uldiv.o ABSOLUTE
    ../clib/microlib/init/entry.s            0x00000000   Number         0  entry9a.o ABSOLUTE
    ../clib/microlib/init/entry.s            0x00000000   Number         0  entry12b.o ABSOLUTE
    ../clib/microlib/init/entry.s            0x00000000   Number         0  entry9b.o ABSOLUTE
    ../clib/microlib/init/entry.s            0x00000000   Number         0  entry11a.o ABSOLUTE
    ../clib/microlib/init/entry.s            0x00000000   Number         0  entry8a.o ABSOLUTE
    ../clib/microlib/init/entry.s            0x00000000   Number         0  entry8b.o ABSOLUTE
    ../clib/microlib/init/entry.s            0x00000000   Number         0  entry7b.o ABSOLUTE
    ../clib/microlib/init/entry.s            0x00000000   Number         0  entry7a.o ABSOLUTE
    ../clib/microlib/init/entry.s            0x00000000   Number         0  entry10b.o ABSOLUTE
    ../clib/microlib/init/entry.s            0x00000000   Number         0  entry5.o ABSOLUTE
    ../clib/microlib/init/entry.s            0x00000000   Number         0  entry.o ABSOLUTE
    ../clib/microlib/init/entry.s            0x00000000   Number         0  entry11b.o ABSOLUTE
    ../clib/microlib/init/entry.s            0x00000000   Number         0  entry10a.o ABSOLUTE
    ../clib/microlib/init/entry.s            0x00000000   Number         0  entry12a.o ABSOLUTE
    ../clib/microlib/init/entry.s            0x00000000   Number         0  entry2.o ABSOLUTE
    ../clib/microlib/longlong.c              0x00000000   Number         0  llshl.o ABSOLUTE
    ../clib/microlib/longlong.c              0x00000000   Number         0  llushr.o ABSOLUTE
    ../clib/microlib/longlong.c              0x00000000   Number         0  llsshr.o ABSOLUTE
    ../clib/microlib/string/memset.c         0x00000000   Number         0  memseta.o ABSOLUTE
    ../clib/microlib/stubs.s                 0x00000000   Number         0  iusefp.o ABSOLUTE
    ../fplib/microlib/d2f.c                  0x00000000   Number         0  d2f.o ABSOLUTE
    ../fplib/microlib/f2d.c                  0x00000000   Number         0  f2d.o ABSOLUTE
    ../fplib/microlib/fpadd.c                0x00000000   Number         0  dadd.o ABSOLUTE
    ../fplib/microlib/fpepilogue.c           0x00000000   Number         0  depilogue.o ABSOLUTE
    ../fplib/microlib/fpepilogue.c           0x00000000   Number         0  fepilogue.o ABSOLUTE
    ../fplib/microlib/fpflt.c                0x00000000   Number         0  dflti.o ABSOLUTE
    ../fplib/microlib/fpmul.c                0x00000000   Number         0  dmul.o ABSOLUTE
    ..\Core\Src\main.c                       0x00000000   Number         0  main.o ABSOLUTE
    ..\Core\Src\stm32f4xx_hal_msp.c          0x00000000   Number         0  stm32f4xx_hal_msp.o ABSOLUTE
    ..\Core\Src\stm32f4xx_it.c               0x00000000   Number         0  stm32f4xx_it.o ABSOLUTE
    ..\Core\Src\system_stm32f4xx.c           0x00000000   Number         0  system_stm32f4xx.o ABSOLUTE
    ..\Drivers\STM32F4xx_HAL_Driver\Src\stm32f4xx_hal.c 0x00000000   Number         0  stm32f4xx_hal.o ABSOLUTE
    ..\Drivers\STM32F4xx_HAL_Driver\Src\stm32f4xx_hal_cortex.c 0x00000000   Number         0  stm32f4xx_hal_cortex.o ABSOLUTE
    ..\Drivers\STM32F4xx_HAL_Driver\Src\stm32f4xx_hal_dma.c 0x00000000   Number         0  stm32f4xx_hal_dma.o ABSOLUTE
    ..\Drivers\STM32F4xx_HAL_Driver\Src\stm32f4xx_hal_dma_ex.c 0x00000000   Number         0  stm32f4xx_hal_dma_ex.o ABSOLUTE
    ..\Drivers\STM32F4xx_HAL_Driver\Src\stm32f4xx_hal_exti.c 0x00000000   Number         0  stm32f4xx_hal_exti.o ABSOLUTE
    ..\Drivers\STM32F4xx_HAL_Driver\Src\stm32f4xx_hal_flash.c 0x00000000   Number         0  stm32f4xx_hal_flash.o ABSOLUTE
    ..\Drivers\STM32F4xx_HAL_Driver\Src\stm32f4xx_hal_flash_ex.c 0x00000000   Number         0  stm32f4xx_hal_flash_ex.o ABSOLUTE
    ..\Drivers\STM32F4xx_HAL_Driver\Src\stm32f4xx_hal_flash_ramfunc.c 0x00000000   Number         0  stm32f4xx_hal_flash_ramfunc.o ABSOLUTE
    ..\Drivers\STM32F4xx_HAL_Driver\Src\stm32f4xx_hal_gpio.c 0x00000000   Number         0  stm32f4xx_hal_gpio.o ABSOLUTE
    ..\Drivers\STM32F4xx_HAL_Driver\Src\stm32f4xx_hal_i2c.c 0x00000000   Number         0  stm32f4xx_hal_i2c.o ABSOLUTE
    ..\Drivers\STM32F4xx_HAL_Driver\Src\stm32f4xx_hal_i2c_ex.c 0x00000000   Number         0  stm32f4xx_hal_i2c_ex.o ABSOLUTE
    ..\Drivers\STM32F4xx_HAL_Driver\Src\stm32f4xx_hal_pwr.c 0x00000000   Number         0  stm32f4xx_hal_pwr.o ABSOLUTE
    ..\Drivers\STM32F4xx_HAL_Driver\Src\stm32f4xx_hal_pwr_ex.c 0x00000000   Number         0  stm32f4xx_hal_pwr_ex.o ABSOLUTE
    ..\Drivers\STM32F4xx_HAL_Driver\Src\stm32f4xx_hal_rcc.c 0x00000000   Number         0  stm32f4xx_hal_rcc.o ABSOLUTE
    ..\Drivers\STM32F4xx_HAL_Driver\Src\stm32f4xx_hal_rcc_ex.c 0x00000000   Number         0  stm32f4xx_hal_rcc_ex.o ABSOLUTE
    ..\Drivers\STM32F4xx_HAL_Driver\Src\stm32f4xx_hal_spi.c 0x00000000   Number         0  stm32f4xx_hal_spi.o ABSOLUTE
    ..\Drivers\STM32F4xx_HAL_Driver\Src\stm32f4xx_hal_tim.c 0x00000000   Number         0  stm32f4xx_hal_tim.o ABSOLUTE
    ..\Drivers\STM32F4xx_HAL_Driver\Src\stm32f4xx_hal_tim_ex.c 0x00000000   Number         0  stm32f4xx_hal_tim_ex.o ABSOLUTE
    ..\Drivers\STM32F4xx_HAL_Driver\Src\stm32f4xx_hal_uart.c 0x00000000   Number         0  stm32f4xx_hal_uart.o ABSOLUTE
    ..\Sources\NRF24L01.c                    0x00000000   Number         0  nrf24l01.o ABSOLUTE
    ..\Sources\SPL06_001.c                   0x00000000   Number         0  spl06_001.o ABSOLUTE
    ..\Sources\uart.c                        0x00000000   Number         0  uart.o ABSOLUTE
    ..\\Sources\\NRF24L01.c                  0x00000000   Number         0  nrf24l01.o ABSOLUTE
    ..\\Sources\\SPL06_001.c                 0x00000000   Number         0  spl06_001.o ABSOLUTE
    ..\\Sources\\uart.c                      0x00000000   Number         0  uart.o ABSOLUTE
    dc.s                                     0x00000000   Number         0  dc.o ABSOLUTE
    handlers.s                               0x00000000   Number         0  handlers.o ABSOLUTE
    init.s                                   0x00000000   Number         0  init.o ABSOLUTE
    startup_stm32f401xc.s                    0x00000000   Number         0  startup_stm32f401xc.o ABSOLUTE
    RESET                                    0x08000000   Section      404  startup_stm32f401xc.o(RESET)
    .ARM.Collect$$$$00000000                 0x08000194   Section        0  entry.o(.ARM.Collect$$$$00000000)
    .ARM.Collect$$$$00000001                 0x08000194   Section        4  entry2.o(.ARM.Collect$$$$00000001)
    .ARM.Collect$$$$00000004                 0x08000198   Section        4  entry5.o(.ARM.Collect$$$$00000004)
    .ARM.Collect$$$$00000008                 0x0800019c   Section        0  entry7b.o(.ARM.Collect$$$$00000008)
    .ARM.Collect$$$$0000000A                 0x0800019c   Section        0  entry8b.o(.ARM.Collect$$$$0000000A)
    .ARM.Collect$$$$0000000B                 0x0800019c   Section        8  entry9a.o(.ARM.Collect$$$$0000000B)
    .ARM.Collect$$$$0000000E                 0x080001a4   Section        4  entry12b.o(.ARM.Collect$$$$0000000E)
    .ARM.Collect$$$$0000000F                 0x080001a8   Section        0  entry10a.o(.ARM.Collect$$$$0000000F)
    .ARM.Collect$$$$00000011                 0x080001a8   Section        0  entry11a.o(.ARM.Collect$$$$00000011)
    .ARM.Collect$$$$00002712                 0x080001a8   Section        4  entry2.o(.ARM.Collect$$$$00002712)
    __lit__00000000                          0x080001a8   Data           4  entry2.o(.ARM.Collect$$$$00002712)
    .text                                    0x080001ac   Section       36  startup_stm32f401xc.o(.text)
    $v0                                      0x080001ac   Number         0  startup_stm32f401xc.o(.text)
    .text                                    0x080001d0   Section        0  uldiv.o(.text)
    .text                                    0x08000232   Section        0  memseta.o(.text)
    .text                                    0x08000256   Section        0  dadd.o(.text)
    .text                                    0x080003a4   Section        0  dmul.o(.text)
    .text                                    0x08000488   Section        0  dflti.o(.text)
    .text                                    0x080004aa   Section        0  f2d.o(.text)
    .text                                    0x080004d0   Section        0  d2f.o(.text)
    .text                                    0x08000508   Section        0  llshl.o(.text)
    .text                                    0x08000526   Section        0  llushr.o(.text)
    .text                                    0x08000546   Section        0  llsshr.o(.text)
    .text                                    0x0800056a   Section        0  fepilogue.o(.text)
    .text                                    0x0800056a   Section        0  iusefp.o(.text)
    .text                                    0x080005d8   Section        0  depilogue.o(.text)
    .text                                    0x08000694   Section       36  init.o(.text)
    i.BusFault_Handler                       0x080006b8   Section        0  stm32f4xx_it.o(i.BusFault_Handler)
    i.DebugMon_Handler                       0x080006ba   Section        0  stm32f4xx_it.o(i.DebugMon_Handler)
    i.EXTI9_5_IRQHandler                     0x080006bc   Section        0  stm32f4xx_it.o(i.EXTI9_5_IRQHandler)
    i.HAL_Delay                              0x080006c4   Section        0  stm32f4xx_hal.o(i.HAL_Delay)
    i.HAL_GPIO_EXTI_Callback                 0x080006e8   Section        0  main.o(i.HAL_GPIO_EXTI_Callback)
    i.HAL_GPIO_EXTI_IRQHandler               0x08000724   Section        0  stm32f4xx_hal_gpio.o(i.HAL_GPIO_EXTI_IRQHandler)
    i.HAL_GPIO_Init                          0x0800073c   Section        0  stm32f4xx_hal_gpio.o(i.HAL_GPIO_Init)
    i.HAL_GPIO_TogglePin                     0x08000918   Section        0  stm32f4xx_hal_gpio.o(i.HAL_GPIO_TogglePin)
    i.HAL_GPIO_WritePin                      0x08000928   Section        0  stm32f4xx_hal_gpio.o(i.HAL_GPIO_WritePin)
    i.HAL_GetTick                            0x08000934   Section        0  stm32f4xx_hal.o(i.HAL_GetTick)
    i.HAL_I2C_Init                           0x08000940   Section        0  stm32f4xx_hal_i2c.o(i.HAL_I2C_Init)
    i.HAL_I2C_Mem_Read                       0x08000ac8   Section        0  stm32f4xx_hal_i2c.o(i.HAL_I2C_Mem_Read)
    i.HAL_I2C_Mem_Write                      0x08000cc0   Section        0  stm32f4xx_hal_i2c.o(i.HAL_I2C_Mem_Write)
    i.HAL_I2C_MspInit                        0x08000df0   Section        0  stm32f4xx_hal_msp.o(i.HAL_I2C_MspInit)
    i.HAL_IncTick                            0x08000e58   Section        0  stm32f4xx_hal.o(i.HAL_IncTick)
    i.HAL_Init                               0x08000e68   Section        0  stm32f4xx_hal.o(i.HAL_Init)
    i.HAL_InitTick                           0x08000e9c   Section        0  stm32f4xx_hal.o(i.HAL_InitTick)
    i.HAL_MspInit                            0x08000edc   Section        0  stm32f4xx_hal_msp.o(i.HAL_MspInit)
    i.HAL_NVIC_DisableIRQ                    0x08000f0c   Section        0  stm32f4xx_hal_cortex.o(i.HAL_NVIC_DisableIRQ)
    i.HAL_NVIC_EnableIRQ                     0x08000f2e   Section        0  stm32f4xx_hal_cortex.o(i.HAL_NVIC_EnableIRQ)
    i.HAL_NVIC_SetPriority                   0x08000f48   Section        0  stm32f4xx_hal_cortex.o(i.HAL_NVIC_SetPriority)
    i.HAL_NVIC_SetPriorityGrouping           0x08000f88   Section        0  stm32f4xx_hal_cortex.o(i.HAL_NVIC_SetPriorityGrouping)
    i.HAL_RCC_ClockConfig                    0x08000fac   Section        0  stm32f4xx_hal_rcc.o(i.HAL_RCC_ClockConfig)
    i.HAL_RCC_GetPCLK1Freq                   0x080010e0   Section        0  stm32f4xx_hal_rcc.o(i.HAL_RCC_GetPCLK1Freq)
    i.HAL_RCC_GetPCLK2Freq                   0x08001100   Section        0  stm32f4xx_hal_rcc.o(i.HAL_RCC_GetPCLK2Freq)
    i.HAL_RCC_GetSysClockFreq                0x08001120   Section        0  stm32f4xx_hal_rcc.o(i.HAL_RCC_GetSysClockFreq)
    i.HAL_RCC_OscConfig                      0x08001184   Section        0  stm32f4xx_hal_rcc.o(i.HAL_RCC_OscConfig)
    i.HAL_SPI_Init                           0x080014f0   Section        0  stm32f4xx_hal_spi.o(i.HAL_SPI_Init)
    i.HAL_SPI_MspInit                        0x080015ac   Section        0  stm32f4xx_hal_msp.o(i.HAL_SPI_MspInit)
    i.HAL_SPI_TransmitReceive                0x08001618   Section        0  stm32f4xx_hal_spi.o(i.HAL_SPI_TransmitReceive)
    i.HAL_SYSTICK_Config                     0x080017fa   Section        0  stm32f4xx_hal_cortex.o(i.HAL_SYSTICK_Config)
    i.HAL_TIMEx_BreakCallback                0x08001822   Section        0  stm32f4xx_hal_tim_ex.o(i.HAL_TIMEx_BreakCallback)
    i.HAL_TIMEx_CommutCallback               0x08001824   Section        0  stm32f4xx_hal_tim_ex.o(i.HAL_TIMEx_CommutCallback)
    i.HAL_TIMEx_MasterConfigSynchronization  0x08001828   Section        0  stm32f4xx_hal_tim_ex.o(i.HAL_TIMEx_MasterConfigSynchronization)
    i.HAL_TIM_Base_Init                      0x080018a4   Section        0  stm32f4xx_hal_tim.o(i.HAL_TIM_Base_Init)
    i.HAL_TIM_Base_MspInit                   0x08001900   Section        0  stm32f4xx_hal_msp.o(i.HAL_TIM_Base_MspInit)
    i.HAL_TIM_ConfigClockSource              0x08001974   Section        0  stm32f4xx_hal_tim.o(i.HAL_TIM_ConfigClockSource)
    i.HAL_TIM_IC_CaptureCallback             0x08001a4c   Section        0  main.o(i.HAL_TIM_IC_CaptureCallback)
    i.HAL_TIM_IC_ConfigChannel               0x08001ab0   Section        0  stm32f4xx_hal_tim.o(i.HAL_TIM_IC_ConfigChannel)
    i.HAL_TIM_IC_Init                        0x08001bbe   Section        0  stm32f4xx_hal_tim.o(i.HAL_TIM_IC_Init)
    i.HAL_TIM_IC_MspInit                     0x08001c18   Section        0  stm32f4xx_hal_tim.o(i.HAL_TIM_IC_MspInit)
    i.HAL_TIM_IC_Start_IT                    0x08001c1c   Section        0  stm32f4xx_hal_tim.o(i.HAL_TIM_IC_Start_IT)
    i.HAL_TIM_IRQHandler                     0x08001d10   Section        0  stm32f4xx_hal_tim.o(i.HAL_TIM_IRQHandler)
    i.HAL_TIM_MspPostInit                    0x08001e78   Section        0  stm32f4xx_hal_msp.o(i.HAL_TIM_MspPostInit)
    i.HAL_TIM_OC_DelayElapsedCallback        0x08001ec8   Section        0  stm32f4xx_hal_tim.o(i.HAL_TIM_OC_DelayElapsedCallback)
    i.HAL_TIM_PWM_ConfigChannel              0x08001eca   Section        0  stm32f4xx_hal_tim.o(i.HAL_TIM_PWM_ConfigChannel)
    i.HAL_TIM_PWM_Init                       0x08001f90   Section        0  stm32f4xx_hal_tim.o(i.HAL_TIM_PWM_Init)
    i.HAL_TIM_PWM_MspInit                    0x08001fea   Section        0  stm32f4xx_hal_tim.o(i.HAL_TIM_PWM_MspInit)
    i.HAL_TIM_PWM_PulseFinishedCallback      0x08001fec   Section        0  stm32f4xx_hal_tim.o(i.HAL_TIM_PWM_PulseFinishedCallback)
    i.HAL_TIM_PWM_Start                      0x08001ff0   Section        0  stm32f4xx_hal_tim.o(i.HAL_TIM_PWM_Start)
    i.HAL_TIM_PeriodElapsedCallback          0x080020a0   Section        0  stm32f4xx_hal_tim.o(i.HAL_TIM_PeriodElapsedCallback)
    i.HAL_TIM_TriggerCallback                0x080020a2   Section        0  stm32f4xx_hal_tim.o(i.HAL_TIM_TriggerCallback)
    i.HAL_UART_Init                          0x080020a4   Section        0  stm32f4xx_hal_uart.o(i.HAL_UART_Init)
    i.HAL_UART_MspInit                       0x08002108   Section        0  stm32f4xx_hal_msp.o(i.HAL_UART_MspInit)
    i.HardFault_Handler                      0x08002184   Section        0  stm32f4xx_it.o(i.HardFault_Handler)
    i.I2C_IsAcknowledgeFailed                0x08002186   Section        0  stm32f4xx_hal_i2c.o(i.I2C_IsAcknowledgeFailed)
    I2C_IsAcknowledgeFailed                  0x08002187   Thumb Code    46  stm32f4xx_hal_i2c.o(i.I2C_IsAcknowledgeFailed)
    i.I2C_RequestMemoryRead                  0x080021b4   Section        0  stm32f4xx_hal_i2c.o(i.I2C_RequestMemoryRead)
    I2C_RequestMemoryRead                    0x080021b5   Thumb Code   246  stm32f4xx_hal_i2c.o(i.I2C_RequestMemoryRead)
    i.I2C_RequestMemoryWrite                 0x080022b0   Section        0  stm32f4xx_hal_i2c.o(i.I2C_RequestMemoryWrite)
    I2C_RequestMemoryWrite                   0x080022b1   Thumb Code   162  stm32f4xx_hal_i2c.o(i.I2C_RequestMemoryWrite)
    i.I2C_WaitOnBTFFlagUntilTimeout          0x08002358   Section        0  stm32f4xx_hal_i2c.o(i.I2C_WaitOnBTFFlagUntilTimeout)
    I2C_WaitOnBTFFlagUntilTimeout            0x08002359   Thumb Code    76  stm32f4xx_hal_i2c.o(i.I2C_WaitOnBTFFlagUntilTimeout)
    i.I2C_WaitOnFlagUntilTimeout             0x080023a4   Section        0  stm32f4xx_hal_i2c.o(i.I2C_WaitOnFlagUntilTimeout)
    I2C_WaitOnFlagUntilTimeout               0x080023a5   Thumb Code   104  stm32f4xx_hal_i2c.o(i.I2C_WaitOnFlagUntilTimeout)
    i.I2C_WaitOnMasterAddressFlagUntilTimeout 0x0800240c   Section        0  stm32f4xx_hal_i2c.o(i.I2C_WaitOnMasterAddressFlagUntilTimeout)
    I2C_WaitOnMasterAddressFlagUntilTimeout  0x0800240d   Thumb Code   150  stm32f4xx_hal_i2c.o(i.I2C_WaitOnMasterAddressFlagUntilTimeout)
    i.I2C_WaitOnRXNEFlagUntilTimeout         0x080024a2   Section        0  stm32f4xx_hal_i2c.o(i.I2C_WaitOnRXNEFlagUntilTimeout)
    I2C_WaitOnRXNEFlagUntilTimeout           0x080024a3   Thumb Code   102  stm32f4xx_hal_i2c.o(i.I2C_WaitOnRXNEFlagUntilTimeout)
    i.I2C_WaitOnTXEFlagUntilTimeout          0x08002508   Section        0  stm32f4xx_hal_i2c.o(i.I2C_WaitOnTXEFlagUntilTimeout)
    I2C_WaitOnTXEFlagUntilTimeout            0x08002509   Thumb Code    76  stm32f4xx_hal_i2c.o(i.I2C_WaitOnTXEFlagUntilTimeout)
    i.MX_GPIO_Init                           0x08002554   Section        0  main.o(i.MX_GPIO_Init)
    MX_GPIO_Init                             0x08002555   Thumb Code   194  main.o(i.MX_GPIO_Init)
    i.MX_SPI2_Init                           0x0800262c   Section        0  main.o(i.MX_SPI2_Init)
    MX_SPI2_Init                             0x0800262d   Thumb Code    58  main.o(i.MX_SPI2_Init)
    i.MX_TIM2_Init                           0x08002670   Section        0  main.o(i.MX_TIM2_Init)
    MX_TIM2_Init                             0x08002671   Thumb Code   198  main.o(i.MX_TIM2_Init)
    i.MemManage_Handler                      0x0800273c   Section        0  stm32f4xx_it.o(i.MemManage_Handler)
    i.NMI_Handler                            0x0800273e   Section        0  stm32f4xx_it.o(i.NMI_Handler)
    i.NRF24L01_Check                         0x08002740   Section        0  nrf24l01.o(i.NRF24L01_Check)
    i.NRF24L01_Read_Buf                      0x08002788   Section        0  nrf24l01.o(i.NRF24L01_Read_Buf)
    i.NRF24L01_Read_Reg                      0x080027d4   Section        0  nrf24l01.o(i.NRF24L01_Read_Reg)
    i.NRF24L01_RxPacket                      0x08002808   Section        0  nrf24l01.o(i.NRF24L01_RxPacket)
    i.NRF24L01_TxPacket                      0x08002848   Section        0  nrf24l01.o(i.NRF24L01_TxPacket)
    i.NRF24L01_Write_Buf                     0x080028c4   Section        0  nrf24l01.o(i.NRF24L01_Write_Buf)
    i.NRF24L01_Write_Reg                     0x08002910   Section        0  nrf24l01.o(i.NRF24L01_Write_Reg)
    i.PendSV_Handler                         0x0800294c   Section        0  stm32f4xx_it.o(i.PendSV_Handler)
    i.RX_Mode                                0x08002950   Section        0  nrf24l01.o(i.RX_Mode)
    i.SPI_EndRxTxTransaction                 0x080029cc   Section        0  stm32f4xx_hal_spi.o(i.SPI_EndRxTxTransaction)
    SPI_EndRxTxTransaction                   0x080029cd   Thumb Code    80  stm32f4xx_hal_spi.o(i.SPI_EndRxTxTransaction)
    i.SPI_WaitFlagStateUntilTimeout          0x08002a24   Section        0  stm32f4xx_hal_spi.o(i.SPI_WaitFlagStateUntilTimeout)
    SPI_WaitFlagStateUntilTimeout            0x08002a25   Thumb Code   180  stm32f4xx_hal_spi.o(i.SPI_WaitFlagStateUntilTimeout)
    i.SPIx_ReadWriteByte                     0x08002adc   Section        0  nrf24l01.o(i.SPIx_ReadWriteByte)
    i.SVC_Handler                            0x08002afc   Section        0  stm32f4xx_it.o(i.SVC_Handler)
    i.SysTick_Handler                        0x08002b00   Section        0  stm32f4xx_it.o(i.SysTick_Handler)
    i.SystemClock_Config                     0x08002b30   Section        0  main.o(i.SystemClock_Config)
    i.SystemInit                             0x08002bc4   Section        0  system_stm32f4xx.o(i.SystemInit)
    i.TIM2_IRQHandler                        0x08002bd4   Section        0  stm32f4xx_it.o(i.TIM2_IRQHandler)
    i.TIM_Base_SetConfig                     0x08002be0   Section        0  stm32f4xx_hal_tim.o(i.TIM_Base_SetConfig)
    i.TIM_CCxChannelCmd                      0x08002c78   Section        0  stm32f4xx_hal_tim.o(i.TIM_CCxChannelCmd)
    i.TIM_ETR_SetConfig                      0x08002c92   Section        0  stm32f4xx_hal_tim.o(i.TIM_ETR_SetConfig)
    i.TIM_ITRx_SetConfig                     0x08002ca6   Section        0  stm32f4xx_hal_tim.o(i.TIM_ITRx_SetConfig)
    TIM_ITRx_SetConfig                       0x08002ca7   Thumb Code    16  stm32f4xx_hal_tim.o(i.TIM_ITRx_SetConfig)
    i.TIM_OC1_SetConfig                      0x08002cb8   Section        0  stm32f4xx_hal_tim.o(i.TIM_OC1_SetConfig)
    TIM_OC1_SetConfig                        0x08002cb9   Thumb Code    74  stm32f4xx_hal_tim.o(i.TIM_OC1_SetConfig)
    i.TIM_OC2_SetConfig                      0x08002d08   Section        0  stm32f4xx_hal_tim.o(i.TIM_OC2_SetConfig)
    i.TIM_OC3_SetConfig                      0x08002d60   Section        0  stm32f4xx_hal_tim.o(i.TIM_OC3_SetConfig)
    TIM_OC3_SetConfig                        0x08002d61   Thumb Code    82  stm32f4xx_hal_tim.o(i.TIM_OC3_SetConfig)
    i.TIM_OC4_SetConfig                      0x08002db8   Section        0  stm32f4xx_hal_tim.o(i.TIM_OC4_SetConfig)
    TIM_OC4_SetConfig                        0x08002db9   Thumb Code    64  stm32f4xx_hal_tim.o(i.TIM_OC4_SetConfig)
    i.TIM_TI1_ConfigInputStage               0x08002dfc   Section        0  stm32f4xx_hal_tim.o(i.TIM_TI1_ConfigInputStage)
    TIM_TI1_ConfigInputStage                 0x08002dfd   Thumb Code    34  stm32f4xx_hal_tim.o(i.TIM_TI1_ConfigInputStage)
    i.TIM_TI1_SetConfig                      0x08002e20   Section        0  stm32f4xx_hal_tim.o(i.TIM_TI1_SetConfig)
    i.TIM_TI2_ConfigInputStage               0x08002e8c   Section        0  stm32f4xx_hal_tim.o(i.TIM_TI2_ConfigInputStage)
    TIM_TI2_ConfigInputStage                 0x08002e8d   Thumb Code    36  stm32f4xx_hal_tim.o(i.TIM_TI2_ConfigInputStage)
    i.TIM_TI2_SetConfig                      0x08002eb0   Section        0  stm32f4xx_hal_tim.o(i.TIM_TI2_SetConfig)
    TIM_TI2_SetConfig                        0x08002eb1   Thumb Code    54  stm32f4xx_hal_tim.o(i.TIM_TI2_SetConfig)
    i.TX_Mode                                0x08002ee8   Section        0  nrf24l01.o(i.TX_Mode)
    i.UART_SetConfig                         0x08002f70   Section        0  stm32f4xx_hal_uart.o(i.UART_SetConfig)
    UART_SetConfig                           0x08002f71   Thumb Code   258  stm32f4xx_hal_uart.o(i.UART_SetConfig)
    i.USART6_IRQHandler                      0x0800307c   Section        0  stm32f4xx_it.o(i.USART6_IRQHandler)
    i.UsageFault_Handler                     0x080030cc   Section        0  stm32f4xx_it.o(i.UsageFault_Handler)
    i.__NVIC_SetPriority                     0x080030ce   Section        0  stm32f4xx_hal_cortex.o(i.__NVIC_SetPriority)
    __NVIC_SetPriority                       0x080030cf   Thumb Code    32  stm32f4xx_hal_cortex.o(i.__NVIC_SetPriority)
    i.__scatterload_copy                     0x080030ee   Section       14  handlers.o(i.__scatterload_copy)
    i.__scatterload_null                     0x080030fc   Section        2  handlers.o(i.__scatterload_null)
    i.__scatterload_zeroinit                 0x080030fe   Section       14  handlers.o(i.__scatterload_zeroinit)
    i.main                                   0x0800310c   Section        0  main.o(i.main)
    i.send_char                              0x080032f0   Section        0  uart.o(i.send_char)
    i.send_char_array                        0x080032fc   Section        0  uart.o(i.send_char_array)
    i.send_float                             0x0800331c   Section        0  uart.o(i.send_float)
    i.send_int                               0x08003392   Section        0  uart.o(i.send_int)
    i.send_str                               0x080033ea   Section        0  uart.o(i.send_str)
    i.spl0601_get_calib_param                0x08003404   Section        0  spl06_001.o(i.spl0601_get_calib_param)
    i.spl0601_get_pressure                   0x0800353c   Section        0  spl06_001.o(i.spl0601_get_pressure)
    i.spl0601_get_raw_pressure               0x080035dc   Section        0  spl06_001.o(i.spl0601_get_raw_pressure)
    i.spl0601_get_raw_temp                   0x08003618   Section        0  spl06_001.o(i.spl0601_get_raw_temp)
    i.spl0601_get_temperature                0x08003654   Section        0  spl06_001.o(i.spl0601_get_temperature)
    i.spl0601_init                           0x080036c8   Section        0  spl06_001.o(i.spl0601_init)
    i.spl0601_read                           0x08003738   Section        0  spl06_001.o(i.spl0601_read)
    i.spl0601_write                          0x0800375c   Section        0  spl06_001.o(i.spl0601_write)
    i.spl06_get_chip_id                      0x0800377c   Section        0  spl06_001.o(i.spl06_get_chip_id)
    i.spl06_get_measure_status               0x08003784   Section        0  spl06_001.o(i.spl06_get_measure_status)
    i.spl06_pressure_rate_config             0x0800378c   Section        0  spl06_001.o(i.spl06_pressure_rate_config)
    i.spl06_set_measure_mode                 0x08003804   Section        0  spl06_001.o(i.spl06_set_measure_mode)
    i.spl06_temperature_rate_config          0x08003810   Section        0  spl06_001.o(i.spl06_temperature_rate_config)
    i.user_spl0601_get_presure               0x0800388c   Section        0  spl06_001.o(i.user_spl0601_get_presure)
    i.user_spl0601_get_temperature           0x0800389a   Section        0  spl06_001.o(i.user_spl0601_get_temperature)
    .constdata                               0x080038a8   Section       16  system_stm32f4xx.o(.constdata)
    .constdata                               0x080038b8   Section        8  system_stm32f4xx.o(.constdata)
    .constdata                               0x080038c0   Section       10  nrf24l01.o(.constdata)
    .data                                    0x20000000   Section       16  main.o(.data)
    .data                                    0x20000010   Section        4  stm32f4xx_it.o(.data)
    .data                                    0x20000014   Section       12  stm32f4xx_hal.o(.data)
    .data                                    0x20000020   Section        4  system_stm32f4xx.o(.data)
    .bss                                     0x20000024   Section      345  main.o(.bss)
    .bss                                     0x20000180   Section       44  spl06_001.o(.bss)
    spl06_calib_param                        0x20000180   Data          24  spl06_001.o(.bss)
    STACK                                    0x200001b0   Section     1024  startup_stm32f401xc.o(STACK)

    Global Symbols

    Symbol Name                              Value     Ov Type        Size  Object(Section)

    BuildAttributes$$THM_ISAv4$E$P$D$K$B$S$7EM$VFPi3$EXTD16$VFPS$VFMA$PE$A:L22UL41UL21$X:L11$S22US41US21$IEEE1$IW$USESV6$~STKCKD$USESV7$~SHL$OTIME$ROPI$EBA8$MICROLIB$REQ8$PRES8$EABIv2 0x00000000   Number         0  anon$$obj.o ABSOLUTE
    __ARM_use_no_argv                        0x00000000   Number         0  main.o ABSOLUTE
    __arm_fini_                               - Undefined Weak Reference
    __cpp_initialize__aeabi_                  - Undefined Weak Reference
    __cxa_finalize                            - Undefined Weak Reference
    __decompress                              - Undefined Weak Reference
    _clock_init                               - Undefined Weak Reference
    _microlib_exit                            - Undefined Weak Reference
    __Vectors_Size                           0x00000194   Number         0  startup_stm32f401xc.o ABSOLUTE
    __Vectors                                0x08000000   Data           4  startup_stm32f401xc.o(RESET)
    __Vectors_End                            0x08000194   Data           0  startup_stm32f401xc.o(RESET)
    __main                                   0x08000195   Thumb Code     0  entry.o(.ARM.Collect$$$$00000000)
    _main_stk                                0x08000195   Thumb Code     0  entry2.o(.ARM.Collect$$$$00000001)
    _main_scatterload                        0x08000199   Thumb Code     0  entry5.o(.ARM.Collect$$$$00000004)
    __main_after_scatterload                 0x0800019d   Thumb Code     0  entry5.o(.ARM.Collect$$$$00000004)
    _main_clock                              0x0800019d   Thumb Code     0  entry7b.o(.ARM.Collect$$$$00000008)
    _main_cpp_init                           0x0800019d   Thumb Code     0  entry8b.o(.ARM.Collect$$$$0000000A)
    _main_init                               0x0800019d   Thumb Code     0  entry9a.o(.ARM.Collect$$$$0000000B)
    __rt_lib_shutdown_fini                   0x080001a5   Thumb Code     0  entry12b.o(.ARM.Collect$$$$0000000E)
    __rt_final_cpp                           0x080001a9   Thumb Code     0  entry10a.o(.ARM.Collect$$$$0000000F)
    __rt_final_exit                          0x080001a9   Thumb Code     0  entry11a.o(.ARM.Collect$$$$00000011)
    Reset_Handler                            0x080001ad   Thumb Code     8  startup_stm32f401xc.o(.text)
    ADC_IRQHandler                           0x080001c7   Thumb Code     0  startup_stm32f401xc.o(.text)
    DMA1_Stream0_IRQHandler                  0x080001c7   Thumb Code     0  startup_stm32f401xc.o(.text)
    DMA1_Stream1_IRQHandler                  0x080001c7   Thumb Code     0  startup_stm32f401xc.o(.text)
    DMA1_Stream2_IRQHandler                  0x080001c7   Thumb Code     0  startup_stm32f401xc.o(.text)
    DMA1_Stream3_IRQHandler                  0x080001c7   Thumb Code     0  startup_stm32f401xc.o(.text)
    DMA1_Stream4_IRQHandler                  0x080001c7   Thumb Code     0  startup_stm32f401xc.o(.text)
    DMA1_Stream5_IRQHandler                  0x080001c7   Thumb Code     0  startup_stm32f401xc.o(.text)
    DMA1_Stream6_IRQHandler                  0x080001c7   Thumb Code     0  startup_stm32f401xc.o(.text)
    DMA1_Stream7_IRQHandler                  0x080001c7   Thumb Code     0  startup_stm32f401xc.o(.text)
    DMA2_Stream0_IRQHandler                  0x080001c7   Thumb Code     0  startup_stm32f401xc.o(.text)
    DMA2_Stream1_IRQHandler                  0x080001c7   Thumb Code     0  startup_stm32f401xc.o(.text)
    DMA2_Stream2_IRQHandler                  0x080001c7   Thumb Code     0  startup_stm32f401xc.o(.text)
    DMA2_Stream3_IRQHandler                  0x080001c7   Thumb Code     0  startup_stm32f401xc.o(.text)
    DMA2_Stream4_IRQHandler                  0x080001c7   Thumb Code     0  startup_stm32f401xc.o(.text)
    DMA2_Stream5_IRQHandler                  0x080001c7   Thumb Code     0  startup_stm32f401xc.o(.text)
    DMA2_Stream6_IRQHandler                  0x080001c7   Thumb Code     0  startup_stm32f401xc.o(.text)
    DMA2_Stream7_IRQHandler                  0x080001c7   Thumb Code     0  startup_stm32f401xc.o(.text)
    EXTI0_IRQHandler                         0x080001c7   Thumb Code     0  startup_stm32f401xc.o(.text)
    EXTI15_10_IRQHandler                     0x080001c7   Thumb Code     0  startup_stm32f401xc.o(.text)
    EXTI1_IRQHandler                         0x080001c7   Thumb Code     0  startup_stm32f401xc.o(.text)
    EXTI2_IRQHandler                         0x080001c7   Thumb Code     0  startup_stm32f401xc.o(.text)
    EXTI3_IRQHandler                         0x080001c7   Thumb Code     0  startup_stm32f401xc.o(.text)
    EXTI4_IRQHandler                         0x080001c7   Thumb Code     0  startup_stm32f401xc.o(.text)
    FLASH_IRQHandler                         0x080001c7   Thumb Code     0  startup_stm32f401xc.o(.text)
    FPU_IRQHandler                           0x080001c7   Thumb Code     0  startup_stm32f401xc.o(.text)
    I2C1_ER_IRQHandler                       0x080001c7   Thumb Code     0  startup_stm32f401xc.o(.text)
    I2C1_EV_IRQHandler                       0x080001c7   Thumb Code     0  startup_stm32f401xc.o(.text)
    I2C2_ER_IRQHandler                       0x080001c7   Thumb Code     0  startup_stm32f401xc.o(.text)
    I2C2_EV_IRQHandler                       0x080001c7   Thumb Code     0  startup_stm32f401xc.o(.text)
    I2C3_ER_IRQHandler                       0x080001c7   Thumb Code     0  startup_stm32f401xc.o(.text)
    I2C3_EV_IRQHandler                       0x080001c7   Thumb Code     0  startup_stm32f401xc.o(.text)
    OTG_FS_IRQHandler                        0x080001c7   Thumb Code     0  startup_stm32f401xc.o(.text)
    OTG_FS_WKUP_IRQHandler                   0x080001c7   Thumb Code     0  startup_stm32f401xc.o(.text)
    PVD_IRQHandler                           0x080001c7   Thumb Code     0  startup_stm32f401xc.o(.text)
    RCC_IRQHandler                           0x080001c7   Thumb Code     0  startup_stm32f401xc.o(.text)
    RTC_Alarm_IRQHandler                     0x080001c7   Thumb Code     0  startup_stm32f401xc.o(.text)
    RTC_WKUP_IRQHandler                      0x080001c7   Thumb Code     0  startup_stm32f401xc.o(.text)
    SDIO_IRQHandler                          0x080001c7   Thumb Code     0  startup_stm32f401xc.o(.text)
    SPI1_IRQHandler                          0x080001c7   Thumb Code     0  startup_stm32f401xc.o(.text)
    SPI2_IRQHandler                          0x080001c7   Thumb Code     0  startup_stm32f401xc.o(.text)
    SPI3_IRQHandler                          0x080001c7   Thumb Code     0  startup_stm32f401xc.o(.text)
    SPI4_IRQHandler                          0x080001c7   Thumb Code     0  startup_stm32f401xc.o(.text)
    TAMP_STAMP_IRQHandler                    0x080001c7   Thumb Code     0  startup_stm32f401xc.o(.text)
    TIM1_BRK_TIM9_IRQHandler                 0x080001c7   Thumb Code     0  startup_stm32f401xc.o(.text)
    TIM1_CC_IRQHandler                       0x080001c7   Thumb Code     0  startup_stm32f401xc.o(.text)
    TIM1_TRG_COM_TIM11_IRQHandler            0x080001c7   Thumb Code     0  startup_stm32f401xc.o(.text)
    TIM1_UP_TIM10_IRQHandler                 0x080001c7   Thumb Code     0  startup_stm32f401xc.o(.text)
    TIM3_IRQHandler                          0x080001c7   Thumb Code     0  startup_stm32f401xc.o(.text)
    TIM4_IRQHandler                          0x080001c7   Thumb Code     0  startup_stm32f401xc.o(.text)
    TIM5_IRQHandler                          0x080001c7   Thumb Code     0  startup_stm32f401xc.o(.text)
    USART1_IRQHandler                        0x080001c7   Thumb Code     0  startup_stm32f401xc.o(.text)
    USART2_IRQHandler                        0x080001c7   Thumb Code     0  startup_stm32f401xc.o(.text)
    WWDG_IRQHandler                          0x080001c7   Thumb Code     0  startup_stm32f401xc.o(.text)
    __aeabi_uldivmod                         0x080001d1   Thumb Code    98  uldiv.o(.text)
    __aeabi_memset                           0x08000233   Thumb Code    14  memseta.o(.text)
    __aeabi_memset4                          0x08000233   Thumb Code     0  memseta.o(.text)
    __aeabi_memset8                          0x08000233   Thumb Code     0  memseta.o(.text)
    __aeabi_memclr                           0x08000241   Thumb Code     4  memseta.o(.text)
    __aeabi_memclr4                          0x08000241   Thumb Code     0  memseta.o(.text)
    __aeabi_memclr8                          0x08000241   Thumb Code     0  memseta.o(.text)
    _memset$wrapper                          0x08000245   Thumb Code    18  memseta.o(.text)
    __aeabi_dadd                             0x08000257   Thumb Code   322  dadd.o(.text)
    __aeabi_dsub                             0x08000399   Thumb Code     6  dadd.o(.text)
    __aeabi_drsub                            0x0800039f   Thumb Code     6  dadd.o(.text)
    __aeabi_dmul                             0x080003a5   Thumb Code   228  dmul.o(.text)
    __aeabi_i2d                              0x08000489   Thumb Code    34  dflti.o(.text)
    __aeabi_f2d                              0x080004ab   Thumb Code    38  f2d.o(.text)
    __aeabi_d2f                              0x080004d1   Thumb Code    56  d2f.o(.text)
    __aeabi_llsl                             0x08000509   Thumb Code    30  llshl.o(.text)
    _ll_shift_l                              0x08000509   Thumb Code     0  llshl.o(.text)
    __aeabi_llsr                             0x08000527   Thumb Code    32  llushr.o(.text)
    _ll_ushift_r                             0x08000527   Thumb Code     0  llushr.o(.text)
    __aeabi_lasr                             0x08000547   Thumb Code    36  llsshr.o(.text)
    _ll_sshift_r                             0x08000547   Thumb Code     0  llsshr.o(.text)
    __I$use$fp                               0x0800056b   Thumb Code     0  iusefp.o(.text)
    _float_round                             0x0800056b   Thumb Code    18  fepilogue.o(.text)
    _float_epilogue                          0x0800057d   Thumb Code    92  fepilogue.o(.text)
    _double_round                            0x080005d9   Thumb Code    30  depilogue.o(.text)
    _double_epilogue                         0x080005f7   Thumb Code   156  depilogue.o(.text)
    __scatterload                            0x08000695   Thumb Code    28  init.o(.text)
    __scatterload_rt2                        0x08000695   Thumb Code     0  init.o(.text)
    BusFault_Handler                         0x080006b9   Thumb Code     2  stm32f4xx_it.o(i.BusFault_Handler)
    DebugMon_Handler                         0x080006bb   Thumb Code     2  stm32f4xx_it.o(i.DebugMon_Handler)
    EXTI9_5_IRQHandler                       0x080006bd   Thumb Code     8  stm32f4xx_it.o(i.EXTI9_5_IRQHandler)
    HAL_Delay                                0x080006c5   Thumb Code    32  stm32f4xx_hal.o(i.HAL_Delay)
    HAL_GPIO_EXTI_Callback                   0x080006e9   Thumb Code    50  main.o(i.HAL_GPIO_EXTI_Callback)
    HAL_GPIO_EXTI_IRQHandler                 0x08000725   Thumb Code    18  stm32f4xx_hal_gpio.o(i.HAL_GPIO_EXTI_IRQHandler)
    HAL_GPIO_Init                            0x0800073d   Thumb Code   444  stm32f4xx_hal_gpio.o(i.HAL_GPIO_Init)
    HAL_GPIO_TogglePin                       0x08000919   Thumb Code    16  stm32f4xx_hal_gpio.o(i.HAL_GPIO_TogglePin)
    HAL_GPIO_WritePin                        0x08000929   Thumb Code    10  stm32f4xx_hal_gpio.o(i.HAL_GPIO_WritePin)
    HAL_GetTick                              0x08000935   Thumb Code     6  stm32f4xx_hal.o(i.HAL_GetTick)
    HAL_I2C_Init                             0x08000941   Thumb Code   376  stm32f4xx_hal_i2c.o(i.HAL_I2C_Init)
    HAL_I2C_Mem_Read                         0x08000ac9   Thumb Code   490  stm32f4xx_hal_i2c.o(i.HAL_I2C_Mem_Read)
    HAL_I2C_Mem_Write                        0x08000cc1   Thumb Code   294  stm32f4xx_hal_i2c.o(i.HAL_I2C_Mem_Write)
    HAL_I2C_MspInit                          0x08000df1   Thumb Code    92  stm32f4xx_hal_msp.o(i.HAL_I2C_MspInit)
    HAL_IncTick                              0x08000e59   Thumb Code    12  stm32f4xx_hal.o(i.HAL_IncTick)
    HAL_Init                                 0x08000e69   Thumb Code    48  stm32f4xx_hal.o(i.HAL_Init)
    HAL_InitTick                             0x08000e9d   Thumb Code    54  stm32f4xx_hal.o(i.HAL_InitTick)
    HAL_MspInit                              0x08000edd   Thumb Code    42  stm32f4xx_hal_msp.o(i.HAL_MspInit)
    HAL_NVIC_DisableIRQ                      0x08000f0d   Thumb Code    34  stm32f4xx_hal_cortex.o(i.HAL_NVIC_DisableIRQ)
    HAL_NVIC_EnableIRQ                       0x08000f2f   Thumb Code    26  stm32f4xx_hal_cortex.o(i.HAL_NVIC_EnableIRQ)
    HAL_NVIC_SetPriority                     0x08000f49   Thumb Code    60  stm32f4xx_hal_cortex.o(i.HAL_NVIC_SetPriority)
    HAL_NVIC_SetPriorityGrouping             0x08000f89   Thumb Code    26  stm32f4xx_hal_cortex.o(i.HAL_NVIC_SetPriorityGrouping)
    HAL_RCC_ClockConfig                      0x08000fad   Thumb Code   288  stm32f4xx_hal_rcc.o(i.HAL_RCC_ClockConfig)
    HAL_RCC_GetPCLK1Freq                     0x080010e1   Thumb Code    20  stm32f4xx_hal_rcc.o(i.HAL_RCC_GetPCLK1Freq)
    HAL_RCC_GetPCLK2Freq                     0x08001101   Thumb Code    20  stm32f4xx_hal_rcc.o(i.HAL_RCC_GetPCLK2Freq)
    HAL_RCC_GetSysClockFreq                  0x08001121   Thumb Code    88  stm32f4xx_hal_rcc.o(i.HAL_RCC_GetSysClockFreq)
    HAL_RCC_OscConfig                        0x08001185   Thumb Code   856  stm32f4xx_hal_rcc.o(i.HAL_RCC_OscConfig)
    HAL_SPI_Init                             0x080014f1   Thumb Code   188  stm32f4xx_hal_spi.o(i.HAL_SPI_Init)
    HAL_SPI_MspInit                          0x080015ad   Thumb Code    94  stm32f4xx_hal_msp.o(i.HAL_SPI_MspInit)
    HAL_SPI_TransmitReceive                  0x08001619   Thumb Code   482  stm32f4xx_hal_spi.o(i.HAL_SPI_TransmitReceive)
    HAL_SYSTICK_Config                       0x080017fb   Thumb Code    40  stm32f4xx_hal_cortex.o(i.HAL_SYSTICK_Config)
    HAL_TIMEx_BreakCallback                  0x08001823   Thumb Code     2  stm32f4xx_hal_tim_ex.o(i.HAL_TIMEx_BreakCallback)
    HAL_TIMEx_CommutCallback                 0x08001825   Thumb Code     2  stm32f4xx_hal_tim_ex.o(i.HAL_TIMEx_CommutCallback)
    HAL_TIMEx_MasterConfigSynchronization    0x08001829   Thumb Code   104  stm32f4xx_hal_tim_ex.o(i.HAL_TIMEx_MasterConfigSynchronization)
    HAL_TIM_Base_Init                        0x080018a5   Thumb Code    90  stm32f4xx_hal_tim.o(i.HAL_TIM_Base_Init)
    HAL_TIM_Base_MspInit                     0x08001901   Thumb Code   106  stm32f4xx_hal_msp.o(i.HAL_TIM_Base_MspInit)
    HAL_TIM_ConfigClockSource                0x08001975   Thumb Code   214  stm32f4xx_hal_tim.o(i.HAL_TIM_ConfigClockSource)
    HAL_TIM_IC_CaptureCallback               0x08001a4d   Thumb Code    92  main.o(i.HAL_TIM_IC_CaptureCallback)
    HAL_TIM_IC_ConfigChannel                 0x08001ab1   Thumb Code   270  stm32f4xx_hal_tim.o(i.HAL_TIM_IC_ConfigChannel)
    HAL_TIM_IC_Init                          0x08001bbf   Thumb Code    90  stm32f4xx_hal_tim.o(i.HAL_TIM_IC_Init)
    HAL_TIM_IC_MspInit                       0x08001c19   Thumb Code     2  stm32f4xx_hal_tim.o(i.HAL_TIM_IC_MspInit)
    HAL_TIM_IC_Start_IT                      0x08001c1d   Thumb Code   224  stm32f4xx_hal_tim.o(i.HAL_TIM_IC_Start_IT)
    HAL_TIM_IRQHandler                       0x08001d11   Thumb Code   358  stm32f4xx_hal_tim.o(i.HAL_TIM_IRQHandler)
    HAL_TIM_MspPostInit                      0x08001e79   Thumb Code    72  stm32f4xx_hal_msp.o(i.HAL_TIM_MspPostInit)
    HAL_TIM_OC_DelayElapsedCallback          0x08001ec9   Thumb Code     2  stm32f4xx_hal_tim.o(i.HAL_TIM_OC_DelayElapsedCallback)
    HAL_TIM_PWM_ConfigChannel                0x08001ecb   Thumb Code   198  stm32f4xx_hal_tim.o(i.HAL_TIM_PWM_ConfigChannel)
    HAL_TIM_PWM_Init                         0x08001f91   Thumb Code    90  stm32f4xx_hal_tim.o(i.HAL_TIM_PWM_Init)
    HAL_TIM_PWM_MspInit                      0x08001feb   Thumb Code     2  stm32f4xx_hal_tim.o(i.HAL_TIM_PWM_MspInit)
    HAL_TIM_PWM_PulseFinishedCallback        0x08001fed   Thumb Code     2  stm32f4xx_hal_tim.o(i.HAL_TIM_PWM_PulseFinishedCallback)
    HAL_TIM_PWM_Start                        0x08001ff1   Thumb Code   156  stm32f4xx_hal_tim.o(i.HAL_TIM_PWM_Start)
    HAL_TIM_PeriodElapsedCallback            0x080020a1   Thumb Code     2  stm32f4xx_hal_tim.o(i.HAL_TIM_PeriodElapsedCallback)
    HAL_TIM_TriggerCallback                  0x080020a3   Thumb Code     2  stm32f4xx_hal_tim.o(i.HAL_TIM_TriggerCallback)
    HAL_UART_Init                            0x080020a5   Thumb Code    98  stm32f4xx_hal_uart.o(i.HAL_UART_Init)
    HAL_UART_MspInit                         0x08002109   Thumb Code   110  stm32f4xx_hal_msp.o(i.HAL_UART_MspInit)
    HardFault_Handler                        0x08002185   Thumb Code     2  stm32f4xx_it.o(i.HardFault_Handler)
    MemManage_Handler                        0x0800273d   Thumb Code     2  stm32f4xx_it.o(i.MemManage_Handler)
    NMI_Handler                              0x0800273f   Thumb Code     2  stm32f4xx_it.o(i.NMI_Handler)
    NRF24L01_Check                           0x08002741   Thumb Code    64  nrf24l01.o(i.NRF24L01_Check)
    NRF24L01_Read_Buf                        0x08002789   Thumb Code    72  nrf24l01.o(i.NRF24L01_Read_Buf)
    NRF24L01_Read_Reg                        0x080027d5   Thumb Code    48  nrf24l01.o(i.NRF24L01_Read_Reg)
    NRF24L01_RxPacket                        0x08002809   Thumb Code    64  nrf24l01.o(i.NRF24L01_RxPacket)
    NRF24L01_TxPacket                        0x08002849   Thumb Code   118  nrf24l01.o(i.NRF24L01_TxPacket)
    NRF24L01_Write_Buf                       0x080028c5   Thumb Code    72  nrf24l01.o(i.NRF24L01_Write_Buf)
    NRF24L01_Write_Reg                       0x08002911   Thumb Code    54  nrf24l01.o(i.NRF24L01_Write_Reg)
    PendSV_Handler                           0x0800294d   Thumb Code     2  stm32f4xx_it.o(i.PendSV_Handler)
    RX_Mode                                  0x08002951   Thumb Code   114  nrf24l01.o(i.RX_Mode)
    SPIx_ReadWriteByte                       0x08002add   Thumb Code    26  nrf24l01.o(i.SPIx_ReadWriteByte)
    SVC_Handler                              0x08002afd   Thumb Code     2  stm32f4xx_it.o(i.SVC_Handler)
    SysTick_Handler                          0x08002b01   Thumb Code    38  stm32f4xx_it.o(i.SysTick_Handler)
    SystemClock_Config                       0x08002b31   Thumb Code   140  main.o(i.SystemClock_Config)
    SystemInit                               0x08002bc5   Thumb Code    12  system_stm32f4xx.o(i.SystemInit)
    TIM2_IRQHandler                          0x08002bd5   Thumb Code     6  stm32f4xx_it.o(i.TIM2_IRQHandler)
    TIM_Base_SetConfig                       0x08002be1   Thumb Code   122  stm32f4xx_hal_tim.o(i.TIM_Base_SetConfig)
    TIM_CCxChannelCmd                        0x08002c79   Thumb Code    26  stm32f4xx_hal_tim.o(i.TIM_CCxChannelCmd)
    TIM_ETR_SetConfig                        0x08002c93   Thumb Code    20  stm32f4xx_hal_tim.o(i.TIM_ETR_SetConfig)
    TIM_OC2_SetConfig                        0x08002d09   Thumb Code    84  stm32f4xx_hal_tim.o(i.TIM_OC2_SetConfig)
    TIM_TI1_SetConfig                        0x08002e21   Thumb Code    88  stm32f4xx_hal_tim.o(i.TIM_TI1_SetConfig)
    TX_Mode                                  0x08002ee9   Thumb Code   126  nrf24l01.o(i.TX_Mode)
    USART6_IRQHandler                        0x0800307d   Thumb Code    60  stm32f4xx_it.o(i.USART6_IRQHandler)
    UsageFault_Handler                       0x080030cd   Thumb Code     2  stm32f4xx_it.o(i.UsageFault_Handler)
    __scatterload_copy                       0x080030ef   Thumb Code    14  handlers.o(i.__scatterload_copy)
    __scatterload_null                       0x080030fd   Thumb Code     2  handlers.o(i.__scatterload_null)
    __scatterload_zeroinit                   0x080030ff   Thumb Code    14  handlers.o(i.__scatterload_zeroinit)
    main                                     0x0800310d   Thumb Code   406  main.o(i.main)
    send_char                                0x080032f1   Thumb Code    12  uart.o(i.send_char)
    send_char_array                          0x080032fd   Thumb Code    30  uart.o(i.send_char_array)
    send_float                               0x0800331d   Thumb Code   118  uart.o(i.send_float)
    send_int                                 0x08003393   Thumb Code    88  uart.o(i.send_int)
    send_str                                 0x080033eb   Thumb Code    24  uart.o(i.send_str)
    spl0601_get_calib_param                  0x08003405   Thumb Code   302  spl06_001.o(i.spl0601_get_calib_param)
    spl0601_get_pressure                     0x0800353d   Thumb Code   154  spl06_001.o(i.spl0601_get_pressure)
    spl0601_get_raw_pressure                 0x080035dd   Thumb Code    56  spl06_001.o(i.spl0601_get_raw_pressure)
    spl0601_get_raw_temp                     0x08003619   Thumb Code    56  spl06_001.o(i.spl0601_get_raw_temp)
    spl0601_get_temperature                  0x08003655   Thumb Code   102  spl06_001.o(i.spl0601_get_temperature)
    spl0601_init                             0x080036c9   Thumb Code   108  spl06_001.o(i.spl0601_init)
    spl0601_read                             0x08003739   Thumb Code    30  spl06_001.o(i.spl0601_read)
    spl0601_write                            0x0800375d   Thumb Code    28  spl06_001.o(i.spl0601_write)
    spl06_get_chip_id                        0x0800377d   Thumb Code     8  spl06_001.o(i.spl06_get_chip_id)
    spl06_get_measure_status                 0x08003785   Thumb Code     8  spl06_001.o(i.spl06_get_measure_status)
    spl06_pressure_rate_config               0x0800378d   Thumb Code   114  spl06_001.o(i.spl06_pressure_rate_config)
    spl06_set_measure_mode                   0x08003805   Thumb Code    10  spl06_001.o(i.spl06_set_measure_mode)
    spl06_temperature_rate_config            0x08003811   Thumb Code   118  spl06_001.o(i.spl06_temperature_rate_config)
    user_spl0601_get_presure                 0x0800388d   Thumb Code    14  spl06_001.o(i.user_spl0601_get_presure)
    user_spl0601_get_temperature             0x0800389b   Thumb Code    14  spl06_001.o(i.user_spl0601_get_temperature)
    AHBPrescTable                            0x080038a8   Data          16  system_stm32f4xx.o(.constdata)
    APBPrescTable                            0x080038b8   Data           8  system_stm32f4xx.o(.constdata)
    TX_ADDRESS                               0x080038c0   Data           5  nrf24l01.o(.constdata)
    RX_ADDRESS                               0x080038c5   Data           5  nrf24l01.o(.constdata)
    Region$$Table$$Base                      0x080038cc   Number         0  anon$$obj.o(Region$$Table)
    Region$$Table$$Limit                     0x080038ec   Number         0  anon$$obj.o(Region$$Table)
    nrf2401_tx_flag                          0x20000000   Data           1  main.o(.data)
    txbuf_pos                                0x20000001   Data           1  main.o(.data)
    distance                                 0x20000002   Data           2  main.o(.data)
    t2_cnt1                                  0x20000004   Data           4  main.o(.data)
    high_time                                0x20000008   Data           4  main.o(.data)
    t2_cnt2                                  0x2000000c   Data           4  main.o(.data)
    tick_start                               0x20000010   Data           4  stm32f4xx_it.o(.data)
    uwTickFreq                               0x20000014   Data           1  stm32f4xx_hal.o(.data)
    uwTickPrio                               0x20000018   Data           4  stm32f4xx_hal.o(.data)
    uwTick                                   0x2000001c   Data           4  stm32f4xx_hal.o(.data)
    SystemCoreClock                          0x20000020   Data           4  system_stm32f4xx.o(.data)
    hi2c1                                    0x20000024   Data          84  main.o(.bss)
    hspi2                                    0x20000078   Data          88  main.o(.bss)
    htim2                                    0x200000d0   Data          72  main.o(.bss)
    huart6                                   0x20000118   Data          68  main.o(.bss)
    nrf2401_txbuf                            0x2000015c   Data          33  main.o(.bss)
    spl06                                    0x20000198   Data          20  spl06_001.o(.bss)
    __initial_sp                             0x200005b0   Data           0  startup_stm32f401xc.o(STACK)



==============================================================================

Memory Map of the image

  Image Entry point : 0x08000195

  Load Region LR_IROM1 (Base: 0x08000000, Size: 0x00003910, Max: 0x00040000, ABSOLUTE)

    Execution Region ER_IROM1 (Exec base: 0x08000000, Load base: 0x08000000, Size: 0x000038ec, Max: 0x00040000, ABSOLUTE)

    Exec Addr    Load Addr    Size         Type   Attr      Idx    E Section Name        Object

    0x08000000   0x08000000   0x00000194   Data   RO            3    RESET               startup_stm32f401xc.o
    0x08000194   0x08000194   0x00000000   Code   RO         4006  * .ARM.Collect$$$$00000000  mc_w.l(entry.o)
    0x08000194   0x08000194   0x00000004   Code   RO         4023    .ARM.Collect$$$$00000001  mc_w.l(entry2.o)
    0x08000198   0x08000198   0x00000004   Code   RO         4026    .ARM.Collect$$$$00000004  mc_w.l(entry5.o)
    0x0800019c   0x0800019c   0x00000000   Code   RO         4028    .ARM.Collect$$$$00000008  mc_w.l(entry7b.o)
    0x0800019c   0x0800019c   0x00000000   Code   RO         4030    .ARM.Collect$$$$0000000A  mc_w.l(entry8b.o)
    0x0800019c   0x0800019c   0x00000008   Code   RO         4031    .ARM.Collect$$$$0000000B  mc_w.l(entry9a.o)
    0x080001a4   0x080001a4   0x00000004   Code   RO         4038    .ARM.Collect$$$$0000000E  mc_w.l(entry12b.o)
    0x080001a8   0x080001a8   0x00000000   Code   RO         4033    .ARM.Collect$$$$0000000F  mc_w.l(entry10a.o)
    0x080001a8   0x080001a8   0x00000000   Code   RO         4035    .ARM.Collect$$$$00000011  mc_w.l(entry11a.o)
    0x080001a8   0x080001a8   0x00000004   Code   RO         4024    .ARM.Collect$$$$00002712  mc_w.l(entry2.o)
    0x080001ac   0x080001ac   0x00000024   Code   RO            4    .text               startup_stm32f401xc.o
    0x080001d0   0x080001d0   0x00000062   Code   RO         4009    .text               mc_w.l(uldiv.o)
    0x08000232   0x08000232   0x00000024   Code   RO         4011    .text               mc_w.l(memseta.o)
    0x08000256   0x08000256   0x0000014e   Code   RO         4013    .text               mf_w.l(dadd.o)
    0x080003a4   0x080003a4   0x000000e4   Code   RO         4015    .text               mf_w.l(dmul.o)
    0x08000488   0x08000488   0x00000022   Code   RO         4017    .text               mf_w.l(dflti.o)
    0x080004aa   0x080004aa   0x00000026   Code   RO         4019    .text               mf_w.l(f2d.o)
    0x080004d0   0x080004d0   0x00000038   Code   RO         4021    .text               mf_w.l(d2f.o)
    0x08000508   0x08000508   0x0000001e   Code   RO         4039    .text               mc_w.l(llshl.o)
    0x08000526   0x08000526   0x00000020   Code   RO         4041    .text               mc_w.l(llushr.o)
    0x08000546   0x08000546   0x00000024   Code   RO         4043    .text               mc_w.l(llsshr.o)
    0x0800056a   0x0800056a   0x00000000   Code   RO         4045    .text               mc_w.l(iusefp.o)
    0x0800056a   0x0800056a   0x0000006e   Code   RO         4046    .text               mf_w.l(fepilogue.o)
    0x080005d8   0x080005d8   0x000000ba   Code   RO         4048    .text               mf_w.l(depilogue.o)
    0x08000692   0x08000692   0x00000002   PAD
    0x08000694   0x08000694   0x00000024   Code   RO         4050    .text               mc_w.l(init.o)
    0x080006b8   0x080006b8   0x00000002   Code   RO          195    i.BusFault_Handler  stm32f4xx_it.o
    0x080006ba   0x080006ba   0x00000002   Code   RO          196    i.DebugMon_Handler  stm32f4xx_it.o
    0x080006bc   0x080006bc   0x00000008   Code   RO          197    i.EXTI9_5_IRQHandler  stm32f4xx_it.o
    0x080006c4   0x080006c4   0x00000024   Code   RO         1757    i.HAL_Delay         stm32f4xx_hal.o
    0x080006e8   0x080006e8   0x0000003c   Code   RO           14    i.HAL_GPIO_EXTI_Callback  main.o
    0x08000724   0x08000724   0x00000018   Code   RO         1206    i.HAL_GPIO_EXTI_IRQHandler  stm32f4xx_hal_gpio.o
    0x0800073c   0x0800073c   0x000001dc   Code   RO         1207    i.HAL_GPIO_Init     stm32f4xx_hal_gpio.o
    0x08000918   0x08000918   0x00000010   Code   RO         1210    i.HAL_GPIO_TogglePin  stm32f4xx_hal_gpio.o
    0x08000928   0x08000928   0x0000000a   Code   RO         1211    i.HAL_GPIO_WritePin  stm32f4xx_hal_gpio.o
    0x08000932   0x08000932   0x00000002   PAD
    0x08000934   0x08000934   0x0000000c   Code   RO         1763    i.HAL_GetTick       stm32f4xx_hal.o
    0x08000940   0x08000940   0x00000188   Code   RO          382    i.HAL_I2C_Init      stm32f4xx_hal_i2c.o
    0x08000ac8   0x08000ac8   0x000001f8   Code   RO          400    i.HAL_I2C_Mem_Read  stm32f4xx_hal_i2c.o
    0x08000cc0   0x08000cc0   0x00000130   Code   RO          403    i.HAL_I2C_Mem_Write  stm32f4xx_hal_i2c.o
    0x08000df0   0x08000df0   0x00000068   Code   RO          294    i.HAL_I2C_MspInit   stm32f4xx_hal_msp.o
    0x08000e58   0x08000e58   0x00000010   Code   RO         1769    i.HAL_IncTick       stm32f4xx_hal.o
    0x08000e68   0x08000e68   0x00000034   Code   RO         1770    i.HAL_Init          stm32f4xx_hal.o
    0x08000e9c   0x08000e9c   0x00000040   Code   RO         1771    i.HAL_InitTick      stm32f4xx_hal.o
    0x08000edc   0x08000edc   0x00000030   Code   RO          295    i.HAL_MspInit       stm32f4xx_hal_msp.o
    0x08000f0c   0x08000f0c   0x00000022   Code   RO         1619    i.HAL_NVIC_DisableIRQ  stm32f4xx_hal_cortex.o
    0x08000f2e   0x08000f2e   0x0000001a   Code   RO         1620    i.HAL_NVIC_EnableIRQ  stm32f4xx_hal_cortex.o
    0x08000f48   0x08000f48   0x00000040   Code   RO         1626    i.HAL_NVIC_SetPriority  stm32f4xx_hal_cortex.o
    0x08000f88   0x08000f88   0x00000024   Code   RO         1627    i.HAL_NVIC_SetPriorityGrouping  stm32f4xx_hal_cortex.o
    0x08000fac   0x08000fac   0x00000134   Code   RO          829    i.HAL_RCC_ClockConfig  stm32f4xx_hal_rcc.o
    0x080010e0   0x080010e0   0x00000020   Code   RO          836    i.HAL_RCC_GetPCLK1Freq  stm32f4xx_hal_rcc.o
    0x08001100   0x08001100   0x00000020   Code   RO          837    i.HAL_RCC_GetPCLK2Freq  stm32f4xx_hal_rcc.o
    0x08001120   0x08001120   0x00000064   Code   RO          838    i.HAL_RCC_GetSysClockFreq  stm32f4xx_hal_rcc.o
    0x08001184   0x08001184   0x0000036c   Code   RO          841    i.HAL_RCC_OscConfig  stm32f4xx_hal_rcc.o
    0x080014f0   0x080014f0   0x000000bc   Code   RO         2019    i.HAL_SPI_Init      stm32f4xx_hal_spi.o
    0x080015ac   0x080015ac   0x0000006c   Code   RO          297    i.HAL_SPI_MspInit   stm32f4xx_hal_msp.o
    0x08001618   0x08001618   0x000001e2   Code   RO         2028    i.HAL_SPI_TransmitReceive  stm32f4xx_hal_spi.o
    0x080017fa   0x080017fa   0x00000028   Code   RO         1631    i.HAL_SYSTICK_Config  stm32f4xx_hal_cortex.o
    0x08001822   0x08001822   0x00000002   Code   RO         3036    i.HAL_TIMEx_BreakCallback  stm32f4xx_hal_tim_ex.o
    0x08001824   0x08001824   0x00000002   Code   RO         3037    i.HAL_TIMEx_CommutCallback  stm32f4xx_hal_tim_ex.o
    0x08001826   0x08001826   0x00000002   PAD
    0x08001828   0x08001828   0x0000007c   Code   RO         3055    i.HAL_TIMEx_MasterConfigSynchronization  stm32f4xx_hal_tim_ex.o
    0x080018a4   0x080018a4   0x0000005a   Code   RO         2332    i.HAL_TIM_Base_Init  stm32f4xx_hal_tim.o
    0x080018fe   0x080018fe   0x00000002   PAD
    0x08001900   0x08001900   0x00000074   Code   RO          299    i.HAL_TIM_Base_MspInit  stm32f4xx_hal_msp.o
    0x08001974   0x08001974   0x000000d6   Code   RO         2341    i.HAL_TIM_ConfigClockSource  stm32f4xx_hal_tim.o
    0x08001a4a   0x08001a4a   0x00000002   PAD
    0x08001a4c   0x08001a4c   0x00000064   Code   RO           15    i.HAL_TIM_IC_CaptureCallback  main.o
    0x08001ab0   0x08001ab0   0x0000010e   Code   RO         2368    i.HAL_TIM_IC_ConfigChannel  stm32f4xx_hal_tim.o
    0x08001bbe   0x08001bbe   0x0000005a   Code   RO         2371    i.HAL_TIM_IC_Init   stm32f4xx_hal_tim.o
    0x08001c18   0x08001c18   0x00000002   Code   RO         2373    i.HAL_TIM_IC_MspInit  stm32f4xx_hal_tim.o
    0x08001c1a   0x08001c1a   0x00000002   PAD
    0x08001c1c   0x08001c1c   0x000000f4   Code   RO         2376    i.HAL_TIM_IC_Start_IT  stm32f4xx_hal_tim.o
    0x08001d10   0x08001d10   0x00000166   Code   RO         2380    i.HAL_TIM_IRQHandler  stm32f4xx_hal_tim.o
    0x08001e76   0x08001e76   0x00000002   PAD
    0x08001e78   0x08001e78   0x00000050   Code   RO          300    i.HAL_TIM_MspPostInit  stm32f4xx_hal_msp.o
    0x08001ec8   0x08001ec8   0x00000002   Code   RO         2383    i.HAL_TIM_OC_DelayElapsedCallback  stm32f4xx_hal_tim.o
    0x08001eca   0x08001eca   0x000000c6   Code   RO         2404    i.HAL_TIM_PWM_ConfigChannel  stm32f4xx_hal_tim.o
    0x08001f90   0x08001f90   0x0000005a   Code   RO         2407    i.HAL_TIM_PWM_Init  stm32f4xx_hal_tim.o
    0x08001fea   0x08001fea   0x00000002   Code   RO         2409    i.HAL_TIM_PWM_MspInit  stm32f4xx_hal_tim.o
    0x08001fec   0x08001fec   0x00000002   Code   RO         2410    i.HAL_TIM_PWM_PulseFinishedCallback  stm32f4xx_hal_tim.o
    0x08001fee   0x08001fee   0x00000002   PAD
    0x08001ff0   0x08001ff0   0x000000b0   Code   RO         2412    i.HAL_TIM_PWM_Start  stm32f4xx_hal_tim.o
    0x080020a0   0x080020a0   0x00000002   Code   RO         2418    i.HAL_TIM_PeriodElapsedCallback  stm32f4xx_hal_tim.o
    0x080020a2   0x080020a2   0x00000002   Code   RO         2423    i.HAL_TIM_TriggerCallback  stm32f4xx_hal_tim.o
    0x080020a4   0x080020a4   0x00000062   Code   RO         3332    i.HAL_UART_Init     stm32f4xx_hal_uart.o
    0x08002106   0x08002106   0x00000002   PAD
    0x08002108   0x08002108   0x0000007c   Code   RO          302    i.HAL_UART_MspInit  stm32f4xx_hal_msp.o
    0x08002184   0x08002184   0x00000002   Code   RO          198    i.HardFault_Handler  stm32f4xx_it.o
    0x08002186   0x08002186   0x0000002e   Code   RO          424    i.I2C_IsAcknowledgeFailed  stm32f4xx_hal_i2c.o
    0x080021b4   0x080021b4   0x000000fc   Code   RO          434    i.I2C_RequestMemoryRead  stm32f4xx_hal_i2c.o
    0x080022b0   0x080022b0   0x000000a8   Code   RO          435    i.I2C_RequestMemoryWrite  stm32f4xx_hal_i2c.o
    0x08002358   0x08002358   0x0000004c   Code   RO          438    i.I2C_WaitOnBTFFlagUntilTimeout  stm32f4xx_hal_i2c.o
    0x080023a4   0x080023a4   0x00000068   Code   RO          439    i.I2C_WaitOnFlagUntilTimeout  stm32f4xx_hal_i2c.o
    0x0800240c   0x0800240c   0x00000096   Code   RO          440    i.I2C_WaitOnMasterAddressFlagUntilTimeout  stm32f4xx_hal_i2c.o
    0x080024a2   0x080024a2   0x00000066   Code   RO          441    i.I2C_WaitOnRXNEFlagUntilTimeout  stm32f4xx_hal_i2c.o
    0x08002508   0x08002508   0x0000004c   Code   RO          442    i.I2C_WaitOnTXEFlagUntilTimeout  stm32f4xx_hal_i2c.o
    0x08002554   0x08002554   0x000000d8   Code   RO           16    i.MX_GPIO_Init      main.o
    0x0800262c   0x0800262c   0x00000044   Code   RO           17    i.MX_SPI2_Init      main.o
    0x08002670   0x08002670   0x000000cc   Code   RO           18    i.MX_TIM2_Init      main.o
    0x0800273c   0x0800273c   0x00000002   Code   RO          199    i.MemManage_Handler  stm32f4xx_it.o
    0x0800273e   0x0800273e   0x00000002   Code   RO          200    i.NMI_Handler       stm32f4xx_it.o
    0x08002740   0x08002740   0x00000048   Code   RO         3698    i.NRF24L01_Check    nrf24l01.o
    0x08002788   0x08002788   0x0000004c   Code   RO         3699    i.NRF24L01_Read_Buf  nrf24l01.o
    0x080027d4   0x080027d4   0x00000034   Code   RO         3700    i.NRF24L01_Read_Reg  nrf24l01.o
    0x08002808   0x08002808   0x00000040   Code   RO         3701    i.NRF24L01_RxPacket  nrf24l01.o
    0x08002848   0x08002848   0x0000007c   Code   RO         3702    i.NRF24L01_TxPacket  nrf24l01.o
    0x080028c4   0x080028c4   0x0000004c   Code   RO         3703    i.NRF24L01_Write_Buf  nrf24l01.o
    0x08002910   0x08002910   0x0000003c   Code   RO         3704    i.NRF24L01_Write_Reg  nrf24l01.o
    0x0800294c   0x0800294c   0x00000002   Code   RO          201    i.PendSV_Handler    stm32f4xx_it.o
    0x0800294e   0x0800294e   0x00000002   PAD
    0x08002950   0x08002950   0x0000007c   Code   RO         3706    i.RX_Mode           nrf24l01.o
    0x080029cc   0x080029cc   0x00000058   Code   RO         2057    i.SPI_EndRxTxTransaction  stm32f4xx_hal_spi.o
    0x08002a24   0x08002a24   0x000000b8   Code   RO         2062    i.SPI_WaitFlagStateUntilTimeout  stm32f4xx_hal_spi.o
    0x08002adc   0x08002adc   0x00000020   Code   RO         3707    i.SPIx_ReadWriteByte  nrf24l01.o
    0x08002afc   0x08002afc   0x00000002   Code   RO          202    i.SVC_Handler       stm32f4xx_it.o
    0x08002afe   0x08002afe   0x00000002   PAD
    0x08002b00   0x08002b00   0x00000030   Code   RO          203    i.SysTick_Handler   stm32f4xx_it.o
    0x08002b30   0x08002b30   0x00000094   Code   RO           19    i.SystemClock_Config  main.o
    0x08002bc4   0x08002bc4   0x00000010   Code   RO         3661    i.SystemInit        system_stm32f4xx.o
    0x08002bd4   0x08002bd4   0x0000000c   Code   RO          204    i.TIM2_IRQHandler   stm32f4xx_it.o
    0x08002be0   0x08002be0   0x00000098   Code   RO         2425    i.TIM_Base_SetConfig  stm32f4xx_hal_tim.o
    0x08002c78   0x08002c78   0x0000001a   Code   RO         2426    i.TIM_CCxChannelCmd  stm32f4xx_hal_tim.o
    0x08002c92   0x08002c92   0x00000014   Code   RO         2436    i.TIM_ETR_SetConfig  stm32f4xx_hal_tim.o
    0x08002ca6   0x08002ca6   0x00000010   Code   RO         2437    i.TIM_ITRx_SetConfig  stm32f4xx_hal_tim.o
    0x08002cb6   0x08002cb6   0x00000002   PAD
    0x08002cb8   0x08002cb8   0x00000050   Code   RO         2438    i.TIM_OC1_SetConfig  stm32f4xx_hal_tim.o
    0x08002d08   0x08002d08   0x00000058   Code   RO         2439    i.TIM_OC2_SetConfig  stm32f4xx_hal_tim.o
    0x08002d60   0x08002d60   0x00000058   Code   RO         2440    i.TIM_OC3_SetConfig  stm32f4xx_hal_tim.o
    0x08002db8   0x08002db8   0x00000044   Code   RO         2441    i.TIM_OC4_SetConfig  stm32f4xx_hal_tim.o
    0x08002dfc   0x08002dfc   0x00000022   Code   RO         2443    i.TIM_TI1_ConfigInputStage  stm32f4xx_hal_tim.o
    0x08002e1e   0x08002e1e   0x00000002   PAD
    0x08002e20   0x08002e20   0x0000006c   Code   RO         2444    i.TIM_TI1_SetConfig  stm32f4xx_hal_tim.o
    0x08002e8c   0x08002e8c   0x00000024   Code   RO         2445    i.TIM_TI2_ConfigInputStage  stm32f4xx_hal_tim.o
    0x08002eb0   0x08002eb0   0x00000036   Code   RO         2446    i.TIM_TI2_SetConfig  stm32f4xx_hal_tim.o
    0x08002ee6   0x08002ee6   0x00000002   PAD
    0x08002ee8   0x08002ee8   0x00000088   Code   RO         3709    i.TX_Mode           nrf24l01.o
    0x08002f70   0x08002f70   0x0000010c   Code   RO         3358    i.UART_SetConfig    stm32f4xx_hal_uart.o
    0x0800307c   0x0800307c   0x00000050   Code   RO          205    i.USART6_IRQHandler  stm32f4xx_it.o
    0x080030cc   0x080030cc   0x00000002   Code   RO          206    i.UsageFault_Handler  stm32f4xx_it.o
    0x080030ce   0x080030ce   0x00000020   Code   RO         1633    i.__NVIC_SetPriority  stm32f4xx_hal_cortex.o
    0x080030ee   0x080030ee   0x0000000e   Code   RO         4054    i.__scatterload_copy  mc_w.l(handlers.o)
    0x080030fc   0x080030fc   0x00000002   Code   RO         4055    i.__scatterload_null  mc_w.l(handlers.o)
    0x080030fe   0x080030fe   0x0000000e   Code   RO         4056    i.__scatterload_zeroinit  mc_w.l(handlers.o)
    0x0800310c   0x0800310c   0x000001e4   Code   RO           20    i.main              main.o
    0x080032f0   0x080032f0   0x0000000c   Code   RO         3792    i.send_char         uart.o
    0x080032fc   0x080032fc   0x0000001e   Code   RO         3793    i.send_char_array   uart.o
    0x0800331a   0x0800331a   0x00000002   PAD
    0x0800331c   0x0800331c   0x00000076   Code   RO         3794    i.send_float        uart.o
    0x08003392   0x08003392   0x00000058   Code   RO         3795    i.send_int          uart.o
    0x080033ea   0x080033ea   0x00000018   Code   RO         3796    i.send_str          uart.o
    0x08003402   0x08003402   0x00000002   PAD
    0x08003404   0x08003404   0x00000138   Code   RO         3842    i.spl0601_get_calib_param  spl06_001.o
    0x0800353c   0x0800353c   0x000000a0   Code   RO         3843    i.spl0601_get_pressure  spl06_001.o
    0x080035dc   0x080035dc   0x0000003c   Code   RO         3844    i.spl0601_get_raw_pressure  spl06_001.o
    0x08003618   0x08003618   0x0000003c   Code   RO         3845    i.spl0601_get_raw_temp  spl06_001.o
    0x08003654   0x08003654   0x00000074   Code   RO         3846    i.spl0601_get_temperature  spl06_001.o
    0x080036c8   0x080036c8   0x00000070   Code   RO         3847    i.spl0601_init      spl06_001.o
    0x08003738   0x08003738   0x00000024   Code   RO         3848    i.spl0601_read      spl06_001.o
    0x0800375c   0x0800375c   0x00000020   Code   RO         3849    i.spl0601_write     spl06_001.o
    0x0800377c   0x0800377c   0x00000008   Code   RO         3851    i.spl06_get_chip_id  spl06_001.o
    0x08003784   0x08003784   0x00000008   Code   RO         3854    i.spl06_get_measure_status  spl06_001.o
    0x0800378c   0x0800378c   0x00000078   Code   RO         3855    i.spl06_pressure_rate_config  spl06_001.o
    0x08003804   0x08003804   0x0000000a   Code   RO         3859    i.spl06_set_measure_mode  spl06_001.o
    0x0800380e   0x0800380e   0x00000002   PAD
    0x08003810   0x08003810   0x0000007c   Code   RO         3864    i.spl06_temperature_rate_config  spl06_001.o
    0x0800388c   0x0800388c   0x0000000e   Code   RO         3865    i.user_spl0601_get_presure  spl06_001.o
    0x0800389a   0x0800389a   0x0000000e   Code   RO         3866    i.user_spl0601_get_temperature  spl06_001.o
    0x080038a8   0x080038a8   0x00000010   Data   RO         3662    .constdata          system_stm32f4xx.o
    0x080038b8   0x080038b8   0x00000008   Data   RO         3663    .constdata          system_stm32f4xx.o
    0x080038c0   0x080038c0   0x0000000a   Data   RO         3710    .constdata          nrf24l01.o
    0x080038ca   0x080038ca   0x00000002   PAD
    0x080038cc   0x080038cc   0x00000020   Data   RO         4052    Region$$Table       anon$$obj.o


    Execution Region RW_IRAM1 (Exec base: 0x20000000, Load base: 0x080038ec, Size: 0x000005b0, Max: 0x00010000, ABSOLUTE)

    Exec Addr    Load Addr    Size         Type   Attr      Idx    E Section Name        Object

    0x20000000   0x080038ec   0x00000010   Data   RW           22    .data               main.o
    0x20000010   0x080038fc   0x00000004   Data   RW          208    .data               stm32f4xx_it.o
    0x20000014   0x08003900   0x0000000c   Data   RW         1777    .data               stm32f4xx_hal.o
    0x20000020   0x0800390c   0x00000004   Data   RW         3664    .data               system_stm32f4xx.o
    0x20000024        -       0x00000159   Zero   RW           21    .bss                main.o
    0x2000017d   0x08003910   0x00000003   PAD
    0x20000180        -       0x0000002c   Zero   RW         3867    .bss                spl06_001.o
    0x200001ac   0x08003910   0x00000004   PAD
    0x200001b0        -       0x00000400   Zero   RW            1    STACK               startup_stm32f401xc.o


==============================================================================

Image component sizes


      Code (inc. data)   RO Data    RW Data    ZI Data      Debug   Object Name

      1280        142          0         16        345     436636   main.o
       816         58         10          0          0       7746   nrf24l01.o
      1186         80          0          0         44      12200   spl06_001.o
        36          8        404          0       1024        876   startup_stm32f401xc.o
       180         28          0         12          0       9601   stm32f4xx_hal.o
       232         14          0          0          0      34941   stm32f4xx_hal_cortex.o
       526         38          0          0          0       3648   stm32f4xx_hal_gpio.o
      2174         52          0          0          0      13434   stm32f4xx_hal_i2c.o
       580         64          0          0          0       4770   stm32f4xx_hal_msp.o
      1348         76          0          0          0       5492   stm32f4xx_hal_rcc.o
       942         12          0          0          0       5121   stm32f4xx_hal_spi.o
      2512        110          0          0          0      22017   stm32f4xx_hal_tim.o
       128         20          0          0          0       2625   stm32f4xx_hal_tim_ex.o
       366         10          0          0          0       2112   stm32f4xx_hal_uart.o
       164         36          0          4          0       6550   stm32f4xx_it.o
        16          4         24          4          0       1255   system_stm32f4xx.o
       272          0          0          0          0       3783   uart.o

    ----------------------------------------------------------------------
     12790        752        472         36       1420     572807   Object Totals
         0          0         32          0          0          0   (incl. Generated)
        32          0          2          0          7          0   (incl. Padding)

    ----------------------------------------------------------------------

      Code (inc. data)   RO Data    RW Data    ZI Data      Debug   Library Member Name

         0          0          0          0          0          0   entry.o
         0          0          0          0          0          0   entry10a.o
         0          0          0          0          0          0   entry11a.o
         4          0          0          0          0          0   entry12b.o
         8          4          0          0          0          0   entry2.o
         4          0          0          0          0          0   entry5.o
         0          0          0          0          0          0   entry7b.o
         0          0          0          0          0          0   entry8b.o
         8          4          0          0          0          0   entry9a.o
        30          0          0          0          0          0   handlers.o
        36          8          0          0          0         68   init.o
         0          0          0          0          0          0   iusefp.o
        30          0          0          0          0         68   llshl.o
        36          0          0          0          0         68   llsshr.o
        32          0          0          0          0         68   llushr.o
        36          0          0          0          0        108   memseta.o
        98          0          0          0          0         92   uldiv.o
        56          0          0          0          0         88   d2f.o
       334          0          0          0          0        148   dadd.o
       186          0          0          0          0        176   depilogue.o
        34          0          0          0          0         76   dflti.o
       228          0          0          0          0         96   dmul.o
        38          0          0          0          0         68   f2d.o
       110          0          0          0          0        168   fepilogue.o

    ----------------------------------------------------------------------
      1310         16          0          0          0       1292   Library Totals
         2          0          0          0          0          0   (incl. Padding)

    ----------------------------------------------------------------------

      Code (inc. data)   RO Data    RW Data    ZI Data      Debug   Library Name

       322         16          0          0          0        472   mc_w.l
       986          0          0          0          0        820   mf_w.l

    ----------------------------------------------------------------------
      1310         16          0          0          0       1292   Library Totals

    ----------------------------------------------------------------------

==============================================================================


      Code (inc. data)   RO Data    RW Data    ZI Data      Debug   

     14100        768        472         36       1420     562383   Grand Totals
     14100        768        472         36       1420     562383   ELF Image Totals
     14100        768        472         36          0          0   ROM Totals

==============================================================================

    Total RO  Size (Code + RO Data)                14572 (  14.23kB)
    Total RW  Size (RW Data + ZI Data)              1456 (   1.42kB)
    Total ROM Size (Code + RO Data + RW Data)      14608 (  14.27kB)

==============================================================================

