:020000040800F2
:10000000B0050020AD0100083F2700088521000849
:100010003D270008B9060008CD30000800000000A8
:10002000000000000000000000000000FD2A0008A1
:10003000BB060008000000004D290008012B000845
:10004000C7010008C7010008C7010008C701000870
:10005000C7010008C7010008C7010008C701000860
:10006000C7010008C7010008C7010008C701000850
:10007000C7010008C7010008C7010008C701000840
:10008000C7010008C7010008C70100080000000000
:10009000000000000000000000000000BD06000895
:1000A000C7010008C7010008C7010008C701000810
:1000B000D52B0008C7010008C7010008C7010008C8
:1000C000C7010008C7010008C7010008C7010008F0
:1000D000C7010008C7010008C701000800000000B0
:1000E000C7010008C7010008C701000800000000A0
:1000F000000000000000000000000000C701000830
:1001000000000000C7010008C7010008C70100087F
:1001100000000000000000000000000000000000DF
:10012000C7010008C7010008C7010008C70100088F
:10013000C7010008000000000000000000000000EF
:10014000000000000000000000000000C7010008DF
:10015000C7010008C7010008C70100087D3000087A
:10016000C7010008C70100080000000000000000EF
:10017000000000000000000000000000000000007F
:1001800000000000C701000800000000000000009F
:10019000C7010008DFF810D000F07CFA00480047E3
:1001A0000D310008AFF30080B005002006488047FD
:1001B00006480047FEE7FEE7FEE7FEE7FEE7FEE74C
:1001C000FEE7FEE7FEE7FEE7C52B00089501000805
:1001D0002DE9F05F0546002092469B46884606467C
:1001E000814640241BE0284641464746224600F00F
:1001F0009AF953465A46C01A914110D311461846EF
:10020000224600F081F92D1A67EB01084F4622467D
:100210000120002100F078F917EB00094E41201E63
:10022000A4F10104DFDC484631462A464346BDE8D6
:10023000F09FD2B201E000F8012B491EFBD27047BB
:100240000022F6E710B513460A4604461946FFF7A2
:10025000F0FF204610BD2DE9FE4F804681EA0300E5
:10026000C00F0C46009021F0004123F00045B8EB90
:100270000200A94105D24046214690461C460B4645
:10028000024623F00040104347D0270DC7F30A0071
:10029000C3F30A510290401A019040286BDAC3F36D
:1002A000130040F4801B0098924620B10023D2EB4B
:1002B000030A63EB0B0B01985946C0F1400250460C
:1002C00000F022F906460D4650465946019A00F0C4
:1002D0003AF910EB08006141002487EA115284EAE0
:1002E000E7731A4340D0009A62B3019A012A4FEA99
:1002F000075215DC001B61EB02014FF0004202EADD
:100300000752CDE90042001C41F5801132462B46D0
:1003100000F071F903B0BDE8F08F40462146F9E7DF
:10032000001B61EB0201001C41F5801300185B41CA
:100330002018A2F5001747EB030140EAD570B61963
:100340006D4111E06D084FEA360645EAC0754FEA87
:100350000752001B61EB0201001C41F580114908A6
:100360004FEA30000019514132462B4603B0BDE838
:10037000F04F00F031B90098012240000023D0EB8B
:10038000020263EBE073009821464FEAE074B8EB99
:10039000000061EB0401E9E783F000435BE781F0D3
:1003A000004158E72DE9FE4F81EA030404F00044C0
:1003B00021F0004100944FF0000B23F0004350EA7D
:1003C00001045ED052EA03045BD0C3F30A54C1F3C4
:1003D0000A552C44A4F2F3340194A0FB0254C1F357
:1003E000130141F48011C3F3130343F4801301FBA1
:1003F000024400FB034E840A970A44EA815447EA08
:100400008357A4FB076802958D0A05FB07854FEA11
:10041000932C04FB0C542705029D4FEA065847EA2B
:100420001637B5EB08056EEB070C870E920E47EA00
:10043000811742EA8312A7FB0201B6EB0B0164EBC2
:1004400000042B0D43EA0C335E1844EB1C50DA46D3
:100450005146E7FB0201C5F313044FEA0B3343EAAD
:1004600014534FEA0432019C43EA0603A4F10C043E
:100470000294009CCDE900B400F0BDF803B0BDE8E3
:10048000F08F00200146F9E70EB5C10F80EAE07059
:100490000844CA07002140F233438DE80E000A46A3
:1004A0000B4600F0A8F803B000BD00F0004230F0A9
:1004B00000400AD0C10D01F56071C0F3160042EA98
:1004C0000151C208400711437047002001467047A0
:1004D00001F0004330B421F0004150EA010206D09F
:1004E0000A0DA2F56072C1F31301002A02DC30BCD0
:1004F00000207047440F44EAC104C100E01830BC3A
:1005000000EBC25000F031B8202A04DB203A00FA98
:1005100002F1002070479140C2F1200320FA03F35A
:10052000194390407047202A04DB203A21FA02F058
:100530000021704721FA02F3D040C2F1200291401D
:10054000084319467047202A06DBCB17203A41FAA8
:1005500002F043EAE07306E041FA02F3D040C2F150
:10056000200291400843194670470029A8BF7047F0
:10057000401C490008BF20F00100704710B4B0FAD9
:1005800080FC00FA0CF050EA010404BF10BC704774
:1005900049B1CCF1200421FA04F411FA0CF118BF8E
:1005A000012121430843A3EB0C01CB1D4FEA00615D
:1005B0004FEA102042BF002010BC704700EBC35030
:1005C00010440029A4BF10BC7047401C490008BF5C
:1005D00020F0010010BC704710B5141E73F1000428
:1005E00008DA401C41F1000192185B411A4301D125
:1005F00020F0010010BD2DE9F04D92469B4611B14F
:10060000B1FA81F202E0B0FA80F220329046FFF7B0
:100610007BFF04460F4640EA0A0041EA0B015346BD
:100620005A46084313D0114653EA010019D0C8F1C5
:1006300040025046FFF777FF05460E4650465946A2
:100640004246FFF761FF084305D0012004E0204641
:100650003946BDE8F08D0020054346EAE0762C439C
:1006600037430A986305E40AA0EB08000022FD0A5C
:1006700044EA47540A3002D500200146E9E7010563
:1006800010196941DDE9084500196941BDE8F04DDF
:10069000A2E70000064C074D06E0E06840F00103C9
:1006A00094E8070098471034AC42F6D3FFF776FD84
:1006B000CC380008EC380008FEE770474FF4807033
:1006C00000F030B870B5044600F034F90546601CFF
:1006D00002D004480078044400F02CF9401BA042EA
:1006E000FAD370BD1400002000B589B0B0F5807F4A
:1006F00011D1684602F088F802000CD00DEB02011F
:10070000002048706946054802F0F8FD4FF400519A
:10071000034800F001F909B000BD000018010020F5
:1007200000080240044910B50A68024202D008607D
:10073000FFF7DAFF10BD0000143C01402DE9F84F2F
:10074000DFF8B4A1002201240AF1040B03254FF0C5
:100750000F090BF1040E00BF0B6804FA02F63340D8
:10076000B34272D10F7907F00307012F01D0022F96
:1007700016D187684FEA420805FA08FC27EA0C07F9
:10078000D1F80CC00CFA08FC4CEA070CC0F808C001
:100790004768B7430E79C6F3001696403E4346605D
:1007A0000E79F643B6070DD0C768560005FA06FC69
:1007B00027EA0C07D1F808C00CFA06FC4CEA070C33
:1007C000C0F80CC00E7906F00306022E10D1D60830
:1007D00000EB8608D8F8206057074FEAD76C09FA73
:1007E0000CF7BE430F6907FA0CF73743C8F82070BF
:1007F00006684FEA420C05FA0CF7BE430F7907F082
:10080000030707FA0CF7374307604E68F6006DD50B
:100810003A4E376847F480473760366822F003075E
:1008200006F480460096364E07EB060CDCF80868A6
:1008300097073F0F09FA07F826EA0806DFF8C48091
:10084000404503D14FF000081EE04FE0DFF8B880CC
:10085000404502D14FF0010816E0DFF8B080404576
:1008600002D14FF002080FE0DFF8A480404502D12A
:100870004FF0030808E0DFF89C80404502D14FF0BC
:10088000040801E04FF0070808FA07F848EA0608EC
:10089000CCF80888DAF800605746D1F804C09E43C7
:1008A0005FEACC3C00D51E433E60DBF800605F464B
:1008B000D1F804C09E435FEA8C3C00D51E433E60E5
:1008C000DEF800607746D1F804C09E435FEACC2C86
:1008D00000D51E433E60084F0C373E68D1F804C077
:1008E0009E435FEA8C2C00D51E433E60521C102AAA
:1008F000FFF432AFBDE8F88F003C014044380240BD
:1009000000300140000002400004024000080240A4
:10091000000C024000100240426921EA02030A4032
:1009200043EA0241816170470AB18161704709045D
:10093000FBE70000014880687047000014000020B9
:1009400070B5040025D094F83D00002520B984F846
:100950003C50204600F04CFA242084F83D002068EA
:10096000016821F0010101602068016841F4004143
:1009700001602068016821F40041016000F0B0FBD3
:100980004D4A6168914201D84C4900E04C49884287
:1009900001D2012070BD4B492368B0FBF1F15E68C4
:1009A00026F03F060E435E606368934206D94FF41B
:1009B000967359434FF47A73B1FBF3F12368491CE2
:1009C0001E6A26F03F06314319626168914210D8D1
:1009D0004900401EB0FBF1F2521CC2F30B02042A84
:1009E00001D2042022E0B0FBF1F0401CC0F30B0068
:1009F0001CE0A268F2B301EBC10303EB0116431E36
:100A0000B3FBF6F35B1C43F480431B0549D092B360
:100A100001EBC10202EB0111401EB0FBF1F0401CE2
:100A2000C0F30B0040F4804040F400402168CA69E4
:100A30004CF6FF739A431043C861D4E90710014391
:100A40002068026822F0C00211430160D4E903016A
:100A500001432068826848F2FF339A431143816062
:100A6000D4E9050108432168CA6822F0FF02104357
:100A7000C86001E00EE016E02068016841F0010165
:100A800001602564202084F83D00256384F83E50F1
:100A9000002070BD01EB4106431EB3FBF6F35B1C67
:100AA000B3E70120C2E701EB4101401EB0FBF1F0CA
:100AB000401CC0F30B00B7E7A086010080841E0035
:100AC00000093D0040420F002DE9FF4F83B09A46D8
:100AD000DDE9119793460446DDF84080FFF72AFFD1
:100AE000054694F83D00202870D119230122714950
:100AF0002046009501F056FC0028F5D194F83C0002
:100B0000012863D0012084F83C0020680168C907EF
:100B100003D1016841F0010101602068016821F4FE
:100B200000610160222084F83D00402084F83E00EE
:100B300000262664C4F82480A4F82A90608D2085BD
:100B40005D48E062CDE9007553465A462046049957
:100B500001F030FB00287CD1208DD0B1012821D0BC
:100B60000228206824D0416980690090208D0328E4
:100B700069D801282BD0514902283B464FF000028A
:100B8000009559D08846204601F00CFC002860D121
:100B90003CE02068416981690091016841F400717D
:100BA000016077E02068016821F480610160F0E76E
:100BB000016821F4806101602068016841F40061EE
:100BC0000160206841698069009063E06FE02A4617
:100BD0003946204601F065FC98BB20680069616ACF
:100BE00008704EE02068016841F4007101602068DF
:100BF0000069616A0870606A401C6062218D491E4C
:100C00002185618D491E6185216838E02068016871
:100C100021F48061016020680069616A0870606A7F
:100C2000401C6062208D401E2085608D401E6085C6
:100C30003B46002241460095204601F0B3FB00B937
:100C4000D0E706E0FFE72A463946204601F029FCB6
:100C500018B1012007B0BDE8F08F20680069616A13
:100C60000870606A401C6062218D491E2185618D7B
:100C7000491E618521684A69D24352070AD409692D
:100C80000170606A401C6062208D401E2085608D6E
:100C9000401E6085208D00287FF468AF202084F8F6
:100CA0003D0084F83E6084F83C600020D2E70220DA
:100CB000D0E70000020010000000FFFF0400010068
:100CC0002DE9FF4F83B09A46DDE91197934604461C
:100CD000DDF84080FFF72EFE054694F83D00202801
:100CE0007FD11923012240492046009501F05AFB8B
:100CF000002876D194F83C00012872D0012084F8B5
:100D00003C0020680168C90703D1016841F0010176
:100D100001602068016821F400610160212084F8ED
:100D20003D00402084F83E0000262664C4F824805C
:100D3000A4F82A90608D20852C48E062CDE90075EA
:100D400053465A462046049901F0B2FA70B930E091
:100D50002A463946204601F0D7FB58B1206C0428BA
:100D600004D12068016841F400710160012007B0DE
:100D7000BDE8F08F606A216800780861606A401CF5
:100D80006062218D491E89B22185628D521E628565
:100D900022685369DB435B070BD469B100781061AB
:100DA000606A401C6062208D401E2085608D401E60
:100DB0006085208D0028CBD12A463946204601F097
:100DC000CBFA0028CAD154F83D0B016841F40071F8
:100DD0000160202004F81E09E67766770020C6E748
:100DE000FFE70220C3E70000020010000000FFFF41
:100DF00010B586B0044614216846FFF721FA13495E
:100E00002068884220D11248016841F00201016047
:100E10000068694600F002000590C0200090122092
:100E200001900120029003200390042004900948BF
:100E3000FFF784FC06481030016841F4001101609E
:100E4000006800F40010059006B010BD005400408A
:100E500030380240000402400248816802781144A0
:100E600081607047140000200B4810B5016841F400
:100E700000710160016841F480610160016841F422
:100E800080710160032000F07FF8002000F006F878
:100E900000F024F8002010BD003C024070B50D4D5C
:100EA00004464FF47A712878B1FBF0F00A490968DA
:100EB000B1FBF0F000F0A1FC48B9102C07D20022E1
:100EC0002146501E00F040F800206C6070BD0120EB
:100ED00070BD000014000020200000200A4808B562
:100EE000016841F480410160006800F48040009096
:100EF0000548001F016841F080510160006800F062
:100F00008050009008BD00004438024000280DDBEE
:100F100000F01F02012191404009800000F1E02013
:100F2000C0F88011BFF34F8FBFF36F8F7047002859
:100F300009DB00F01F02012191404009800000F10F
:100F4000E020C0F800117047F0B40E4B1B680C464F
:100F5000C3F30223C3F10705042D00D90425191D8D
:100F6000072901D2002300E0DB1E012606FA05F165
:100F7000491E214099409E40761E16403143F0BCE8
:100F800002F0A5B80CED00E0064900F00702086881
:100F90004FF6FF03184040EA0220034A104308605E
:100FA000704700000CED00E00000FA052DE9F04765
:100FB0000E46050065D0DFF81481D8F80000F7B2BE
:100FC00000F00700B04207D288F80070D8F800009F
:100FD00000F00700B04254D128683D4C810712D57B
:100FE000400703D5206840F4E050206028780007CF
:100FF00003D5206840F4604020602068A96820F094
:10100000F000084320602878C0072DD03049686878
:101010000839012812D0022813D0032811D00968FA
:10102000890700292DDA216821F00301014321609D
:10103000FFF780FC814641F2883A0EE00968890397
:10104000EFE709688901ECE7FFF774FCA0EB090101
:10105000514502D90320BDE8F0872068696800F097
:101060000C00B0EB810FEFD1D8F80010404601F032
:101070000701B14207D90770006800F00700B042CD
:1010800001D00120E7E72878400705D52068E96806
:1010900020F4E050084320602878000706D5206837
:1010A000296920F4604040EAC100206000F038F86F
:1010B0002168084AC1F30311515CC8400649086021
:1010C00006480068FFF7EAFE0020C4E7003C024043
:1010D00008380240A838000820000020180000202E
:1010E0000448054900680968044AC1F38221515C3B
:1010F000C84070472000002008380240B838000877
:101100000448054900680968044AC1F34231515C4A
:10111000C84070472000002008380240B838000856
:10112000154810B5006810F00C02144813D014498B
:10113000042A0FD0082A0ED10F4C241F22682368DE
:1011400002F03F025B0207D52068C0F38810A0FBC5
:10115000010106E0084610BD2168C1F38811A1FB1A
:1011600000010023FFF734F82168C1F30141491C55
:101170004900B0FBF1F010BD083802400024F40033
:1011800040787D012DE9F84F04006ED02078DFF81B
:101190004C93C007A9F104054AD009F10400016885
:1011A000C1F38101012908D00068C0F38100022841
:1011B0000AD1D9F80000400206D52868800337D547
:1011C00060680028E1D033E06068B0F5803F10D05F
:1011D000B0F5A02F286810D020F48030286028684F
:1011E00020F4802028606068A8B1FFF7A3FB0646C2
:1011F0000DE0286840F48030F4E740F48020286057
:10120000F7E700BFFFF796FB801B642873D82868B8
:101210008003F7D50CE0FFF78DFB064605E000BF25
:10122000FFF788FB801B6428F0D828688003F7D478
:101230002078DFF8AC8280074FF0000A3ED5A7483F
:10124000001D016811F00C0F08D00068C0F3810088
:1012500002280BD1D9F80000400207D42868800783
:1012600016D5E068012800D112E033E1E068B8B19A
:101270000120C8F80000FFF75DFB064605E000BF4F
:10128000FFF758FB801B0228C0D828688007F7D5D5
:101290002868216920F0F80040EAC10028600DE0CC
:1012A000C8F800A0FFF746FB064604E0FFF742FB44
:1012B000801B02281FD828688007F7D420780007F1
:1012C00022D5864F87486169703771B1012101606D
:1012D000FFF730FB064604E0FFF72CFB801B0228DB
:1012E00009D838688007F7D50EE0C0F800A0FFF7EE
:1012F00021FB064605E082E0FFF71CFB801B02286D
:101300007DD838688007F7D42078400768D5DFF8A3
:10131000CCB100270BF13C0BDBF80000C0000BD474
:10132000DBF8001041F08051CBF80010DBF8000032
:10133000012700F0805000906B4E3068C00510D43B
:10134000306840F480703060FFF7F4FA009005E0F8
:10135000FFF7F0FA0099401A022850D83068C0050B
:10136000F6D55E4EA0686C3601280FD0052830688F
:1013700010D020F001003060306820F004003060B0
:10138000A068B8B1FFF7D6FA00900FE0306840F0DF
:101390000100F4E740F004003060F7E7FFF7CAFA15
:1013A0000099411A41F28830814266D8306880073E
:1013B000F4D50EE0FFF7BEFA009007E0FFF7BAFAA7
:1013C0000099411A41F28830814256D8306880072E
:1013D000F4D42FB1DBF8001021F08051CBF80010CD
:1013E000A069C8B33D49091D0968C1F381010229FB
:1013F0004AD00228504607D0C8F8600000E03CE020
:10140000FFF798FA04463BE04746C8F86000FFF74C
:1014100091FA064605E000BFFFF78CFA801B022810
:101420002BD828688001F7D4D4E907010843A16AC2
:101430002E4A490802EB0141626A41EA82110843DF
:1014400094F82C1040EA0161C9F8001001203866B8
:10145000FFF770FA044606E03EE000BFFFF76AFAC5
:10146000001B022809D828688001F7D534E000BFA6
:10147000FFF760FA001B022802D90320BDE8F88FAD
:1014800028688001F4D427E00128F7D0D9F80000BB
:10149000E26900F4800191421CD1226A00F03F0110
:1014A000914217D147F6C071626A0140B1EB821FC9
:1014B00010D1A26A4FF0FF3300F4403103EB520227
:1014C000B1EB024F06D194F82C1000F07060B0EB35
:1014D000016F01D00120D1E70020CFE7043802409E
:1014E00000004742800E4742007000400000FFFFAE
:1014F00070B5040009D0606A002540B125616561BE
:10150000A56294F8510040B10CE0012070BD606804
:10151000B0F5827FF4D0E561F2E784F850502046C0
:1015200000F044F8022084F851002068016821F09E
:1015300040010160A088218900F4827001F4044117
:101540000843A18901F400610843217C01F00201F4
:101550000843217D01F001010843218B01F4007152
:101560000843217F01F03801084394F8201001F06E
:1015700080010843218D01F400510843216808606F
:10158000A069042101EA104094F8241001F0100130
:101590000843216848602068C16921F40061C16185
:1015A0006565012084F85100002070BD10B586B03B
:1015B000044614216846FEF743FE14492068884219
:1015C00021D113480021026842F480420260006881
:1015D00000F4804005900E481038026842F0020284
:1015E0000260006800F0020005904FF46040009037
:1015F0000220CDE9010103200390052004906946F3
:101600000448FFF79BF806B010BD0000003800400A
:1016100040380240000402402DE9F84F044690F89B
:10162000500000270A9E1D4692468B464FF0010946
:1016300001280ED0012084F85000FFF77BF9804686
:1016400094F85100616801280CD0B1F5827F07D170
:1016500002E00220BDE8F88FA16809B9042801D092
:101660000227C2E0BBF1000F27D0BAF1000F24D04F
:101670001DB394F85100042802D0052084F85100CD
:1016800000206065C4F838A0E587A587C4F830B0AD
:10169000E586A5862064606420680168490603D455
:1016A000016841F040010160E068B0F5006F6068DA
:1016B00005D0E8B3012D46D07FE0012795E008B1C1
:1016C000012D39D1206B21680088C860206B801CF7
:1016D0002063E08E401EE0862EE020688168890746
:1016E0000FD5E18E69B1B9F1010F0AD1216B0988DB
:1016F000C160206B801C2063E08E401EE0864FF0AE
:10170000000920688168C9070CD0E18F51B1C06819
:10171000A16B0880A06B801CA063E08F401EE08757
:101720004FF00109FFF706F9A0EB0800B04200E016
:1017300009E001D3701C50D1E08E0028CDD1E08F9C
:101740000028CAD13FE0206B216800780873206B25
:10175000401C2063E08E401EE0862EE020688168F9
:1017600089070FD5E18E69B1B9F1010F0AD1216B5B
:1017700009780173206B401C2063E08E401EE086D8
:101780004FF0000920688168C9070CD0E18F51B182
:10179000C068A16B0870A06B401CA063E08F401E66
:1017A000E0874FF00109FFF7C5F8A0EB0800B04251
:1017B00002D3701C01D010E07EB1E08E0028CDD1A4
:1017C000E08F0028CAD142463146204601F0FEF89B
:1017D00028B101272020606507E0032705E0A06805
:1017E00018B92068C16880680090012084F8510011
:1017F000002084F8500038462CE710B5401EB0F1A8
:10180000807F01D3012010BD4FF0E02460610F21E3
:10181000601701F05CFC0020A0610720206100201F
:1018200010BD70477047000070B590F83C20012A49
:101830002CD0012480F83C40022280F83D2003682F
:101840005A689D6822F070060A6832435A60104B4D
:1018500002689A420ED0B2F1804F0BD00D4B9A42E3
:1018600008D00D4B9A4205D00C4B9A4202D00C4B3B
:101870009A4204D1496825F080031943916080F8A9
:101880003D40002180F83C10084670BD022070BD2C
:10189000000001400004004000080040000C00402F
:1018A0000040014010B5040003D094F83D0010B191
:1018B00007E0012010BD002084F83C00204600F025
:1018C0001FF8022084F83D00211D206801F088F9EE
:1018D000012084F8460084F83E0084F83F0084F834
:1018E000400084F8410084F8420084F8430084F802
:1018F000440084F8450084F83D00002010BD00003D
:1019000010B586B0044614216846FEF799FC20689D
:10191000B0F1804F27D115480021026842F0010242
:101920000260006800F0010005901048103802685D
:1019300042F002020260006800F0020005900820F8
:1019400000900220CDE901010120CDE90310694694
:101950000748FEF7F3FE002211461C20FFF7F4FAB9
:101960001C20FFF7E4FA06B010BD0000403802402A
:101970000004024070B5044690F83C00012817D0DE
:10198000012584F83C50022084F83D0020688268DC
:1019900022F0770222F47F4282600868502830D01B
:1019A0000DDC20284DD005DC98B310283BD148E051
:1019B000022070BD302844D0402834D139E060285E
:1019C00028D0702806D0B0F5805F2CD0B0F5005F2D
:1019D00029D10AE0CB68D1E90121206801F059F949
:1019E0002068816841F0770109E0CB68D1E90121E5
:1019F000206801F04EF92068816841F480418160DF
:101A000011E0CA684968206801F0F8F9502120689F
:101A100007E016E0CA684968206801F037FA6021DB
:101A2000206801F040F984F83D50002084F83C0023
:101A300070BDCA684968206801F0E0F9402120685B
:101A4000EFE7226801461046EBE70000164988429E
:101A500029D10268116A926B8B0614490AD44A6034
:101A600001680A6A22F0A0020A620068016A41F075
:101A7000200117E0CA604B68D21A02EB82025200C2
:101A80000323B2FBF3F2AA238A605A434FF47A731A
:101A9000B2FBF3F24A8001680A6A22F0A0020A62ED
:101AA0000068016A01627047D00000200000002039
:101AB0002DE9F041054690F83C000C46012836D04F
:101AC000012085F83C008AB3042A42D02868082AFD
:101AD00051D0D4E90023E168066A26F480560662F4
:101AE000C669076A26F4407646EA03234FF6FF7676
:101AF00006EA013123F4704319434FF4204627F4DA
:101B0000204306EA02321A43C16102622868C169B1
:101B100021F44061C1612868C169A26841EA0221DB
:101B2000C161002085F83C00BDE8F08101E00220A1
:101B3000FAE7D4E90012E368286801F071F928682F
:101B4000816921F00C01816128688169A2681143D3
:101B50000FE0D4E90012E368286801F0A9F92868C9
:101B6000816921F44061816128688169A26841EA44
:101B700002218161D5E7D4E90027267B016A21F49F
:101B800080710162C169036A21F00301394321F0C8
:101B9000F00731074FF4206647EA116123F4206310
:101BA00006EA02221A43C16102622868C16921F073
:101BB0000C01C1612868C169A2681143B0E710B582
:101BC000040003D094F83D0010B107E0012010BDDF
:101BD000002084F83C00204600F01EF8022084F823
:101BE0003D00211D206800F0FBFF012084F8460025
:101BF00084F83E0084F83F0084F8400084F84100F7
:101C000084F8420084F8430084F8440084F84500D6
:101C100084F83D00002010BD7047000010B5044658
:101C200051B104290DD0082910D094F8410094F83E
:101C30004520012811D10EE094F83E0094F842208E
:101C4000F7E794F83F0094F84320F2E794F8400057
:101C500094F84420EDE7012A01D0012010BD0220B4
:101C600051B1042911D0082918D084F8410084F812
:101C700045000C291BD13CE084F83E0084F842006A
:101C80002068C26842F0020210E084F83F0084F845
:101C900043002068C26842F0040207E084F8400074
:101CA00084F844002068C26842F00802C260012241
:101CB000206800F0E1FF1149206888420ED0B0F1A1
:101CC000804F0BD00E49884208D00E49884205D07B
:101CD0000D49884202D00D49884204D1816801F043
:101CE0000701062903D0016841F0010101600020CD
:101CF00010BD2068C26842F01002D7E70000014022
:101D00000004004000080040000C0040004001407A
:101D100070B50446006801694FF00005C9438907A2
:101D200015D4C168C943890711D4E91E0161012096
:101D30002077206880698007204602D0FFF786FE62
:101D400004E000F0C1F8204600F050F92577206843
:101D50000169C943490717D4C168C943490713D466
:101D60006FF004010161022020772068806910F47F
:101D7000407F204602D0FFF769FE04E000F0A4F89F
:101D8000204600F033F9257720680169C943090727
:101D900016D4C168C943090712D46FF00801016164
:101DA000042020772068C0698007204602D0FFF712
:101DB0004DFE04E000F088F8204600F017F9257782
:101DC00020680169C943C90617D4C168C943C90657
:101DD00013D46FF010010161082020772068C069DA
:101DE00010F4407F204602D0FFF730FE04E000F000
:101DF0006BF8204600F0FAF8257720680169C9439E
:101E0000C90708D1C168C943C90704D1891E016146
:101E1000204600F045F920680169C943090609D444
:101E2000C168C943090605D46FF0800101612046ED
:101E3000FFF7F7FC20680169C943490609D4C16866
:101E4000C943490605D46FF040010161204600F006
:101E500028F920680169C94389060BD4C168C943C0
:101E6000890607D46FF0200101612046BDE870406B
:101E7000FFF7D8BC70BD000010B586B00446142131
:101E80006846FEF7DDF92068B0F1804F16D10C48A6
:101E90000021026842F001020260006800F00100C7
:101EA00005904FF4004000900220CDE9010101208F
:101EB000CDE9031069460348FEF740FC06B010BDAB
:101EC0003038024000000240704770B5044690F878
:101ED0003C000D4601280AD0012084F83C0042B1A4
:101EE000042A18D0082A2AD00C2A4DD139E0022021
:101EF00070BD206800F0E0FE2068816941F00801B3
:101F000081612068816921F0040181612068816913
:101F10002A69114311E0206800F0F6FE206881690B
:101F200041F4006181612068816921F480618161EF
:101F3000206881692A6941EA0221816124E02068E0
:101F400000F00EFF2068C16941F00801C1612068FE
:101F5000C16921F00401C1612068C1692A69114386
:101F600011E0206800F028FF2068C16941F4006199
:101F7000C1612068C16921F48061C1612068C169C3
:101F80002A6941EA0221C161002084F83C0070BD49
:101F900010B5040003D094F83D0010B107E0012013
:101FA00010BD002084F83C00204600F01EF80220FE
:101FB00084F83D00211D206800F012FE012084F805
:101FC000460084F83E0084F83F0084F8400084F81E
:101FD000410084F8420084F8430084F8440084F807
:101FE000450084F83D00002010BD70477047000098
:101FF00010B50446022249B104290ED0082913D095
:1020000094F84100012816D0012010BD94F83E003C
:102010000128F9D184F83E200FE094F83F00012810
:10202000F2D184F83F2008E094F840000128EBD179
:1020300084F8402001E084F841200122206800F06B
:102040001BFE12492068884203D1426C42F40042D0
:102050004264206888420ED0B0F1804F0BD00C490A
:10206000884208D00B49884205D00B49884202D0EB
:102070000A49884204D1816801F00701062903D08A
:10208000016841F001010160002010BD0000014025
:102090000004004000080040000C004000400140E7
:1020A0007047704770B5040004D094F83D000025D7
:1020B00010B106E0012070BD84F83C50204600F0CD
:1020C00023F8242084F83D002068C16821F40051E1
:1020D000C160204600F04CFF2068016921F4904166
:1020E00001612068416921F02A0141612068C168CD
:1020F00041F40051C1602564202084F83D0084F83B
:102100003E00002070BD000010B586B004461421CA
:102110006846FEF795F818492068884229D1174883
:102120000021026842F020020260006800F02000F6
:10213000059012481438026842F0010202600068FB
:1021400000F0010005904FF4C05000900220CDE94E
:102150000101032003900820049069460848FEF717
:10216000EDFA002211464720FEF7EEFE4720FEF76B
:10217000DEFE06B010BD00000014014044380240ED
:1021800000000240FEE701684A69D24352050FD4BD
:102190006FF480624A61002140F8301F20224273B0
:1021A0008173026942F004020261017301207047E9
:1021B000002070472DE9F84F0446006889460B9DC2
:1021C00001689846174641F4806101602068016803
:1021D00041F48071016000954FF0011B00225946C7
:1021E00020460A9B00F0DEF84FF4007A40B12068E8
:1021F0000068C00501D5C4F840A00320BDE8F88FF1
:10220000216809F0FE0008612B46284920460A9AF9
:1022100000F0FCF8F0BB20684169806900902A4614
:1022200020460A9900F070F940B1206C04283AD198
:102230002068016841F40071016034E0FEB2B8F139
:10224000010F09D02168380A08612A4620460A99F8
:1022500000F05AF90028E8D1206806612A46204695
:102260000A9900F051F90028DFD12068016841F493
:102270008071016000950022594620460A9B00F0BB
:1022800091F80028B3D1216809F0FF0040F0010067
:10229000086100E007E02B46044920460A9A00F056
:1022A000B5F80028AAD00120A8E70000020001002C
:1022B0002DE9F843044600680D46DDE908970168FA
:1022C0009846164641F4807101604B4600224FF05B
:1022D00001112046009700F065F848B120680068B9
:1022E000C00502D54FF4007020640320BDE8F883D8
:1022F000216805F0FE0008613B464A461549204624
:1023000000F084F888B920684169806900903A46F5
:102310004946204600F0F8F848B1206C042804D162
:102320002068016841F4007101600120DEE7F5B228
:10233000B8F1010F09D02168300A08613A464946D0
:10234000204600F0E1F80028E7D120680561002070
:10235000CCE700000200010070B516460D460446A9
:102360000DE02046FFF70FFF08B1012070BD681C8B
:1023700005D0FEF7DFFA801BA84207D835B12068E8
:102380004069C0434007ECD4002070BD002044F8F1
:10239000300F20216173A073216941F02001216178
:1023A0002073E2E72DE9F0471E4690460D460446AD
:1023B000C1F30747DDF8209008E0701C06D0FEF757
:1023C000B9FAA0EB0900B0420FD876B12068012F0E
:1023D00018D0806925EA00000004000C14D0002108
:1023E0004145EAD00020BDE8F087002044F8300FD6
:1023F00020216173A073216941F0200121612073C4
:102400000120F0E74069E5E70121E9E72DE9F04720
:102410009A4691460E46044600254FF02008C1F327
:10242000074725E020684069C043400514D4206870
:10243000016841F40071016021686FF480604861B7
:10244000256384F83D8084F83E50206C40F0040001
:10245000206484F83C501FE0B9F1FF3F08D0FEF73C
:1024600069FAA0EB0A0149450CD8B9F1000F09D06F
:102470002068012F13D0806926EA00000004000CB8
:102480000BD0CFE744F8305F84F80D80A573206946
:1024900040F02000206125730120BDE8F0874069ED
:1024A000EAE72DE9F041002590460E460446202734
:1024B00017E04069C043C0060CD454F8301B6FF0DD
:1024C0001000486144F810596777A577206A2062A8
:1024D000257717E0FEF72EFAA0EB0800B04208D8E7
:1024E0003EB120684169C9434906E2D40020BDE8F5
:1024F000F08144F8305F6773A573206940F02000D5
:10250000206125730120F2E770B516460D4604469A
:102510000DE02046FFF737FE08B1012070BD681CB2
:1025200005D0FEF707FA801BA84207D835B120680E
:102530004069C0430006ECD4002070BD002044F880
:10254000300F20216173A073216941F020012161C6
:102550002073E2E7F0B587B014216846FDF770FEFE
:102560002D480024016841F004010160016801F078
:1025700004010591016841F080010160016801F0EA
:1025800080010591016841F002010160016801F0DC
:1025900002010591016841F00101016000681F4ED0
:1025A00000F001004FF40055059000222946304606
:1025B000FEF7BAF91A4F0022E9103846FEF7B4F9CF
:1025C000012211033846FEF7AFF900950125CDE948
:1025D0000154694630460394FEF7B0F84FF4A0501A
:1025E0000090CDE90154694638460394FEF7A6F8F9
:1025F000280200900B48CDE9010569460A48FEF71C
:102600009DF8002211461720FEF79EFC1720FEF7CA
:102610008EFC07B0F0BD00003038024000080240D8
:102620000004024000002110000002400F4810B5D5
:102630000D4901604FF48271416000218160C160E9
:102640004FF400720161C0E905121022C0E90721B0
:10265000416281620A21C162FEF74AFF002801D06F
:1026600072B6FEE710BD0000003800407800002080
:1026700010B592B000240B940C940D940E940F940A
:102680001C2168461094FDF7DBFD2B480794089445
:1026900009944FF080410A94016040F21711C0E99B
:1026A00001144EF65F21C0E9031480218161FFF718
:1026B000F9F808B172B6FEE74FF480500B900BA901
:1026C0001D48FFF757F908B172B6FEE71A48FFF741
:1026D0005FFC08B172B6FEE71748FFF770FA08B161
:1026E00072B6FEE70F940FA913481094FFF79CF8F9
:1026F00008B172B6FEE7602000900320CDE9010426
:10270000002269460C480494FFF7DFFB08B172B65B
:10271000FEE70120CDE907400994042207A90648F5
:102720000A94FFF7C5F908B172B6FEE70248FFF751
:10273000A3FB12B010BD0000D0000020FEE7FEE7B2
:102740001FB50FA10522D1E90001CDE9020102A9BF
:10275000302000F0B7F805226946102000F014F888
:10276000002069460A5CA52A03D1401CC0B2052896
:10277000F8D3052802D0012004B010BD0020FBE7EB
:10278000A5A5A5A5A50000002DE9F047DFF840901C
:1027900015460F4604464FF48058002241464846ED
:1027A000FEF7C2F8204600F099F90646002405E03D
:1027B000FF2000F093F93855641CE4B2AC42F7D323
:1027C000012241464846FEF7AFF83046BDE8F087A3
:1027D0000004024070B50B4E04464FF480550022B1
:1027E00029463046FEF7A0F8204600F077F9FF2092
:1027F00000F074F90446012229463046FEF794F8A9
:10280000204670BD0004024038B505460720FFF79A
:10281000E1FF04460146272000F07AF8600611D552
:10282000012269466020FFF7AFFF9DF8002029468E
:102830006120FFF7A9FFFF21E22000F069F89DF871
:10284000000038BD002038BD2DE9F0411C4E0C467B
:10285000804600254FF480672A4639463046FEF709
:1028600063F822464146A02000F02CF801223946A8
:102870003046FEF759F80720FFF7ACFF044642F256
:10288000107605E00720FFF7A5FF6D1C0446ADB2EA
:10289000A00601D4B542F5D32146272000F038F830
:1028A000E00606D5FF21E12000F032F81020BDE857
:1028B000F081A00601D52020F9E7FF20F7E700000E
:1028C000000402402DE9F047DFF8409016460D461F
:1028D00004464FF48058002241464846FEF724F84B
:1028E000204600F0FBF80746002405E015F8010B30
:1028F00000F0F4F8641CE4B2B442F7D3012241467C
:102900004846FEF711F83846BDE8F087000402405B
:102910002DE9F0410C4E0F4604464FF4805500223D
:1029200029463046FEF700F8204600F0D7F8044666
:10293000384600F0D3F8012229463046FDF7F4FF6F
:102940002046BDE8F081000000040240704700000E
:1029500070B51C4D4FF48064002221462846FDF7D7
:10296000E3FF052218492A20FFF7ACFF01212120AF
:10297000FFF7CEFF01212220FFF7CAFF28212520E3
:10298000FFF7C6FF20213120FFF7C2FF0F212620CD
:10299000FFF7BEFF3F212020FFF7BAFF702127205D
:1029A000FFF7B6FF04213D20FFF7B2FF01213C20D5
:1029B000FFF7AEFF21462846BDE870400122FDF733
:1029C000B3BF000000040240C538000838B5044613
:1029D0001248134B0068B0FBF3F04FF47A7358437E
:1029E00000906068B0F5827F0DD10B460092002206
:1029F0008021204600F016F870B1606D40F0200094
:102A00006065032038BD009830B1401E00902068FA
:102A10008068C0430006F6D5002038BD20000020A5
:102A200000366E012DE9F8431E469146884604465D
:102A3000089DFDF77FFF401B351AFDF77BFF07461A
:102A400025480068C0F3CB30684338E0701C37D0AD
:102A5000FDF770FFC01BA84203D215B1009860B308
:102A60002CE02068416821F0E00141606068B0F529
:102A7000827F0BD1A068B0F5004F02D0B0F5806F17
:102A800004D12068016821F040010160A06AB0F51E
:102A9000005F09D12068016821F4005101602068BD
:102AA000016841F400510160012084F851000020C8
:102AB00084F850000320BDE8F8830025401E0090F4
:102AC0002068816838EA010004D000214945BDD161
:102AD0000020F0E70121F9E72000002001B582B0D5
:102AE00064200090012301AA02A90348FEF794FD87
:102AF0009DF804000EBD0000780000207047000023
:102B000010B5FEF7A9F9084C206800280AD0FDF797
:102B100011FF2168401A0A2804D9044901200870CD
:102B20000020206010BD00001000002000000020E8
:102B300030B593B030216846FDF782FB14210CA814
:102B4000FDF77EFB1D480025016841F080510160C2
:102B5000006800F0805011901948016821F440414C
:102B600041F4004101600068022400F440401190EB
:102B700001200090000401908001CDE90640192059
:102B80000890A820CDE9090404200B906846FEF7C0
:102B9000F9FA08B172B6FEE70CA90F2081E83100FE
:102BA0004FF48050CDE90F0502210CA8FEF7FEF985
:102BB000002801D072B6FEE713B030BD40380240A5
:102BC000007000400248016841F4700101607047E4
:102BD00088ED00E00148FFF79BB80000D00000201E
:102BE000F0B502681D4B1E4C9F031E4D1E4E9842B1
:102BF00007D0B84205D0A04203D0A84201D0B042CD
:102C000004D122F0700C4A6842EA0C02984210D0BB
:102C1000B8420ED0A0420CD0A8420AD0B04208D090
:102C2000124CA04205D0124CA04202D0114CA0423E
:102C300003D122F44074CA6822434C6922F0800216
:102C4000224302608A68C2620A688262984201D1A5
:102C50000969016301214161F0BD000000000140EC
:102C60000004004000080040000C0040004001400B
:102C7000004401400048014010B501F01F0301214C
:102C8000046A99408C430462016A9A4011430162CC
:102C900010BD10B5846842EA032224F47F440A433D
:102CA0002243826010BD826822F070020A4342F023
:102CB000070181607047000030B5026A22F001020E
:102CC0000262026A4368846924F073050C682C432D
:102CD00022F002058A682A430A4DA8420BD122F04D
:102CE0000805CA6823F440732A434D6922F00402A0
:102CF0001D438B692B4343608461496841630262D1
:102D000030BD00000000014030B5026A22F0100220
:102D10000262026A436884690D6824F4E64444EA66
:102D200005248D6822F0200242EA05120B4DA842CC
:102D30000ED1CD6822F0800242EA05124D6923F4DB
:102D4000406343EA85038D6922F0400243EA85032C
:102D50004360846149688163026230BD00000140C4
:102D600030B5026A22F480720262036A4268C46962
:102D700023F4007324F073050C682C438D6843EA38
:102D800005230C4DA8420ED1CD6823F4006343EA1D
:102D900005234D6922F4405242EA05128D6923F45D
:102DA000806342EA05124260C4614968C1630362FC
:102DB00030BD00000000014030B5026A22F48052AC
:102DC0000262046A4268C3690D6823F4E64343EA79
:102DD00005238D6824F4005444EA0534064DA842C6
:102DE00004D14D6922F4804242EA85124260C361F7
:102DF00049680164046230BD0000014010B5036AF7
:102E0000046A24F001040462846924F0F00444EAB2
:102E1000021423F00A020A438461026210BD00001A
:102E200070B5046A24F0010404628469056A124ED4
:102E3000B0420ED0B0F1804F0BD0104EB04208D04F
:102E40000F4EB04205D00F4EB04202D00E4EB042EF
:102E500003D124F00304144301E044F001041A07F1
:102E600024F0F00444EA126225F00A0301F00A019A
:102E700019438261016270BD0000014000040040FE
:102E800000080040000C00400040014010B5036AFB
:102E900023F0100303628369046A23F4704343EA56
:102EA000023224F0A00343EA01118261016210BDE5
:102EB00030B5046A24F0100404628469056A24F4BD
:102EC000407444EA022222F470444FF6FF7202EA90
:102ED00003322243A02425F0A00304EA0111194380
:102EE0008261016230BD000070B51F4D4FF48064F7
:102EF000002221462846FDF717FD05221B493020F8
:102F0000FFF7E0FC19490522491D2A20FFF7DAFCEA
:102F100001212120FFF7FCFC01212220FFF7F8FC12
:102F20001A212420FFF7F4FC28212520FFF7F0FCCC
:102F30000F212620FFF7ECFC7E212020FFF7E8FC84
:102F400070212720FFF7E4FC04213D20FFF7E0FC7F
:102F500001213C20FFF7DCFC21462846BDE87040FB
:102F60000122FDF7E1BC000000040240C038000867
:102F700070B5044600680169E26821F440511143CC
:102F800001612169A068E26908436169114308434E
:102F90002168CA6849F20C639A430243CA602068F8
:102FA0004169A26921F440711143416131492068AE
:102FB000884202D03049884202D1FEF7A1F801E0F0
:102FC000FEF78EF8E2690023192164253226B2F556
:102FD000004F626828D0A0FB0101930F9200FDF71B
:102FE000F7F80146B0FBF5F06FF01802504301EB23
:102FF000800006EB0010B0FBF5F000F0F002B1FB32
:10300000F5F002EB0012B1FBF5F06FF01803584336
:1030100001EB800006EB0010B0FBF5F000F00F00B4
:1030200021681044886070BDA0FB010192185B41CB
:10303000FDF7CEF80146B0FBF5F00201B1FBF5F06B
:103040006FF01803584301EB800006EBC000B0FBA3
:10305000F5F000F0F80002EB4002B1FBF5F0584348
:1030600001EB800006EBC000B0FBF5F000F00700BC
:10307000D6E7000000100140001401400E4810B5D2
:103080000068800617D50C48001D0068C4B2FDF723
:1030900051FC0A490A4A0860107820280BD2094BD3
:1030A0001C54401CC0B21070202804D1064A0120D4
:1030B00010700020086010BD0014014010000020B6
:1030C000010000205C01002000000020FEE709074D
:1030D000090E002804DB00F1E02080F8001470479E
:1030E00000F00F0000F1E02080F8141D704702E0AE
:1030F00008C8121F08C1002AFAD170477047002083
:1031000001E001C1121F002AFBD170472DED048B95
:10311000FDF7AAFEFFF70CFDFFF71CFAFFF786FA92
:10312000614C6048002520604FF4E130C4E901059E
:103130000C20E560C4E90450A5612046E561FEF776
:10314000B1FF08B172B6FEE757485849F43801603C
:103150005749C0E901154FF48041C0E90351456169
:103160008561C5610562FDF7EBFB08B172B6FEE74C
:10317000FFF77EFA1720FDF7C9FE2068C16841F00D
:103180002001C16000F0A0FA474800214838FEF74E
:103190002FFF454804214838FEF740FD4FF4005604
:1031A000DFF8108106E031464046FDF7B5FBFA2016
:1031B000FDF788FAFFF7C4FA0028F4D1FFF7C8FB3F
:1031C000002211461720FDF7BFFE1720FDF7AFFEC6
:1031D000354A002012F1440200F120011154401C34
:1031E000C0B22028F8D3344C9FED349ADFED349AE6
:1031F0004FF47A79207868B1FFF776FE2A48617833
:103200004430FFF721FB202844D00A20FDF75AFA6A
:10321000FFF79EFB00F041FBF0EE408A00F036FB2A
:10322000B0EE408A27A139EE480A1F4820EE290A4D
:10323000BCEEC00A10EE107A00F0D7F80221B0EE12
:10324000680A194800F06AF820A1174800F0CDF884
:103250000221B0EE480A144800F060F81EA112489E
:1032600000F0C3F83946104800F093F81DA10E484D
:1032700000F0BBF81DA10C4800F0B7F861880A48BF
:1032800000F087F817A1084800F0AFF84846FDF7AE
:1032900019FAAFE7257031464046FDF73DFB6570F2
:1032A000B6E700000014014018010020005400405F
:1032B000A086010000080240000000200038C74737
:1032C000E17A9D42C6F8CEC2A3BA0000B6C809C6CC
:1032D000F8D1B9A3BA0000006D70617209BAA3B049
:1032E000CEA3BA006D6D0D0A00000000643D000021
:1032F000006802681206FCD54160704770B514463C
:103300000D460646002305E0E95C3046FFF7F0FF76
:103310005B1CDBB2A342F7D370BD0000F0B5FDEE3D
:10332000C00A0C46054610EE901A00EE901AF8EE10
:10333000E00A30EE600A00F02CF82E212846FFF754
:10334000D7FFB5EEC00AF1EE10FA01D2B1EE400A95
:103350000023F2EE040A4FF07E56671E0EE000BF17
:1033600020EE200A10EE100AB04205DABB4203DA62
:1033700030212846FFF7BCFF5B1CDBB2A342EFD332
:103380002846BDE8F040BDEEC00A10EE101AAFF3BB
:103390000080FEB500222D258DF80B20002903DAD0
:1033A00049428DF8005002E020238DF800300A23B6
:1033B0006C4691FBF3F603FB161691FBF3F1C2F199
:1033C0000A073036521CE655D2B20029F1D19DF8D9
:1033D00000102D2904D1C2F10A01521C6554D2B249
:1033E000A11A0B3100F001F8FEBD10B50B460446E2
:1033F00003E020465B1CFFF77BFF19780029F8D11A
:1034000010BD00002DE9F0411021EC2000F094F9EE
:1034100004461121EC2000F08FF901462001454CB3
:1034200040EA11100105208001D540F47040208051
:103430001121EC2000F080F905461221EC2000F06B
:103440007BF905F00F0140EA01206080010501D5FC
:1034500040F4704060801321EC2000F06DF90546C7
:103460001421EC2000F068F906461521EC2000F04C
:1034700063F9290341EA061141EA20102E4E6060EB
:10348000010300D5304360601521EC2000F054F9B1
:1034900005461621EC2000F04FF907461721EC20D5
:1034A00000F04AF9290441EA07210143A160080319
:1034B00000D53143A1601821EC2000F03DF905460C
:1034C0001921EC2000F038F940EA0520A0811A21EA
:1034D000EC2000F031F905461B21EC2000F02CF91E
:1034E00040EA0520E0811C21EC2000F025F905468A
:1034F0001D21EC2000F020F940EA052020821E2149
:10350000EC2000F019F905461F21EC2000F014F919
:1035100040EA052060822021EC2000F00DF90546EC
:103520002121EC2000F008F940EA0520A082BDE846
:10353000F0810000800100200000F0FF264890ED9F
:10354000020AB8EEC01A90ED040AB8EEC00AC1EE45
:10355000000A90ED010AB8EEC01A90ED030A18387F
:10356000F8EEC01AB0F9101081EE210A01EE101A1F
:10357000B0F91410F8EEC11A01EE101AB0F90E10DD
:10358000B8EEC11A40EE011A90ED021AB8EEC11A57
:1035900000EE211A01EE901AB0F9121002EE101A84
:1035A000F8EEE11AB8EEC22A40EE021A20EE802AA6
:1035B00021EE822AD0ED011AB0F90C00F8EEE11AE2
:1035C00040EE011A00EE100AB8EEC00A40EE801A72
:1035D00031EE820A704700009801002070B500218A
:1035E000EC2000F0A9F804460121EC2000F0A4F83A
:1035F00005460221EC2000F09FF80146200440EA35
:103600000520084303490202486001D540F07F408D
:10361000486070BD9801002070B50321EC2000F0D7
:103620008BF804460421EC2000F086F805460521BD
:10363000EC2000F081F80146200440EA0520084310
:1036400003490202886001D540F07F40886070BD68
:103650009801002010B519482DED028BA0F1180437
:1036600090ED020AF8EEC00A90ED040AB4F90200E7
:10367000B8EEC01A80EE810A00EE900AF8EEE00A79
:1036800020EE800A10EE100AFCF70FFF41EC180B39
:10369000B4F90000FCF7F8FE9FED091B53EC112B69
:1036A000FCF780FE53EC182BFCF7D5FDFCF710FF60
:1036B000BDEC028B00EE100A10BD00009801002046
:1036C000000000000000E03F70B5FDF733F9C4B220
:1036D00000F058F80546FDF72DF9001BC82819D849
:1036E0002806F5D5FFF78EFEFDF724F95FFA80F581
:1036F00000F048F80446FDF71DF9401BC82809D81A
:103700006006F5D500F03AF80A4908700121B1EBDE
:10371000101F01D0012070BD0521072000F036F8F0
:1037200001220321052000F073F8072000F06AF859
:10373000002070BD980100201FB50A24012303AAB0
:103740008DE81C000A4601460348FDF7BDF99DF8C7
:103750000C0004B010BD00002400002017B583B099
:103760000A24012305AA8DE81C000A4601460248E6
:10377000FDF7A6FA06B010BD240000200D21EC20B4
:10378000FFF7DABF0821EC20FFF7D6BF70B541EA9A
:1037900000100C46C5B2032909D90921EC20FFF716
:1037A000CBFF40F004020921EC20FFF7D7FF1448BB
:1037B000082C21D2DFE804F02004071114171A1D89
:1037C0004FF4C01101E04FF46011C1602A46BDE81A
:1037D00070400621EC20FFF7C1BF4FF4F001F4E781
:1037E0004FF47831F1E74FF4FC21EEE74FF47E21FE
:1037F000EBE74FF4FF11E8E74FF40021E5E70000A5
:103800009801002002460821EC20FFF7A7BF000026
:1038100070B50C46D10141EA00102043C5B2032C1B
:1038200009D90921EC20FFF787FF40F008020921A0
:10383000EC20FFF793FF1448082C21D2DFE804F0B6
:103840002004071114171A1D4FF4C01101E04FF4A2
:10385000601101612A46BDE870400721EC20FFF7A6
:103860007DBF4FF4F001F4E74FF47831F1E74FF406
:10387000FC21EEE74FF47E21EBE74FF4FF11E8E780
:103880004FF40021E5E700009801002010B5FFF794
:10389000A5FEBDE81040FFF751BE10B5FFF7BCFE16
:1038A000BDE81040FFF7D6BE000000000000000099
:1038B00001020304060708090000000001020304D6
:1038C000344310100134431010010000EC3800089C
:1038D0000000002024000000EE300008103900082D
:1038E000240000208C050000FE30000800000000CD
:1038F00000000000000000000000000000000000C8
:103900000100000010000000000000000024F4008E
:040000050800019559
:00000001FF
